:020000040000FA
:10000000C80B0020D5000000FB000000FD00000030
:1000100000000000000000000000000000000000E0
:10002000000000000000000000000000FF000000D1
:1000300000000000000000000101000003010000BA
:100040000501000005010000050100000501000098
:100050000501000041180000050100000501000035
:10006000311E00000501000005010000050100002F
:100070009D1E0000C11E00000501000005010000DA
:100080000501000005010000BD1800000501000089
:100090000501000005010000050100000501000048
:1000A0000501000005010000050100000501000038
:1000B0000501000005010000050100000501000028
:1000C0000348854600F028FE0048004769470000C5
:1000D000C80B00200C480D4901600D4901600D4915
:1000E00001600D4A0D4911600D4A0E491160002151
:1000F00001600D4880470D480047FEE7FEE7FEE738
:10010000FEE7FEE7FEE70000000100505900000096
:10011000160000008800000024000050A55A0000CE
:10012000800300501F000000311D0000C1000000CE
:1001300030B50B46014600202022012409E00D467F
:10014000D5409D4205D31D469540491B2546954007
:1001500040191546521E002DF1DC30BD70B500244B
:100160002546002801DA01244042002901DA012550
:100170004942FFF7DDFFAC4200D04042002C00D0E6
:10018000494270BD03460B439B0703D009E008C9F1
:10019000121F08C0042AFAD203E00B780370401C37
:1001A000491C521EF9D27047D2B201E00270401CC5
:1001B000491EFBD270470022F6E710B513460A46E7
:1001C00004461946FFF7F0FF204610BD70B5002821
:1001D00000D11068002514E00B4602E0A64203D0CF
:1001E0005B1C1C78002CF9D1E3B22B4307D0002C08
:1001F00006D0002D04D000210170401C04E005460B
:10020000401C0678002EE7D11060284670BD014AD8
:10021000DCE700002801002030B50546002008E09A
:100220000A4602E0A34207D0521C1378002BF9D1F2
:10023000401C2C5C002CF3D130BD70B5064601F09B
:10024000E1FF046805460A220021304600F004FC64
:100250002C6070BD70B5064601F0D4FF04680546F9
:100260000A220021304600F0F7FB2C6070BDF8B583
:1002700002464A40D40F42004B0052085B089A42A3
:1002800002D20246084611464A0023D0C30D4A0056
:10029000DDB2120EAD1A202D35DA49020126490AC7
:1002A000F6058A19002C00D0524220214F1B11461E
:1002B000B9402A411018C20D9A4221D0002C17D003
:1002C000012D08DCDA05801AD20F8019D207DBB2C3
:1002D00000F002FCF8BDDA05801A012340001B067D
:1002E000C01880185A428018CA0F1043490007E00E
:1002F0004908C2071143DA05801A8019400880189E
:1003000000F0E2FBF8BD61000122511A001BF7E783
:100310000122D2075140AAE70122D2075040A6E7A6
:10032000024670B54A40D30FDB0740002DD04A008B
:100330002AD0010E140E000212020919400A520AB4
:100340008418E50104465443000A120A2E0450435F
:10035000A4194219200CC543AA18120C0125AD039B
:10036000521C521912047F39240400D0521C10432D
:1003700001D44000491EC2B20C06C0092018401C1E
:100380004008802A02D003E0002070BD40084000F1
:10039000002900DA0020184370BD70B502464A40BB
:1003A000D50F40004A00ED0740085208002814D03D
:1003B000002A12D0C40DD30D41020120C005520203
:1003C000490A520AE41A091812187D34914201D3DD
:1003D000641C00E04900002C01DA002070BD0023FD
:1003E000914201D3891A0343400849000028F7D1FC
:1003F00000290AD0914202D10121C90705E09142AA
:1004000001D2012101E00121C943E005C0184019D2
:1004100000F05AFB70BD0000F0B507460846584092
:1004200087B0C00F049048000E46590040084908A4
:10043000BC1A884105D2384631461E4617460B463F
:1004400002465800400810434CD0300D0390400540
:100450005900400D490D0590401A0290402872DA6B
:1004600018030121000B090508430190049800922C
:10047000002805D001995242002088410092019045
:10048000029840210A1A0199009800F05FFA054687
:100490000C466B4607CB00F07AFAC0197141039AFB
:1004A0000E0D0023D71756401A467A40164344D003
:1004B000049A002A2DD0029A012A039A15DC12050B
:1004C000C01A914101263605001C7141D20F059ECC
:1004D000D2070093019202962A46234600F042FB7F
:1004E00007B0F0BD38463146FAE71605224A0F46F6
:1004F000B218C01AB74101210905001C4F4100186C
:100500007F41114618187941E20F10436D1964417B
:1005100013E0E2076D0815436408C2071443039A09
:1005200001261205C01A91413605001C7141CE0703
:10053000400830434908C01851412A46234600F07C
:1005400004FBCDE7FFE7049801224000C117121A0F
:1005500000238B4104983146C417381AA141EEE7B5
:1005600030B40124E407634030BC55E730B40124C3
:10057000E407614030BC4FE70000E0FFF0B51FB476
:1005800088B00B990998002448400999C00F490088
:1005900049080991C0070B990090490049080B913F
:1005A00009990898A64608431CD00B990A98084355
:1005B00018D0099801244000420D4800410D0998C7
:1005C00024050003000B204309900B980003000B47
:1005D00020430B9050181C494018002201901446EB
:1005E000104605E0002001460DB0F0BD032801DAF9
:1005F000034600E003239C46C11A0AAE0AE05F00EE
:1006000008ADED5B4F00F75B7D430027AA187C41E6
:10061000491C5B1E6145F2DD410004AB5A522104C6
:10062000120C0A43240C401C0828DFDB01980290BE
:100630000099704601910090059B049A07990698CD
:1006400000F090FAD0E700000DFCFFFFF0B50C467B
:100650005C4085B0E40FE40703944C000026640876
:1006600059009446490802460296224321D0624628
:100670000A431ED06200570D4A000E032303550D96
:10068000012402462C492405781B1B0B360B40180D
:1006900023432643614600901C46501AB44103D3BD
:1006A0000098401C009002E0921800985B410028DE
:1006B00003DA0020014605B0F0BD00200121090544
:1006C0000746864611E064461D46141BB54106D315
:1006D0006546521BB341744607430C43A646CD07FB
:1006E00040084908284392185B4105460D43EAD16A
:1006F0001046184313D060461946504071400843D5
:1007000006D06046101AB34106D20122002306E04B
:1007100000220123DB0702E00122D243531000989C
:1007200074460105381C6141029C039D0019694112
:1007300000F00BFABFE70000FD030000C217C10F75
:10074000504010B54018CA079623002100F0C4F9A4
:1007500010BD00000EB5C217C10F5040CA074018A7
:100760000021054B0293019200910A460B4600F0CE
:10077000F9F903B000BD0000330400000EB50549CF
:100780000291002100910A460B46019100F0EAF91E
:1007900003B000BD33040000C20F4100400201233A
:1007A000400ADB05D207090EC0187F2901DA0020B4
:1007B0007047962903DC9623591AC84001E0963900
:1007C0008840002AF4D040427047000070B5CD0F39
:1007D0004A0009030123090B1B0519430B4BED07C5
:1007E0000024520D9A4201DA002070BD074B3433C9
:1007F0009A4203DC9A1A00F0B9F802E00449511851
:1008000088402C43F1D0404270BD0000FF0300003F
:10081000CDFBFFFFC20FD207400040080BD0C10D37
:100820000723DB01C91840020905400A1143C20829
:1008300040071143704700200146704710B500295A
:1008400004DB0124E40740428C412146002B04DBF9
:100850001C460123DB075242A3418B4200D1824256
:1008600010BD000010B5002904DB0124E40740425C
:100870008C412146002B04DB1C460123DB0752423E
:10088000A341994200D1904210BD0000CB0FDB077D
:10089000490010B5490802460A4307D00A0D07244B
:1008A0000903E401090B121B002A01DC002010BD22
:1008B000C900440F0C43C100E018D205801800F0B5
:1008C00003F910BD0122D207002800DB101A00290D
:1008D00000DB511A814270470122D207002800DB59
:1008E000101A002900DB511A88427047F0B51FB476
:1008F0000646002082B005464024019100901BE08E
:10090000019922460F46304600F030F8049A059BC4
:10091000801A994110D310461946224600F016F865
:10092000361A8F410197224601200021009F00F0D6
:100930000DF838184D4100902046641E0028DFDC79
:10094000019B00982946324607B0F0BD10B5202A19
:1009500004DB0146203A9140002010BD9140202345
:100960009C1A0346E3401943904010BD10B5202A5D
:1009700004DB0846203AD040002110BD0B46D3408E
:10098000D0402024A21A91400843194610BD10B54A
:10099000202A06DBCB170846203A1041C1170B432B
:1009A00006E00B461341D0402024A21A9140084390
:1009B000194610BD0FB400B589B00CA900910B9970
:1009C0000023CB60204B214A069307920422019218
:1009D0001F4A02921F4A089202466B46002000F00E
:1009E00036FA09B008BC04B0184770B586B00646A0
:1009F0000020C0430190002015460C460091029152
:100A000004903246694604A8FFF7D4FF03460498D1
:100A10002118002D05D0002801D00A4600E022460A
:100A20002A6000280DD0002B02DD0098884208D0F3
:100A3000081B0190009432466946029404A8FFF70F
:100A4000B9FF06B070BD0000A5100000C510000081
:100A5000FFFFFF7F450D0000F7B5009C0F46002605
:100A60002578641C002D05D000F068F90068405D11
:100A7000C007F5D12B2D02D02D2D18D0641E39467C
:100A80002046029A00F030FB002F04D03968A142C2
:100A900001D1009939607105022400290BDA404226
:100AA000002803DD01F0AEFB0460A007FEBD0120BD
:100AB00080020643E3E70028F8DA01F0A3FB0460B4
:100AC0000048FEBDFFFFFF7F002904DA401C4900FB
:100AD00001D140084000704770B40024050C05D1D6
:100AE0001024000402D1002921D01124050E01D1C7
:100AF00000020834050F01D10001241D850F01D12A
:100B00008000A41C002801DB4000641C002908D0E0
:100B100020252E1B0D46F540A14000D00121294380
:100B2000084301061B1B000ADB1D02D5002070BC18
:100B30007047DB05181880180029F8DA401C4900B6
:100B4000F5D170BC40084000704710B5002B08DAA2
:100B50000024401C614192185B411A4301D14008B6
:100B6000400010BDF0B51FB482B005460C0003D0A4
:100B7000084601F021FB02E001F01EFB2030024696
:100B8000009021462846FFF7E1FE049B059A0446A3
:100B90000F4618431143084314D0184610431BD086
:100BA000009840210A1A18460599FFF7DFFE05460E
:100BB0000E46009A05990498FFF7C8FE084305D031
:100BC000012004E02046394607B0F0BD0020C117DF
:100BD00005430E432C43374300990E986305401A92
:100BE0007905E40A00220C43FD0A0A3002D50020F0
:100BF0000146E9E70105101969410C9C0D9D00199A
:100C00006941FFF7A2FFDFE770B54B005B080343C4
:100C10000BD04B005C0D002633466542B341D41720
:100C2000AD1AA34102DB0020014670BD1205301849
:100C3000514170BDFEB500231A461B1A8A4103DBE1
:100C40000020014603B0F0BD4A000D0301212D0B29
:100C50000905520D0D43D10702D100186D41521EF6
:100C60005110FF31FF310131002704463E4638461E
:100C7000009701910246012100200905FFF776FE49
:100C8000C3197141F818324684468E464A4161467E
:100C90002846611A904104D36046241A954176464D
:100CA0001F46241900986D41401C00903428E1DD56
:100CB000F91930467041091BA84103D20022D243E2
:100CC000134601E00022134601980105381C7141CA
:100CD000FFF73BFFB6E700004A0009030123090BB9
:100CE0001B0519430A4B10B5520D9A4202DA002037
:100CF000014610BD064B34339A4203DC9A1AFFF7C3
:100D000035FE10BD034BD218FFF720FE10BD0000CA
:100D1000FF030000CDFBFFFF064C0125064E05E05A
:100D2000E36807CC2B430C3C98471034B442F7D30C
:100D3000FFF7CAF9707A0000907A00000048704707
:100D40006C7A000010B50446FFF7F8FF0068005DFC
:100D5000C007C00F10BD0000FFB5087885B015466C
:100D6000FF2805D0491C2D2804D00022002407E0CC
:100D700000240BE00122F9E70A235C430419491C13
:100D80000878FF28F8D1002A00D0644200200190A2
:100D90002A7801462D2A01D02B2A04D16D1C2D2A38
:100DA0000DD00022019200262F78FF2F09D00A22B1
:100DB00000236D1C00F0EBF938187141F4E70122B3
:100DC000F0E7089AA218039202460A430DD00024C5
:100DD000B24AB14D2646009200F026FA04900398DC
:100DE0000291002807DA47421AE0002105980A46D6
:100DF00006C009B0F0BD074612E0F80707D022464A
:100E00002B4630460099FFF7B9FB06460091224673
:100E10002B4610461946FFF7B1FB04460D467F10DE
:100E2000002FEAD10398009B0028029904983246CB
:100E300002DAFFF70BFC01E0FFF7A0FB019A002AA2
:100E400002D00122D2075140059A03C2D1E7FFB573
:100E500091B0002009900025ED432E209E685C682B
:100E60001F460190B9696D1C129888470090396A35
:100E700088470028F6D10098401C0AD00D20C001F8
:100E80008443002E12DD00982B2809D02D280DD187
:100E900003E00020C04315B0F0BD012080020443F0
:100EA000B9696D1C12988847761E009003A96005E9
:100EB00001D52D2000E02B206A461073491C0CA898
:100EC0000F9102900AE0B9696D1C12988847009052
:100ED0000120400204431398761E0560002E02DDB7
:100EE00000983028EFD001990098884246D18020A0
:100EF000044308E00998401E099001204002044381
:100F00001399681C0860B9696D1C761E1298884791
:100F100000903028EED031E00199884205D12006BA
:100F200003D480200443761E1EE0009801F0A4FA4A
:100F3000002826D001204002044307A90F9803315E
:100F4000761E88420BD200980F99303808700F989F
:100F5000401C0F90200607D50998401E03E020068C
:100F600002D40998401C0990A00502D51399681C69
:100F70000860B9696D1C129888470090002ECBDC80
:100F800059E0002E57DD0098652801D0452852D140
:100F9000A00550D5032000028443B9696D1C761E5C
:100FA000129888470090002E0CDD2B2804D02D28A5
:100FB00008D1FF2001300443B9696D1C129888479D
:100FC000761E0090E00501D52D2100E02B2102982E
:100FD00001700298401C0290019025E0012040021F
:100FE00004430EA902980131761E88420ED2009861
:100FF000029930380006000E087003D1029901985A
:1010000081420AD90298401C029006E0E00501D511
:10101000234801E0224840420990B9696D1C1298AA
:101020008847009013980560002E04DD009801F0B9
:1010300023FA0028D2D1F969129888470F99FF2026
:101040000870029903AA087000200A900B900CA95E
:101050000AA8099BFFF780FEA00502D40120C04327
:1010600019E72420044209D0E00713D138680B9A0D
:101070000A99031D3B60006806C00BE00B990A98B3
:10108000FFF704FC0146E00704D13868021D3A600E
:10109000006801602846FEE6000024400000F03FA2
:1010A000F1D8FFFF4268002A08D001680B78491C7C
:1010B000002B03D0521E06C0184670470121C160A4
:1010C000881E70474268002A0BD0C3680168002B55
:1010D00007D183688B4204D0491E521C06C00020F1
:1010E00070470020C0437047F7B582B0029C0027CC
:1010F0002078641C15460197302802D0002D15D0A9
:1011000015E020780127641C782804D0582802D0E4
:10111000002D09D00BE0002D01D0102D07D10027A4
:1011200010252078641C02E0082500E00A2500262E
:10113000009610E00099012769430818020C29461F
:1011400080B2714300908E183804864201D301208A
:1011500001902078641C294600F056F80028E9DA4E
:101160000398002805D0002F01D0641E00E0029CE7
:1011700004600198002806D001F044F802210160C3
:10118000C81E05B0F0BD009930040843F9E7F0B57A
:101190001FB486B000200090019002900698069936
:1011A00080B204900798090C0204001411430790C0
:1011B0000027089D099806913E463C4603900398F7
:1011C000A9B20204000C039004982D0C1543484367
:1011D00000212246FFF7BAFBC719714110340E46B1
:1011E000402CECDB3846029AFFF7B0FB009A019BDB
:1011F00080180090594102980191103002904028C7
:10120000CCDB00980BB0F0BD3A2800D23038202358
:1012100002469A43412A01D310463738884201D307
:101220000020C043704700000EB5054A029200221C
:10123000009213460192FFF795FC03B000BD000039
:101240003304000070B58C180578401C6B075B0FE9
:1012500001D10378401C2A1106D10278401C03E01A
:1012600006780E70401C491C5B1EF9D12B0705D473
:101270000023521E0DD40B70491CFAE70378401C62
:10128000CB1A921C03E01D780D70491C5B1C521E8A
:10129000F9D5A142D8D3002070BD0000C10F89004C
:1012A000064A89188968C306DB0E01229A40114359
:1012B000C20F9200014BD21891607047000200509B
:1012C000F3B583B00C460398002809D13D48006A65
:1012D0000121C90488433B4908623B48029008E069
:1012E0003848006A0121C904084336490862374872
:1012F00002903748844204D84010844201D9002724
:1013000022E03448844205D84010844202D90127A3
:10131000640019E03048844205D84010844202D36A
:101320000327A40010E00398002803D12B48254987
:10133000086202E02A4823490862042000F0D6F936
:1013400000F0E2F805B0F0BD26492046FEF7F0FEB9
:10135000064624490298FEF7EBFE05460EE0E80734
:10136000C00F002807D1F007C00F002803D1022DBD
:1013700001D0022E00D102E06D087608EFE700BF31
:10138000B803A91E49020843B11E084301900D4845
:10139000006A010C0904019801430A480162006ACD
:1013A00005210904884307490862042000F09EF9DA
:1013B0007A1C6A431146029A72431046FEF7B8FE41
:1013C000C0E7000000020050001BB7000080510180
:1013D00000C2EB0B00E1F50580F0FA022EC200001E
:1013E0006FD6000040420F00024909680143014ADC
:1013F000116070470002005010B500F067FC014812
:10140000006810BD00000020FEB5002002901AA068
:10141000006800901948046A00132040002801D099
:101420000020FEBD0120C0042040002801D0144D42
:1014300000E0144D012040042040002801D028463F
:10144000EFE7032080032040800B69460A5C01928D
:10145000E005C00D861C1F2040022040400A871C6A
:10146000019A7A431146AA0872431046FEF760FEBD
:10147000800002900298D4E70102020400020050AA
:1014800000805101001BB700FEB5002002901AA099
:10149000006800901948046A00132040002801D019
:1014A0000020FEBD0120C0042040002801D0144DC2
:1014B00000E0144D012040042040002801D02846BF
:1014C000EFE7032080032040800B69460A5C01920D
:1014D000E005C00D861C1F2040022040400A871CEA
:1014E000019A7A431146AA0872431046FEF720FE7D
:1014F000800002900298D4E701020204000200502A
:1015000000805101001BB700FEB5002002901AA018
:10151000006800901948046A00132040002801D098
:101520000020FEBD0120C0042040002801D0144D41
:1015300000E0144D012040042040002801D028463E
:10154000EFE7032080032040800B69460A5C01928C
:10155000E005C00D861C1F2040022040400A871C69
:10156000019A7A431146AA0872431046FEF7E0FD3D
:10157000800002900298D4E70102020400020050A9
:1015800000805101001BB700FEB5002002901AA098
:10159000006800901948046A00132040002801D018
:1015A0000020FEBD0120C0042040002801D0144DC1
:1015B00000E0144D012040042040002801D02846BE
:1015C000EFE7032080032040800B69460A5C01920C
:1015D000E005C00D861C1F2040022040400A871CE9
:1015E000019A7A431146AA0872431046FEF7A0FDFD
:1015F000800002900298D4E7010202040002005029
:1016000000805101001BB70010B504461048844209
:1016100001D9044603E00F48844200D204460E4834
:101620000068C007C00F002805D021460020FFF742
:1016300047FE044605E021460120C004FFF740FEB6
:1016400004460021022000F009F8204610BD0000E9
:1016500080F0FA0240787D010002005070B5044627
:101660000D4608480069C008C000204305490861CC
:1016700008468069000900012843886100F026FBC4
:1016800070BD000000020050F0B50B4600210024A0
:101690000025C600360F002E0FD04600B60FB6004C
:1016A000114FF4192168C600370FC601F60EB74076
:1016B0000E46BE431E43314621608603360E002E81
:1016C00010D00603B60FB600074F0837F519296882
:1016D0008603360EF6438705FF0EBE400E401643C6
:1016E00031462960F0BD0000100200500146074A53
:1016F00005E01046521E002801DC00207047044817
:10170000C06808408842F4D10120F7E790D0030078
:10171000000200500348006840084000014908608A
:101720007047000000C000500348006810210843C3
:10173000014908607047000000C0005001462220A7
:101740000D4AD0601046416001201061BFF36F8FD9
:1017500000BF094800690028FBD107480068402203
:101760001040002805D04020034A10600020C043EC
:1017700070470020FCE7000000C0005003480068EC
:1017800001210843014908607047000000C0005073
:1017900001460020074AD0601046416001201061D8
:1017A000BFF36F8F00BF034800690028FBD10148D9
:1017B0008068704700C0005070B505460E46002492
:1017C00008E0A100032212058818FFF7E1FFA1003D
:1017D0006850641CB442F4D3002070BD70B5054657
:1017E0000E460020044625E0A20003231B05D01866
:1017F000A200A9582122114BDA601A46506091606C
:1018000001221A61BFF36F8F00BF00BF0B4A12693C
:10181000002AFBD100BFA100032212058818FFF7A0
:10182000B7FFA1006958884202D00020C04370BDB4
:10183000601C0446B442D7D30020F8E700C0005033
:101840000D48006A08210840002803D008200A49F2
:1018500008620FE00848006A0749086206484030FD
:10186000006A05494031086203488030006A024935
:1018700080310862704700008040005070B5034618
:1018800000200FE0012484400C40002C09D01C688B
:1018900046000325B540AC4346001546B5402C43F1
:1018A0001C60401C0828EDD370BD41690122114322
:1018B000416170470146C8687047000010B50D4887
:1018C000FFF7F8FF04460B484069C007C00F01212D
:1018D00048404840002803D00648FFF7E6FF07E0ED
:1018E00005480068002803D0204603490968884756
:1018F00010BD000000000240CC000020C206D20E45
:1019000001219140014A11607047000000E100E0B0
:1019100030B50146F0240C4022110B071B0F540177
:10192000024D64199D00601930BD00000042005056
:1019300030B583680D24A3430C46144308252C437B
:101940002343836030BD0000FFB581B004460A9F89
:1019500000260498202801D1002004900498C0009B
:101960000299084303990843206005200007006896
:10197000000F0007002808D0052000070068000FAE
:10198000000701210907884249D1FFF735FD0646C6
:10199000029800283FD1A060B7420FD10520000770
:1019A0000068000F000701210907884206D1E06B9B
:1019B00001210843E063304605B0F0BDB74205D3CE
:1019C0006068000C000460607008F5E7002F07D124
:1019D0006068000C0004564940186060700CEBE72A
:1019E00079000A2272431046FEF7A2FB401D0A212D
:1019F0000090FEF79DFB451E4D48854200D90546E7
:101A00006068000C000428436060681C4100304698
:101A1000FEF78EFBD0E71020A0603046CCE7E06BED
:101A20000121C9070843E0630298002867D1A0603C
:101A3000404884420DD14048406910210840102898
:101A400003D1FFF7D9FC064610E0FFF79DFD0646DF
:101A50000CE03948406920210840202803D1FFF7D5
:101A6000CBFC064602E0FFF78FFD0646B74203D3E4
:101A70000020606030469FE7002F0AD1E06B4000F5
:101A80004008E0636068000C0004FF306060700A8A
:101A900092E70A21714308463946FEF749FB401D8B
:101AA0000A210090FEF744FB451EFF2D1DD9E06B77
:101AB00040004008E06379000A2272431046FEF7B6
:101AC00037FB401D0A210090FEF732FB451EFF2D1B
:101AD00000D9FF256068000C000428436060681C82
:101AE00041003046FEF724FB66E76068000C000406
:101AF00028436060691C3046FEF71AFB5CE7102043
:101B0000A0600C48844207D10B48406910218843EB
:101B100010300949486106E00748406920218843A0
:101B200020300549486100206060304644E70000ED
:101B3000FFFF0000000003400002005010B5042029
:101B4000FFF752FC1020FFF7D1FD0120FFF74CFCFE
:101B50000120FFF7CBFD00210846FFF77FFD274856
:101B6000FFF752FD2648FFF799FB2548401CFFF779
:101B700095FB2448FFF792FB002211462048FFF70F
:101B800083FD002211461E48401CFFF77DFD002208
:101B900020211D48FFF778FD002211461948FFF764
:101BA00073FD1948FFF77AFB00F090F80520000755
:101BB000C06B1649084005210907C8630846C06B79
:101BC0000321084305210907C8630846006B104933
:101BD00008400521090708630846006B0B49C94303
:101BE00008430521090708630846006B0F21090314
:101BF000084305210907086310BD000080F0FA02C0
:101C0000103D80270200802E0D005022FCFCFFFFBB
:101C1000FCFCFFFC010E05221207891889680122CD
:101C200082401143020E05231B07D2189160010E5A
:101C30001A4689188A68012181408A43010EC91811
:101C40008A60704706E05920054908601620086040
:101C500088200860024800680128F4D1704700001D
:101C60000001005070B5044612480078012807D1E1
:101C7000234660221048017810A005F088FC18E087
:101C8000F02005F013FD0C48007805F00FFD15203D
:101C900005F00CFD204605F009FD074800781530D9
:101CA000001945066D0E284605F000FDF72005F0E9
:101CB000FDFC70BD5F0000205C0000204725642013
:101CC000542564204525640D0A00000070B51248B3
:101CD000006945076D0FFFF797FB10490860022D5B
:101CE00003D0A8000E490C5801E00C4804680A48CB
:101CF00080690007000F461C31462046FEF718FA9F
:101D0000084908600849074800684A108018FEF72B
:101D10000FFA0649086070BD00020050080000205C
:101D2000D07700000000002040420F000400002097
:101D30007047000030B589B005462022194901A836
:101D4000FEF720FA1848854206D118484069072155
:101D500009020840040A1AE013482030854206D1DF
:101D600012484069072109030840040B0FE010489E
:101D7000854206D10D484069072109040840040C3A
:101D800005E00A484069072109050840040D022CB6
:101D900003D10848006809B030BDA00001A9085867
:101DA000F9E70000887900000000014000020050BF
:101DB0000000114000000020FEB505460F46164603
:101DC0002846FFF7B7FF0446002001900090600806
:101DD000B04202D2022001901BE001208006844222
:101DE00003D307200090E4080EE00120400684425F
:101DF00003D303200090A40806E0012000068442DB
:101E000002D301200090640831462046FEF790F985
:101E1000019000983843286001986860009A521C2D
:101E20000198504301462046FEF782F9FEBD0000AE
:101E300000BF08488068C007C00F002809D000BF55
:101E400001200449886000BF03480068401C024923
:101E500008607047000001401800002010B50446DB
:101E600022460121C9060C48FFF7A6FF00BF0A4819
:101E700000680121490708430749086000BF00BF07
:101E800008460068890308430349086000BF08202A
:101E9000FFF734FD10BD00000000014010B500F058
:101EA000F1F810BD10B504460348FFF7B3FE214614
:101EB000024800F02FF810BD10000004000005409B
:101EC00010B500F023F910BD10B504460348FFF724
:101ED000A1FE2146024800F01DF810BD11000004CB
:101EE0000000154010B50948406801210843074922
:101EF00048600C20FFF702FD0548406801210843B7
:101F0000034948600D20FFF7F9FC10BD00000540B3
:101F100000001540F0B587B004460D46274801463D
:101F20000EC9C06803AE0EC6069000200290244879
:101F30004069032109060840060E214880690F21E7
:101F400009020840070A002020630320E060A0681F
:101F50001C490840A060012E04D1FFF795FAB1009A
:101F600003AA5050002D26D0B10003AA5058791C66
:101F7000FEF7DEF86908401829460190FEF7D8F808
:101F8000801E02901049029888420FD9B10003AA1E
:101F90005058791CFEF7CCF8E9004018294601900A
:101FA000FEF7C6F80009801E606204E003210907FD
:101FB00002980843606207B0F0BD00005879000045
:101FC000000200500FFFF0FFFFFF0000FFB587B0D9
:101FD00004460D461746284801460EC9C06802AEA1
:101FE0000EC605900020019024484069032109068F
:101FF0000840060E214880690F2109020840000AA6
:102000000690012E04D1FFF73FFAB10002AA50500A
:10201000002D28D0B10002AA50580699491CFEF79D
:1020200087F86908401829460090FEF781F8801E5D
:10203000019013490198884210D9B10002AA505862
:102040000699491CFEF774F8E900401829460090EB
:10205000FEF76EF80009801E606204E003210907A4
:1020600001980843606238460A990843109908436A
:10207000E0600BB0F0BD0000687900000002005085
:10208000FFFF000008B5FF2100911B49C8698915B1
:10209000014000292ED027E017490968C9B20091F4
:1020A000164900228A5E802A17DA69460978144A9E
:1020B000144B1B88D154134909887F2901D1002171
:1020C00002E010490988491C0E4A11800B49098811
:1020D000491C09B2094A118006E00021074A118013
:1020E000084A1180084A11800349C969C907C90F04
:1020F0000029D1D108BD0000000005405600002095
:10210000D00100205A0000205800002008B5FF210F
:1021100000911B49C8698915014000292ED027E08C
:1021200017490968C9B20091164900228A5E802ABF
:1021300017DA69460978144A144B1B88D15413499D
:1021400009887F2901D1002102E010490988491C32
:102150000E4A11800B490988491C09B2094A1180AD
:1021600006E00021074A1180084A1180084A1180C0
:102170000349C969C907C90F0029D1D108BD0000A9
:10218000000015404A0000205002002050000020AE
:102190004E00002037B514460846064B6A462146D5
:1021A00000F072F904466946002000F009FD20465F
:1021B0003EBD0000C12B00002021020C01D01021E7
:1021C0001046020A01D010460839020901D0104613
:1021D000091F820801D01046891E420801D0881EBE
:1021E0007047081A704730B47446641E2578641C22
:1021F000AB4204D3635D5B00E31830BC18471D4657
:10220000F8E70000004870472C010020F8B50446AC
:102210004F1EC8000838211815461E460868496830
:102220003A4606239A4310D02A463346FEF7A6F9CB
:102230003A46D200083AA3181A687F1E5B68FEF778
:10224000EBF806223B469343EED1022F23D0042F16
:1022500011D0062F2FD12A463346FEF78FF9E36AB5
:10226000A26AFEF7D9F82A463346FEF787F9636A71
:10227000226AFEF7D1F82A463346FEF77FF9E36972
:10228000A269FEF7C9F82A463346FEF777F9636973
:102290002269FEF7C1F82A463346FEF76FF9E36874
:1022A000A268FEF7B9F82A463346FEF767F9636875
:1022B0002268FEF7B1F8F8BD002210B513461046AB
:1022C0000149FEF7C3F910BD0000F03F10B501222F
:1022D000FEF79AFC10BD002210B5134610461146B9
:1022E000FEF7B4F910BD0000014800687047000017
:1022F0002C01002002E008C8121F08C1002AFAD1F0
:1023000070477047002001E001C1121F002AFBD175
:102310007047000001490860704700002C01002050
:10232000F0B51FB484B007980699020D014314D08C
:102330004A484B491018484305140F9801280E9835
:102340001CD0281A401C0024464E47490094019195
:102350000290002814DA474227E00F98012443A393
:10236000012808D0002104980F9A84600360C2609D
:10237000416009B0F0BD0E98C143F4E74042E2E786
:10238000074612E0F80707D0224633460199009825
:10239000FEF7F4F8019100902246334610461946A4
:1023A000FEF7ECF804460E467F10002FEAD10298A3
:1023B000019B0028009A0799069802DAFEF7DEF8DA
:1023C00001E0FEF743F904460E460022284BFEF7D3
:1023D00049FA03D80020C043014607E00022254BFC
:1023E00020463146FEF718F8FEF776FC102409E087
:1023F000002C0ADB0A220023FEF778FA059B303214
:102400001A55641E02460A43F2D11122641C059B30
:10241000121B1C190F9B012B03D0012308430ED163
:102420000AE0084304D011200E9000200F9084E7AA
:102430000E98151A6D1E0BE00E98824202DD0023E5
:102440006D1C03E0824201DA00236D1E002BEED0EA
:1024500004980F998260C16030C08AE701FCFFFFD9
:10246000104D0000000024400000F03F300000004C
:102470000000F0430000E03F30380A2801D201207C
:102480007047002070470000FFB597B00646002552
:1024900018E2252877D100242746FD49049400E05E
:1024A0000443761C32780120203A90400842F7D14C
:1024B00030782A280ED00222307801463039092996
:1024C00016D804990A235943303940181443761C0E
:1024D0000490F1E7189802C804911890002904DAD2
:1024E0000120400304434842049002200443761C28
:1024F00030782E2814D1042004437078761C2A28C2
:1025000009D11898761C80C8189009E00A214F4319
:10251000303FC719761C3078014630390929F5D982
:1025200030786C2810D006DC4C281AD068280ED0E1
:102530006A2817D104E0742813D07A2812D110E049
:102540000120400504430CE00121090501E00321BD
:1025500009050C437178814203D10120000524183C
:10256000761C761C3078119066280BD013DC582826
:102570007DD009DC00287BD04528F6D04628F4D051
:1025800047281AD1A5E118E0632835D0642870D017
:10259000652812D19DE170286CD008DC6728F1D045
:1025A00069287BD06E280DD06F2806D1BAE0732839
:1025B0002ED0752871D0782859D01A9A1999904739
:1025C0006D1C7EE16002400F022809D003280DD067
:1025D0000428189801680DD00D60001D189070E156
:1025E0001898EA1701680D604A60F6E718980168C4
:1025F0000D80F2E70D70F0E718986A4601781172C5
:10260000001D18900020507202A80090012005E0E3
:10261000189802C8189000200091C04361070DD59A
:10262000002101E00199491C0191B94212DA81426D
:10263000F8DB009A515C0029F4D10BE0002101E0A5
:102640000199491C01918142FADB019A0099895C48
:102650000029F5D1019904981A9B471A214638465A
:10266000199A00F097FA0199401945180BE04FE0CC
:102670002CE113E04EE0009800990078491C00918D
:102680001A9A199990470198401E0190401CF2D166
:10269000214638461A9B199A10E137E00A2000219A
:1026A000009001916002410F022907D0189A01CAD7
:1026B0001892C2179446032908D00AE01898C01D42
:1026C000C108C90005C91891944607E000B2C217B5
:1026D0009446042902D140B2C1178C4600226146BB
:1026E000944506DA0A460021404291418C462D214C
:1026F00002E0210504D52B216A461173012103E074
:10270000E10701D02021F7E7029155E00A200AE015
:10271000102008E0102000900021042004430191C3
:10272000082703E008200021019100906002410F7A
:10273000022907D0189A01CA189200229446032948
:1027400008D008E01898C01DC108C90005C9189133
:10275000944603E080B2042900D1C0B20021029166
:10276000210729D51199702906D0009A1021019BC3
:102770004A401A4305D00EE040216A4611730121F8
:1027800008E06146014306D030216A461173119971
:10279000517302210291009A0821019B4A401A4379
:1027A0000AD16146014301D1610705D530216A464E
:1027B000117301217F1E02911199582904D035A16E
:1027C0000E910DA90D910DE037A1F9E76146019B2E
:1027D000009AFEF78BF80E9B8C469B5C0D9A521E5E
:1027E0000D92137061460143F0D10D9805A9081AA6
:1027F00020300190600703D501200004844300E0ED
:1028000001270198874201DD381A00E00020019974
:1028100000904118029809180498401A0490E003A7
:1028200006D421461A9B199A049800F0B3F9451969
:10283000002706E003A81A9AC05D199990476D1CFD
:102840007F1C02988742F5DBE0030CD521461A9BDA
:10285000199A049800F09EF9451904E01A9A30205C
:10286000199990476D1C0099481E00900029F5DCCD
:1028700008E00D980D990078491C0D911A9A199944
:1028800090476D1C0199481E01900029F1DC63E11D
:102890000928010030313233343536373839616236
:1028A00063646566000000003031323334353637FA
:1028B00038394142434445460000000000F05AF9CF
:1028C0004519761C3078002800D0E2E528461BB078
:1028D000F0BD600700D406271898C01DC108C900C4
:1028E00048680A680831C30FDB071891190001D046
:1028F0009CA108E0210501D59BA104E0E10701D0DE
:102900009AA100E09AA1430011985B0810916528F4
:102910000CD006DC452809D046281DD0472841D1D7
:1029200041E0662818D067283CD13CE00021112FF7
:1029300001DB112000E0781C0191009008A911A88A
:10294000FFF7EEFC139905910021119A15927F1C57
:1029500012980197009150E00120C00703900120D8
:10296000019008A9009711A8FFF7DAFC139A1499AF
:1029700005920022119B009212981593059A0192DC
:10298000002901D0104602E0791C40180190381A45
:1029900001D5019804E04042401E0090781C01904F
:1029A000C01B029043E0012F00DA01270021112F04
:1029B00001DD112000E038460191009008A911A81E
:1029C000FFF7AEFC13990591119A00211298159208
:1029D0000091019721070CD40599B94201DB0199B7
:1029E00000E00191012904DD159A491E515C30294E
:1029F00006D0B84201DA011D05DA0121029115E085
:102A00000199491EEDE7002805DC00994118009165
:102A10000199091A03E0019A411C914200DD0191DC
:102A20000099401A401C02900120C0070390200723
:102A300006D402990198814202DB0020C043029033
:102A400000206946C87707AF012103980337C907FB
:102A5000884224D0022011902B2012900398002845
:102A60000CDA404203902D20129007E00A210398CF
:102A7000FDF75EFB30317F1E039039701199481EBF
:102A800011900029F2DC03980028EFD1791E1298EA
:102A900008703078202108404530BF1E387006A8E5
:102AA000C01BC01D039010980078002800D00120A2
:102AB000019941180298C017091803980918049839
:102AC000401A401E0490E00306D421461A9B199A2E
:102AD000049800F05FF8451910980078002803D09A
:102AE0001A9A199990476D1CE00324D521461A9B28
:102AF000199A049800F04EF845191CE00098002837
:102B000007DB00990598884203DD1598405C199908
:102B100001E0199930201A9A904700986D1C401CCA
:102B200000900298401E0290002804D11A9A2E208C
:102B3000199990476D1C0199481E01900029DDDC10
:102B400005E038781A9A7F1C199990476D1C0399F3
:102B5000481E03900029F4DC21461A9B199A049818
:102B6000ACE600002D0000002B000000200000005B
:102B700000000000F8B5044600251E4617468804EC
:102B800004D405E039462020B0476D1C641EF9D5F9
:102B90002846F8BDFFB50446002581B01E46C8038F
:102BA00001D5302700E02027880404D505E0384609
:102BB0000399B0476D1C641EF9D5284605B0F0BDD9
:102BC0000A68531C0B601070704710B50024E44372
:102BD000142000F029F8044620B210BD10B50024DE
:102BE000E44301F09FFF210D0C1A05480021415ECE
:102BF000641A002C02DA01200003241820B210BD50
:102C0000F800002010B50024E443132000F00CF875
:102C1000044620B210BD10B50024E443152000F096
:102C200003F8044620B210BD00B50246104601F07C
:102C3000E0FB002801D1401E00BD474840690C213F
:102C4000884345494861084680698861084680682C
:102C5000C904084340498860012040490862104681
:102C600010380300FFF7BFFA060454142434445408
:102C700005200007406B012108430521090748632F
:102C80003648406A000A0002401C3449486240E06D
:102C900005200007406B042108430521090748630C
:102CA0002E48406A000A0002001D2C49486230E0AC
:102CB00005200007406B08210843052109074863E8
:102CC0002648406A000A000208302449486220E091
:102CD00005200007406B10210843052109074863C0
:102CE0001E48406A000A000210301C49486210E089
:102CF00005200007406B2021084305210907486390
:102D00001648406A000A000220301449486200E078
:102D100000BF00BF0120114908630846006A012175
:102D2000C90208430D49086200BF0C48006BC00788
:102D3000C00F0028F9D00948006A0121C902884360
:102D400006490862012008631046103880004018C8
:102D500000680005000D6FE70002005000000E4003
:102D60003EB50446284881780291C17801916846B1
:102D7000007A15304106490E68460079814203D039
:102D80001320FEF76FFF3EBD6846007A401C1F49C6
:102D90000870F02004F08AFC1C48007804F086FCDF
:102DA000162004F083FC1A48007804F07FFC1748D2
:102DB000007816301649097840184106490E0091EE
:102DC0006846007804F072FCF72004F06FFCF020F5
:102DD00004F098FCFF2004F095FC162004F092FC0F
:102DE0000A48007804F08EFC084800781530410647
:102DF000490E00916846007804F084FCF72004F046
:102E000081FC00BFBFE70000D00200205D00002071
:102E10005E0000203EB50446284881780291C178C2
:102E200001916846007A0F304106490E68460079E4
:102E3000814203D01320FEF715FF3EBD6846007A9D
:102E4000401C1F490870F02004F030FC1C4800783A
:102E500004F02CFC102004F029FC1A48007804F03F
:102E600025FC1748007810301649097840184106AB
:102E7000490E00916846007804F018FCF72004F031
:102E800015FCF02004F03EFCFF2004F03BFC102079
:102E900004F038FC0A48007804F034FC0848007854
:102EA0000F304106490E00916846007804F02AFC74
:102EB000F72004F027FC00BFBFE70000D00200208D
:102EC0005C0000205E00002030B583B00446FFF7B0
:102ED0000BFA054600200090024601902146684604
:102EE000FDF783FD2846FFF715FA0199009803B016
:102EF00030BD0000F1B584B00498FDF72BFC04460A
:102F00000022084BFDF73AFB0022074B019100908D
:102F1000FDF79CFB0646FDF7B9FC0290029805B050
:102F2000F0BD000000C8A9400000B040F0B589B075
:102F300007463846FDF702FC04462046FDF76AFCCA
:102F400002460B460591049000203C49FDF77EFBAC
:102F5000054600223A4BFDF703FB07910690FDF76B
:102F600095FC044637490020085EFDF7E7FB05465F
:102F70002146FDF712FA044633490020085EFDF7AA
:102F8000DDFB054629462046FDF707FA089008981C
:102F9000FDF740FC0791069001F03CFA0546FDF76D
:102FA00075FC089029490020085EFDF7C7FB05461F
:102FB00029460898FDF7F1F9089025490020085E98
:102FC000FDF7C8FB0546234A234BFDF725FA0246C9
:102FD0000B460191009000201949FDF737FB059140
:102FE00004900898FDF716FC03910290059B049A43
:102FF000FDF712FA07910690FDF748FC0890089833
:10300000FDF708FC02460B460791069000200C498C
:10301000FDF71CFB0546FDF739FC08900898FDF705
:10302000F9FB0C4A0C4B07910690FDF799FA0546FF
:10303000FDF72CFC0890089809B0F0BD00FEAF40E9
:103040000000F03F1E01002022010020200100208E
:103050001C0100206666666666127140F1B582B09A
:103060000298FDF777FB0446044A054BFDF786FA04
:103070000646FDF70BFC01900198FEBDFCA9F1D2BC
:103080004D62803FF1B58AB03F48006807B23F48C3
:10309000079008AA3EA10A98FDF798F8044618E0A0
:1030A00008AA3BA10020FDF791F8044620784128AA
:1030B00004D1601CFDF7C1F807B20AE0207853285C
:1030C00007D1601CFFF700FF05910490FDF7DEFBC0
:1030D0000790002CE4D13803FDF73CFB00222D4B78
:1030E00003910290FDF7B2FA002213460591049075
:1030F000FDF7B8FB13D83803FDF72CFB0022254B56
:1031000001910090FDF7A2FA0022234B0391029057
:10311000FDF782F905910490FDF758FB12E03803A2
:10312000FDF718FB00221B4B01910090FDF78EFA72
:103130000022194B03910290FDF712FA05910490B9
:10314000FDF744FB0690FDF705FB05460E461349C7
:103150000798FDF7B7FB01D2104807E00B49079825
:10316000FDF7BAFB01D2094800E00798079028460E
:103170003146FDF72BFB0690079903F045FE0F2023
:10318000FEF770FD0BB0F0BDD8000020000020421B
:1031900020000000008076400000E03F000020C2D8
:1031A000F1B58AB03F4807683F48079008AA3FA199
:1031B0000A98FDF70BF8044618E008AA3BA1002086
:1031C000FDF704F804462078412804D1601CFDF77F
:1031D00041F807460AE02078532807D1601CFFF722
:1031E00073FE05910490FDF751FB0790002CE4D18C
:1031F0003803FDF7AFFA00222D4B03910290FDF743
:1032000025FA0022134605910490FDF72BFB13D8F5
:103210003803FDF79FFA0022254B01910090FDF73E
:1032200015FA0022234B03910290FDF7F5F8059162
:103230000490FDF7CBFA12E03803FDF78BFA002279
:103240001B4B01910090FDF701FA0022194B0391ED
:103250000290FDF785F905910490FDF7B7FA069005
:10326000FDF778FA05460E4613490798FDF72AFB45
:1032700001D2114807E00C490798FDF72DFB01D258
:10328000094800E00798079028463146FDF79EFA66
:103290000690079903F0B8FD0F20FEF7E3FC0BB092
:1032A000F0BD0000D80000200000204220000000F7
:1032B000008076400000E03F000020C2FEB50746D7
:1032C0001D4E02AA1DA13846FCF780FF044618E0F7
:1032D00002AA1AA10020FCF779FF044620785028A2
:1032E00004D1601CFCF7A9FF05B20AE0207853283E
:1032F00007D1601CFFF7E8FD01910090FDF7C6FAC9
:103300000646002CE4D10E493046FDF7DBFA01D227
:103310000B4807E008493046FDF7DEFA01D20648BF
:1033200000E0304606463146284603F06DFD0F208A
:10333000FEF798FCFEBD00000000204220000000C7
:10334000000020C2F8B506466A4613A13046FCF7D5
:103350003DFF0446002C05D06A460FA10020FCF773
:1033600035FF04462078442803D1601CFCF765FF34
:1033700045B2681C09490870094802780846017876
:1033800008A004F004F905480378FF2209A10D48BC
:1033900004F010F9F8BD0000200000005C000020DF
:1033A0005E000020472564204D3130205425640DF7
:1033B0000A000000472564204D3130204425640D6B
:1033C0000A00000000001540F0B585B027480068ED
:1033D000FDF7C0F904460022254BFDF7CFF8002287
:1033E000244B03910290FDF731F906460022134663
:1033F000FDF738FA18D81D480068FDF7ABF9064606
:1034000000221B4BFDF7BAF804460022194BFDF7CA
:103410001DF90022184B01910090FCF7FDFF03916C
:103420000290FDF7D3F917E010480068FDF792F914
:10343000044600220E4BFDF7A1F8064600220D4B74
:10344000FDF704F900220C4B01910090FDF788F87C
:1034500003910290FDF7BAF90246049007480178FB
:1034600007A004F094F805B0F0BD0000D8000020DB
:10347000008076400000B0400000E03F5C0000208B
:10348000472564204D33362041256C640D0A000029
:10349000F8B5074608490020085EFFF72BFD0646F1
:1034A000FDF7B8F9044622460B460448017804A00B
:1034B00004F06DF8F8BD0000840000205C000020DE
:1034C000472564204D382049252E32660D0A00001C
:1034D00010B5044604480022825E0448017804A026
:1034E00004F055F810BD0000780000205C000020BA
:1034F000472564204D35205025640D0A000000004A
:1035000070B5064606480068FDF784F90446224671
:103510000B460448017804A004F039F870BD00009F
:10352000880000205C000020472564204D36205391
:10353000252E32660D0A0000F8B50746084900201E
:10354000085EFFF7F3FC0646FDF764F904462246E1
:103550000B460448017804A004F019F8F8BD0000F7
:103560007C0000205C000020472564204D3720545B
:10357000252E32660D0A0000F8B5074608490020DE
:10358000085EFFF76BFD0646FDF744F90446224648
:103590000B460448017804A003F0F9FFF8BD0000D1
:1035A000800000205C000020472564204D39205613
:1035B000252E32660D0A000010B50446034A044861
:1035C000017804A003F0E3FF10BD000060000020BC
:1035D0005C000020472564204D3132205625730DB4
:1035E0000A000000F1B58AB03F48006807B23F48C2
:1035F000079008AA3EA10A98FCF7E8FD044618E0E7
:1036000008AA3BA10020FCF7E1FD044620784128F0
:1036100004D1601CFCF711FE07B20AE020785328A1
:1036200007D1601CFFF750FC05910490FDF72EF9BF
:103630000790002CE4D13803FDF78CF800222D4BC5
:1036400003910290FDF702F80022134605910490C1
:10365000FDF708F913D83803FDF77CF80022254B55
:1036600001910090FCF7F2FF0022234B039102909E
:10367000FCF7D2FE05910490FDF7A8F812E038039C
:10368000FDF768F800221B4B01910090FCF7DEFF6C
:103690000022194B03910290FCF762FF0591049000
:1036A000FDF794F80690FDF755F805460E461349C8
:1036B0000798FDF707F901D2104807E00B49079872
:1036C000FDF70AF901D2094800E00798079028465B
:1036D0003146FDF77BF80690079903F089FB0F2030
:1036E000FEF7C0FA0BB0F0BDD80000200000204269
:1036F00020000000008076400000E03F000020C273
:10370000F1B58AB03F4807683F48079008AA3FA133
:103710000A98FCF75BFD044618E008AA3BA10020CC
:10372000FCF754FD04462078412804D1601CFCF7C6
:1037300091FD06900AE02078532807D1601CFFF71E
:10374000C3FB05910490FDF7A1F80790002CE4D18C
:103750003803FCF7FFFF00222D4B03910290FCF78A
:1037600075FF0022134605910490FDF77BF813D8EE
:103770003803FCF7EFFF0022254B01910090FCF786
:1037800065FF0022234B03910290FCF745FE059153
:103790000490FDF71BF812E03803FCF7DBFF002272
:1037A0001B4B01910090FCF751FF0022194B039134
:1037B0000290FCF7D5FE05910490FDF707F80690FE
:1037C000FCF7C8FF05460E4613490798FDF77AF83F
:1037D00001D2114807E00C490798FDF77DF801D2A6
:1037E000094800E00798079028463146FCF7EEFFAD
:1037F0000690079903F0FCFA0F20FEF733FA0BB09E
:10380000F0BD0000D8000020000020422000000091
:10381000008076400000E03F000020C2FEB5074671
:103820001D4E02AA1DA13846FCF7D0FC044618E044
:1038300002AA1AA10020FCF7C9FC044620785028EF
:1038400004D1601CFCF7F9FC05B20AE0207853288B
:1038500007D1601CFFF738FB01910090FDF716F8C7
:103860000646002CE4D10E493046FDF72BF801D274
:103870000B4807E008493046FDF72EF801D206480C
:1038800000E0304606463146284603F0B1FA0F20E4
:10389000FEF7E8F9FEBD0000000020422000000015
:1038A000000020C210B5044600F0BCFA0C490870B4
:1038B00008460078C007C00F08700846007831300D
:1038C0000849087102F054F9002007490870602087
:1038D00006490870034A06A1074803F06BFE10BDB5
:1038E0005F000020600000205C0000205E000020DF
:1038F0005625730D0A00000000000540FEB507467E
:103900003B4E02AA3BA13846FCF760FC044618E097
:1039100002AA38A10020FCF759FC0446207843286D
:1039200004D1601CFCF789FCC5B20AE0207853285A
:1039300007D1601CFFF7C8FA01910090FCF7A6FFC1
:103940000646002CE4D12A493046FCF7C5FF04D3D3
:1039500029493046FCF7B6FF00D2254E002D3FD155
:1039600026490868C117090D091809130903411AE6
:10397000224A116010460068002802DD10460068E7
:1039800002E01E48006840420121C90288420ADD67
:103990001A480068002806DD184800684900401AE7
:1039A0001649086017E015480068002802DD134832
:1039B000006802E01148006840420121C9028842C3
:1039C00009DD0E480068002805DA0C480068490047
:1039D00040180A4908600020094908600949088020
:1039E0003146002003F010FA0F20FEF73BF9FEBD30
:1039F0000000204220000000000020C2D80000206B
:103A0000E4000020F4000020F8B506466A4614A140
:103A10003046FCF7DBFB0446002C05D06A4610A1BB
:103A20000020FCF7D3FB04462078432813D1601C08
:103A3000FCF703FCC5B2681EC507ED0F284600F071
:103A4000D5FA002803D10F20FEF70CF906E011206B
:103A5000FEF708F902E01320FEF704F9F8BD0000B4
:103A60002000000010B5044602F012F9002803D12E
:103A70000F20FEF7F7F802E01120FEF7F3F810BD73
:103A8000F8B5064600256A4617A13046FCF79EFBAE
:103A900004460CE06A4614A10020FCF797FB04469C
:103AA0002078532803D1601CFCF7C7FB05B2002C1B
:103AB000F0D1FE20C043854200DA04E0FF2D01DD95
:103AC000FF2000E0284605460121362000F0EAF8F4
:103AD0000120064908800648058000200549087035
:103AE0000F20FEF7BFF8F8BD20000000FA0000200C
:103AF000FC000020D5000020F1B582B001AA19A178
:103B00000298FCF763FB04461CE001AA15A1002003
:103B1000FCF75CFB04462078522804D1601CFCF7BB
:103B20008CFBC5B20EE02078472804D1601CFCF75E
:103B300084FBC6B206E02078422803D1601CFCF763
:103B40007CFBC7B2002CE0D1074805704670877037
:103B50003A463146284603F031F90F20FEF782F845
:103B6000FEBD000020000000D0000020F8B5064691
:103B70006A460DA13046FCF729FB0446002C05D00F
:103B80006A4609A10020FCF721FB04462078422860
:103B900003D1601CFCF751FBC5B2284602F0A2FC21
:103BA0000F20FEF75FF8F8BD2000000010B50446B6
:103BB0000120044908700020034908800F20FEF707
:103BC00051F810BD47000020FE00002010B504464B
:103BD0000D488078012813D10B48C07802280FD1F6
:103BE0000948007903280BD107484079042807D1F8
:103BF00005488079052803D10F20FEF733F802E04D
:103C00001120FEF72FF810BDD002002070B5044639
:103C100000F096FE054600BF00F092FE401BA04259
:103C2000FAD970BD10B503F0CDFA164800681649F0
:103C3000086016480078602823D1154800780128CC
:103C40001CD014480078012818D0134B9A78597862
:103C5000187803F0B3F811480088002803D101F068
:103C600057F9044606E00D480088012802D10C48A7
:103C70000024045F204603F085FA02E0012002F0F0
:103C800031FC10BDF0000020880000205E00002004
:103C9000D400002047000020D0000020FA000020BF
:103CA000FC00002030B505460C462846FDF730FEE6
:103CB000046030BDF1B584B00498FCF74BFD0446B8
:103CC000104A114BFCF75AFC019100900F48006814
:103CD000FCF7A0FD04460E4A0E4BFCF74FFC0646CF
:103CE000019B009AFCF798FB03910290FCF7CEFD34
:103CF0000649086008460068FCF74EFD00B205B0B2
:103D0000F0BD0000666666666666D63F2401002048
:103D1000CDCCCCCCCCCCE43F0EB5002000904049BB
:103D2000496908460C30042202A903F0C7FA0028AA
:103D300047D13B49496908461430042201A903F0E0
:103D4000BDFA00283DD1019902984018401C002876
:103D500009D133494969084610300422694603F005
:103D6000ADFA002859D02E4949690C31C81DFF30E1
:103D7000FA30042202A903F0A1FA00284DD1284903
:103D800049691431C81DFF30FA30042201A903F03B
:103D900095FA002841D1019902984018401C00284A
:103DA0000BD11F4949691031C81DFF30FA30042278
:103DB000694603F083FA00282FD0002003F012FC9C
:103DC0002BE0174949690C31C81DFF30FA30042235
:103DD00002A903F073FA00281CD111494969143172
:103DE000C81DFF30FA30042201A903F067FA002849
:103DF00010D1019902984018401C00280DD10849A3
:103E000049691031C81DFF30FA300422694603F0B9
:103E100055FA02E0002003F0E5FB00980EBD00001B
:103E200000C000500EB5002000903C4948690422B3
:103E300002A903F043FA002844D1384949690846E9
:103E40000830042201A903F039FA00283AD1019977
:103E500002984018401C002808D130494969081DC3
:103E60000422694603F02AFA002855D02B494969F3
:103E7000C81DFF30FA30042202A903F01FFA0028FF
:103E80004AD1264949690831C81DFF30FA30042259
:103E900001A903F013FA00283ED1019902984018B5
:103EA000401C00280AD11D494969C81DFF30FE3059
:103EB0000422694603F002FA00282DD0002003F006
:103EC0002FFC29E015494969C81DFF30FA3004224A
:103ED00002A903F0F3F900281BD110494969083100
:103EE000C81DFF30FA30042201A903F0E7F90028C9
:103EF0000FD1019902984018401C00280CD10749A5
:103F00004969C81DFF30FE300422694603F0D6F926
:103F100002E0002003F004FC00980EBD00C0005039
:103F20003EB504460025002000902F494969084607
:103F30000C30042202A903F0C1F900281ED12A493D
:103F4000496908461430042201A903F0B7F9002892
:103F500014D125494969084610300422694603F006
:103F6000ADF900280AD1019902984018401C002898
:103F700004D10098A04201D128463EBD1A494969A2
:103F80000C31C81DFF30FA30042202A903F096F963
:103F9000002822D1144949691431C81DFF30FA3074
:103FA000042201A903F08AF9002816D10E494969B3
:103FB0001031C81DFF30FA300422694603F07EF943
:103FC00000280AD1019902984018401C002804D109
:103FD0000098A04201D12846CFE7204603F002FB1B
:103FE00005462846C9E7000000C000503EB504461B
:103FF0000025002000902C494869042202A903F002
:104000005DF900281DD12849496908460830042275
:1040100001A903F053F9002813D123494969081D68
:104020000422694603F04AF900280AD1019902984E
:104030004018401C002804D10098A04201D1284615
:104040003EBD19494969C81DFF30FA30042202A952
:1040500003F034F9002821D1134949690831C81DFA
:10406000FF30FA30042201A903F028F9002815D105
:104070000D494969C81DFF30FE300422694603F02E
:104080001DF900280AD1019902984018401C002807
:1040900004D10098A04201D12846D1E7204603F080
:1040A0003FFB05462846CBE700C0005000200EE04D
:1040B0000B49095C0B4A116000BF0B498969012259
:1040C00012071140090F0029F7D0411CC8B2074957
:1040D00009888842ECDB0021044A11807047000007
:1040E000D0020020000015400000054048000020DC
:1040F00008B5FF20009034480078012800D108BDA1
:1041000000F01EFC3149086054E03148314909880B
:10411000405C009030480078002803D16846007861
:10412000F02807D02C480078012806D1684600788E
:10413000472802D10120294908706846007828499B
:10414000086000BF26488069012109070840000F68
:104150000028F7D01F4800887F2801D1002002E006
:104160001C480088401C1B4908801E480088401ECF
:1041700000B21C49088018480078002803D168461E
:104180000078F72807D014480078012807D168463E
:1041900000780A2803D100201049087010E000F0D0
:1041A000CFFB0A490968401AC82803D900200B49E7
:1041B000087005E0074800880B4909888842A4D1A7
:1041C00000BF00BF9BE70000460000209C000020CD
:1041D00050010020520000205F0000204500002018
:1041E000000005404C0000205400002008B5FF20CE
:1041F000009034480078012800D108BD00F0A0FBF1
:104200003149086054E0314831490988405C0090E8
:1042100030480078002803D168460078F02807D09D
:104220002C480078012806D168460078472802D13A
:10423000012029490870684600782849086000BFB5
:1042400026488069012109070840000F0028F7D09F
:104250001F4800887F2801D1002002E01C48008808
:10426000401C1B4908801E480088401E00B21C49A3
:10427000088018480078002803D168460078F7289D
:1042800007D014480078012807D1684600780A282A
:1042900003D100201049087010E000F051FB0A49DA
:1042A0000968401AC82803D900200B49087005E0A6
:1042B000074800880B4909888842A4D100BF00BF85
:1042C0009BE70000450000209800002050020020DD
:1042D0004E0000205F000020460000200000054046
:1042E0004A00002050000020F0B585B03648007824
:1042F000602867D135480068FCF72CFA0022344B5F
:1043000003910290FCF73AF906460022314BFCF784
:104310009DF9044600221346FCF7A4FA18D82B484E
:104320000068FCF717FA04460022294BFCF726F92F
:104330000022284B01910090FCF788F906460022E4
:10434000254BFCF769F803910290FCF73FFA17E060
:104350001E480068FCF7FEF9064600221C4BFCF7DD
:104360000DF9044600221B4BFCF770F900221A4B92
:1043700001910090FCF7F4F803910290FCF726FA03
:104380001649086011490968002902DD0F490968CA
:1043900002E00E49096849420846C917090D091883
:1043A00009130903411A09B20D4A1180FEF72AFCCC
:1043B0000C490880FEF72FFC0B490880FEF705FC2E
:1043C0000A49088005B0F0BD5E000020D80000203A
:1043D000008076400000B0400000E03F90000020E8
:1043E000780000207C000020800000208400002055
:1043F00070470146102907D0122905D0132903D090
:10440000142901D0152901D1012070470020FCE7B3
:1044100070477047F0B5C54A00248FB091420ADA60
:104420004B005B08934206D801254A006D05EA421D
:1044300005D1002803D0FDF749FF0FB0F0BD0125DD
:104440002D05A94219DA034308D0002910DA01200A
:10445000FDF760FFFDF73FFF0FB0F0BD0220FDF755
:1044600059FFFDF729FF0122D20751400FB0F0BDDF
:104470003524E4433622FCF7C7FB0A15AC4B12196E
:10448000D4180A03120BAB49AB4B56182E403146D9
:10449000594011430192321512190B920022FCF778
:1044A0005FF8019A0446921C1003A44E000B0D46BF
:1044B0007E44032860D2204673683268FCF7BEF958
:1044C0001CD10B98002815D0FCF744F904460E4681
:1044D0009B4A9C4BFCF752F80D4607469A4A9B4B69
:1044E00020463146FCF74AF83A462B46FBF794FF44
:1044F0000FB0F0BD716830680FB0F0BD944A954BB5
:1045000020462946FCF73AF80022934BFCF72EF898
:1045100006460F4622462B4610461946FCF72EF853
:1045200032463B46FCF72AF806460B980F46002811
:104530001DD0FCF70FF9824A824B05910490FCF7DD
:104540001DF832463B46FCF711F822462B46FCF795
:1045500007F804460D467C4A7C4B05990498FCF705
:104560000DF822462B46FBF7FBFF0FB0F0BD0B46C4
:10457000324620462946C4E0012300229B072046FC
:10458000FBF74AFF02460B4620462946FCF75EF839
:1045900006460F460B98FCF7DDF832463B46059180
:1045A000049010461946FBF7E9FF09910C906B49FE
:1045B0000198099B421800920C9A19461046FBF785
:1045C000DDFF024607910A90654901980B1A65487C
:1045D000019303217844079BFDF718FE079B0A9A75
:1045E000FBF7CCFF0E905F480D9104217844079BA8
:1045F0000A9AFDF70BFE099B0C9AFBF7BFFF019B84
:10460000009A1A4300920D9B0E9AFBF705FF009A41
:1046100001910C90002A4DDD0022D243204629460C
:10462000FCF7F2FA22462B46FBF7A8FF00910A900E
:104630000B9800282BD0424A424B05990498FBF76F
:104640009DFF07910E90019B0C9A00990A98FBF729
:10465000E3FE32463B46FBF791FF079B0E9AFBF7C2
:10466000DBFE009B0A9AFBF781FF22462B46FBF7F5
:1046700077FF04460D46344A344B05990498FBF7FE
:104680007DFF22462B46FBF76BFF0FB0F0BD019B71
:104690000C9A0A98FBF7C0FE32463B46FBF76EFFCA
:1046A000009B0A9AFBF762FF22462B46FBF75EFF50
:1046B0000FB0F0BD0B98002827D0214A214B059957
:1046C0000498FBF75BFF0791009020462946019B69
:1046D0000C9AFBF745FF32463B46FBF74FFF079B23
:1046E000009AFBF73DFF22462B46FBF739FF0446B5
:1046F0000D46154A154B05990498FBF73FFF2246D6
:104700002B46FBF72DFF0FB0F0BD0B462046294688
:104710000C9AFBF725FF32463B46FBF72FFF22465C
:104720002B46FBF723FF0FB0F0BD00000000F07F29
:1047300001FCFFFF645F09000000F03F2C35000022
:10474000763C7935EF39EA3D0000E0FE422EE63F47
:10475000555555555555D53F0000E03F86EBF9FFBF
:1047600051B80600D03300001CB500200190002194
:10477000102000F07FFE0021122000F07BFE0121BE
:10478000342000F077FE0121352000F073FE00BFD9
:1047900006E059205049086016200860882008600B
:1047A0004D4800680128F4D100BFFDF7C7F900BFEC
:1047B00000204949086000BFE1204002FDF772FB7C
:1047C000E1204002FDF780FB002003460322E121A7
:1047D000490200904148FDF7F9FB002003460322FF
:1047E000E121490200903E48FDF7F0FBFDF77AFB1E
:1047F0003C48FDF733FB0820FCF750FD00F07EF944
:1048000001F000FEFFF70EFB3749087008460078FC
:10481000C007C00F0870084600783130334908716E
:10482000FFF77AFA00B23249088001F0A1F90020BE
:1048300030490870304908706020304908703220D3
:10484000FFF7E4F9294A2EA1244802F0B3FE42E022
:1048500000F06EFAFFF7CAFCFFF74AFCFFF744FDD1
:1048600000F06EF828490860084600682749096882
:10487000401A092822D92448006824490968401AA6
:1048800023490860204800682049086021480078D2
:1048900001280FD1204800880A2807DAFF231A468A
:1048A0001946FF20F53001F0E7FD05E00020194929
:1048B000087001E000F052F8FFF7B4F900F040F89A
:1048C00016490968401A282805D900F039F8134913
:1048D000086001F0EFFABBE700010050000005405E
:1048E00000001540A08601005F000020600000204D
:1048F000F80000205C0000205D0000205E00002029
:104900005625730D0A0000000C0000201000002046
:10491000E800002047000020FE00002014000020D6
:10492000F8B506460C4617461D46321B069B5B1B18
:104930005A431046391BFBF711FC4019F8BD000023
:1049400010B5642102480068FBF7F2FB10BD0000BF
:10495000180000207047704770470000F8B5FEF758
:1049600051F90546FBF7EAFE0446FEF72EF9054627
:10497000FBF7E4FE0746FEF74EF90546FBF7DEFEC1
:10498000009052480088401C5049088050480088D8
:10499000401C4F4908804F480088401C4D49088002
:1049A0002046FBF7F9FE05B22846FEF7BFFA04469B
:1049B0003846FBF7F1FE05B22846FEF79BFA07469C
:1049C0000098FBF7E9FE05B22846FEF747FB00908A
:1049D00041492046FBF780FF04D240480088401C34
:1049E0003E4908803A48008819214901884211D17E
:1049F00000203749088039480088FF2191318842DA
:104A000005DD012001F06EFD012035490870002010
:104A10003249088032480078012807D100231A461D
:104A2000FF21FF20F53001F027FDF8BD0098FBF7CE
:104A3000F1FE054600222B4BFBF700FF04D32A4969
:104A40000098FBF749FF04D228480088401C2749FA
:104A500008802048008819214901884211D100208E
:104A60001C49088021480088FF219131884205DDDA
:104A7000012001F037FD01201949087000201B4971
:104A800008801B493846FBF727FF04D219480088E5
:104A9000401C184908800D480088192149018842A6
:104AA00011D100200949088012480088FF21913166
:104AB000884205DD012001F015FD0120084908703C
:104AC00000200C49088000BFAFE700000C01002067
:104AD00012010020060100200000A0421401002065
:104AE000D4000020000014400000204108010020F4
:104AF0000080BB440E0100207047704708B507488E
:104B000010230422002100900548FCF71DFF00221D
:104B100001210348FCF70CFF08BD0000808D5B00FD
:104B200000400340124880680C2290430122104349
:104B30000F4A906000201062104600680122104366
:104B40000B4A106000BF0A480068C007C00F002869
:104B5000F9D1074801690811410005488068082219
:104B6000904305221043024A906008B2704700004B
:104B700000400340704700000649884202DD0649B4
:104B8000411A08B203494942884202DA090D411824
:104B900008B27047FF070000FF0F0000F8B5064697
:104BA00000273046FBF749FBC4B2214800780028B3
:104BB00006D11020FDF756F801201D490870F8BDF8
:104BC00000201B490870FF2C03D01A48007884424B
:104BD00021D119A13046FBF71FFB0546002D16D049
:104BE00016494919481CFBF728FBC7B2FF2C09D10D
:104BF0000A2F07D0472002F085FDFFF757FA0A2059
:104C000002F080FD0D49481900F01AF802E0122068
:104C1000FDF728F807E0472002F074FDFFF746FA99
:104C20000A2002F06FFD01200149087000BFC6E7AD
:104C3000440000205C0000204D000000D002002055
:104C400070B50446601CFBF7F8FAC5B22B00FDF7FF
:104C5000CAFA266C14181C2024282C3034383C4006
:104C60006C6C6C6C6C6C44486C6C6C6C6C6C6C6CD0
:104C70006C4C5054585C6064686C2046FEF71EFB18
:104C800054E02046FEF7CAFD50E02046FEF76EFFD6
:104C90004CE02046FEF730FF48E02046FEF718FCC7
:104CA00044E02046FEF72CFC40E02046FEF744FCA2
:104CB0003CE02046FEF7ECFB38E02046FEF75CFCCB
:104CC00034E02046FEF73EFB30E02046FEF7EAFDEA
:104CD0002CE02046FEF770FC28E02046FEF794FE0C
:104CE00024E02046FEF762FF20E02046FEF7BAFEF1
:104CF0001CE02046FEF7C6F918E02046FEF772FCDD
:104D000014E02046FEF74CFA10E02046FEF7F8FCCF
:104D10000CE02046FEF7B4FE08E02046FEF754FB08
:104D200004E02046FEF7EAFD00E000BF00BF70BDD2
:104D300008B5FF200090CAE069486A490988405CCC
:104D400000906948007800287ED1684800780128E2
:104D50001ED168460078F72805D100206349087005
:104D600000F0C2FBA2E0684600786149614A1288FF
:104D7000885460480088401C5E49088008460088C6
:104D80007F28EFDD0020594908705A4908808DE0DE
:104D900068460078F02806D10120544908700020A8
:104DA0005449088082E054480078012841D168467F
:104DB00001784F484F4A128881544E480088401C61
:104DC0004C4908800846008805286FD100204A49D0
:104DD00008704849088046480078552866D14448FC
:104DE0004078032862D14248C07801285ED140480B
:104DF000007900285AD100BFFF21404A1160552197
:104E000011603B498978116004211160092111600A
:104E100000BF05E03A49095C384A1160411C08B2FC
:104E20000928F7DB0D21354A11600A2111603DE0A8
:104E30000AE068460078FF2838D101202E49087022
:104E400000202C49088031E02748007801282DD126
:104E50002C48007800281FD0684600780A2806D120
:104E60000020284908702248FFF798FE1EE0684697
:104E700000781F491F4A128888541E480088401C29
:104E80001C490880084600887F280FDD00201D4946
:104E900008701849088009E068460078472805D15D
:104EA0000120184908700020124908800D48008828
:104EB0007F2801D1002002E00A480088401C0949EF
:104EC000088011480088401E00B20F49088005483C
:104ED00000880E490988884200D02DE708BD0000EF
:104EE000D0010020580000205F000020400000207A
:104EF000D0020020480000204100002000000540B2
:104F00006000002043000020560000205A000020CE
:104F1000F0B58BB08121C905FE480068FBF700FAA7
:104F2000079001F039FF002802DD01F035FF02E0B3
:104F300001F032FF40420646FBF700FC05460799A8
:104F4000FBF7CAFC77D80021F3480068FBF7C4FCE4
:104F500002D2F148006804E0EF4800680121C90767
:104F600048400546EB4801682846FBF7D1F904465E
:104F700000212046FBF7A6FC5ED001F00DFF0028C3
:104F80005ADD00212046FBF7A7FC01D2204603E0B2
:104F900020460121C90748400546E04801682846E7
:104FA000FBF79AFC1ED200212046FBF795FC01D2AC
:104FB000204603E020460121C907484001460790EA
:104FC0002046FBF7EAF90646D44801683046FBF76D
:104FD000A7F90546D14801692846FBF79DF9CF4955
:104FE00008618BE000212046FBF776FC01D22046C9
:104FF00003E020460121C9074840014606902046AB
:10500000FBF7CBF9064600212046FBF765FC01D2F1
:10501000204603E020460121C90748403146079059
:10502000FBF77EF90546BD4801692846FBF774F990
:10503000BA49086162E07CE000212046FBF742FCAF
:105040005CD001F0A9FE002858DA00212046FBF7C9
:1050500043FC01D2204603E020460121C907484015
:105060000546AE4801682846FBF736FC1ED20021F3
:105070002046FBF731FC01D2204603E02046012107
:10508000C9074840014607902046FBF786F90646C7
:10509000A24801683046FBF743F905469F4801697D
:1050A0002846FBF7E4F89D49086127E000212046E7
:1050B000FBF712FC01D2204603E020460121C9077C
:1050C0004840014606902046FBF767F90646002156
:1050D0002046FBF701FC01D2204603E020460121D7
:1050E000C907484031460790FBF71AF905468B4837
:1050F00001692846FBF7BBF88849086187490869B8
:105100008749FBF7DFFB01D2854809E0834908693D
:105110008449FBF7E1FB01D2824801E07F48006946
:105120007E4908610869FBF737FB00B27E490880B9
:105130008FE18121C90577480068FBF7F1F80790F6
:1051400001F02AFE002802DD01F026FE02E001F057
:1051500023FE40420646FBF7F1FA05460799FBF7A6
:10516000B1FBE5D271490968714A1268881AFBF7E8
:10517000E5FA074601F010FE0390FBF7EBFA05464F
:1051800000226C4BFBF7FAF900226B4B059104905F
:10519000FBF75CFA07910690FBF718FB00B2624937
:1051A000088000213846FBF797FB01D2384603E020
:1051B00038460121C907484005466049FBF78CFB8A
:1051C00078D200213846FBF787FB4BD25C48007849
:1051D000012805D15B480078002801D15A4948616F
:1051E0000120584908708121C9054A480068FBF729
:1051F00097F839460190FBF793F800210290FBF7EE
:105200006BFB0AD28121C90542480068FBF788F888
:1052100039460290FBF784F80CE08121C9053D482E
:105220000068FBF77DF839460290FBF779F8012119
:10523000C90748400390FBF7EDFA054602F01AF95A
:1052400000223D4B05910490FBF700FA0791069070
:10525000FBF71CFB0890304808990068FBF758F8EA
:1052600009904FE036480078012806D1354800788B
:10527000012802D1002034494861002031490870DA
:105280008121C90523480068FBF74AF83946019097
:10529000FBF746F800210290FBF71EFB0BD28121A1
:1052A000C9051C480068FBF73BF839460290FBF73C
:1052B00037F80DE08AE08121C90516480068FBF740
:1052C0002FF839460290FBF72BF80121C907484017
:1052D0000390FBF79FFA0591049002F0CBF80122AE
:1052E000D207514005460022134BFBF7AFF9079157
:1052F0000690FBF7CBFA0890074808990068FBF77F
:1053000007F80990104948690999FAF7B0FF0E4962
:1053100048611BE0EC000020F00000208803002022
:1053200000007FC300007F43F6000020DC00002067
:10533000D8000020008019400000104000004041CB
:10534000D3000020050100206803002043480078B6
:1053500001281FD188680999FAF7E2FF07904048B1
:10536000016801208007FAF7DBFF39460590FAF75C
:10537000D7FF06463B490020085EFBF7DFF93146C0
:105380000690FAF774FF05460799FAF7C1FF34490A
:10539000086144E0324A51695068FAF7C1FF304968
:1053A000079088680999FAF7BBFF06462D49002047
:1053B000085EFBF7C3F931460690FAF7A9FF0546E8
:1053C0000799FAF7A5FF2649086128E03846FBF758
:1053D000E3F906B23046FEF76DFC0546FBF7AEF981
:1053E000074601201D49087000201D4948610890AA
:1053F0001D4808990068FAF78BFF0990184908685A
:105400003946FAF78DFF054616490020085EFBF77E
:1054100095F906462946FAF72AFF1149086110490D
:1054200008691249FBF74EFA01D2104809E00C490D
:1054300008690F49FBF750FA01D20D4801E008480E
:105440000069074908610869FBF7A6F900B2054938
:10545000088004490020085E0BB0F0BDD300002096
:1054600068030020F6000020F000002000007FC349
:1054700000007F43F8B504460D46F0202040061199
:105480002107090F01208840C7B23300FCF7ABFEAB
:1054900005040A11181F26002A4639461148FCF750
:1054A000EDF91CE02A4639460E484030FCF7E6F993
:1054B00015E02A4639460B488030FCF7DFF90EE04C
:1054C0002A4639460748C030FCF7D8F907E02A4693
:1054D00039460448C030FCF7D1F900E000BF00BFF6
:1054E000F8BD00000040005010B530480078FF289B
:1054F00005D02E4800782E49097888424BD12B4898
:105500000078FF2816D129484078102812D0274863
:10551000407816280ED026480078002802D1FF20B7
:1055200023490870F02002F0EDF8FEF7BFFDF720E8
:1055300002F0E8F800242BE00C2060431D49085CD1
:105540001A494978884221D11B48007800280ED09A
:105550001648407818490978884208D0134840789E
:105560000011012803D01220FCF77CFB10BD0C2099
:105570006043104940188068002806D00C20604322
:105580000A46801881680020884703E0601CC4B286
:105590001E2CD1D307E0F02002F0B4F8FEF786FD10
:1055A000F72002F0AFF800BFE0E70000D0020020D3
:1055B0005C000020F07700005E00002070B505461A
:1055C0000C46284620388000E3490C50012128462B
:1055D00020388000E14A11502146E148FAF7BEFD2B
:1055E0000446284620380300FCF7FDFD0805356712
:1055F0009FD7FDFCFBFADB4840690020D949486190
:1056000008468068C9020843D6498860D648806841
:1056100008210843D449886008460068000A00024F
:105620000B30086008464068C008C000001D486094
:10563000CD484030C06B01210843CB494031C8639D
:1056400005200007806B8915084305210907886339
:10565000C548C4607DE1C34840690020C149486134
:1056600008468068C9020843BE498860BE48806811
:105670000121C9020843BC49886008460068000A45
:1056800000020B30086008464068702188434030B3
:10569000B5494860B4484030C06B02210843B24964
:1056A0004031C86305200007806B49150843052178
:1056B00009078863AC4884614BE1AA48406900202F
:1056C000A84948610846806809030843A5498860DD
:1056D000A548806889020843A34988600846006895
:1056E000FF21090288430B21090240189E490860E6
:1056F00008464068072109028843012189024018B1
:105700009949486098484030C06B04210843964945
:105710004031C86305200007806B09150843052147
:10572000090788639048446213E18E48406900206D
:105730008C494861084680680903084389498860A4
:10574000894880688904084387498860084600685A
:10575000FF21090288430B21090240188249086091
:10576000084640680721090388430121890340183E
:105770007D4948607C484030C06B082108437A4925
:105780004031C86305200007806BC9140843052118
:105790000907886374480463DBE07248C06900202D
:1057A0007049C86108468068490308436D498860AC
:1057B0006E488068082108436C4988600846006884
:1057C000000A00020B30086008464068C008C000AC
:1057D000001D486065484030C06B0121084303E06C
:1057E000B6E07CE042E00EE060494031C86305204D
:1057F0000007806B0121090308430521090788631D
:105800005A48C460A5E05748C06900205549C8619E
:1058100008468068490308435249886053488068B5
:105820000121C90208435149886008460068000AFE
:1058300000020B3008600846406870218843403001
:105840004A49486049484030C06B022108434749F3
:105850004031C86305200007806B012149030843DC
:105860000521090788634148846172E03D48C069A9
:1058700000203C49C86108468068890308433949CB
:1058800088603A4880688902084338498860084639
:105890000068FF21090288430B210902401833499F
:1058A00008600846406807210902884301218902EF
:1058B00040182E4948602D484030C06B04210843F1
:1058C0002A494031C86305200007806B0121890304
:1058D00008430521090788632448446239E02148C8
:1058E000C06900201F49C8610846806889030843D1
:1058F0001C4988601D488068890408431B498860EA
:1059000008460068FF21090288430B21090240185C
:1059100016490860084640680721090388430121A9
:10592000890340181149486010484030C06B082175
:1059300008430E494031C86305200007806B0121F0
:10594000C90308430521090788630848046300E088
:1059500000BF00BF70BD00001C000020300100200F
:1059600040420F00000200500000044000001440BC
:1059700070470000FFB583B00D4616461F46002055
:1059800002902C4603982038800010490858029055
:105990000F480299FAF7E2FB0290B44201DA30466E
:1059A00004E0BC4201DD384600E02046044602988F
:1059B00000233A46314600902046FEF7B1FF0446E8
:1059C0002146039800F006F807B0F0BD1C00002047
:1059D00040420F0000B50246203A1300FCF703FCDA
:1059E00008050D161F283039424B244A1161926870
:1059F00001231A43214B9A603EE0204AD16192680C
:105A0000FF2301331A431D4B9A6035E01B4A916214
:105A1000926801231B041A43184B9A602CE0174A22
:105A20005163926801231B061A43144B9A6023E0CA
:105A3000134A1161926801231A43114B9A601BE0CB
:105A40000F4AD1619268FF2301331A430C4B9A60CD
:105A500012E00B4A9162926801231B041A43084B1F
:105A60009A6009E0064A5163926801231B061A43B3
:105A7000034B9A6000E000BF00BF00BD000004407F
:105A80000000144010B50246505C4006400E184C11
:105A90002070481C105CC007030E20460078184395
:105AA0002070481C105C40106070881C105C8007DF
:105AB000030E20464078C0186070881C105C80106F
:105AC000A070C81C105C4007030E20468078C018E8
:105AD000A070C81C105CC010E070081D105C0007AE
