:020000040000FA
:10000000C80B0020D5000000FB000000FD00000030
:1000100000000000000000000000000000000000E0
:10002000000000000000000000000000FF000000D1
:1000300000000000000000000101000003010000BA
:100040000501000005010000050100000501000098
:100050000501000041180000050100000501000035
:10006000311E00000501000005010000050100002F
:100070009D1E0000C11E00000501000005010000DA
:100080000501000005010000BD1800000501000089
:100090000501000005010000050100000501000048
:1000A0000501000005010000050100000501000038
:1000B0000501000005010000050100000501000028
:1000C0000348854600F028FE00480047B54600007A
:1000D000C80B00200C480D4901600D4901600D4915
:1000E00001600D4A0D4911600D4A0E491160002151
:1000F00001600D4880470D480047FEE7FEE7FEE738
:10010000FEE7FEE7FEE70000000100505900000096
:10011000160000008800000024000050A55A0000CE
:10012000800300501F000000311D0000C1000000CE
:1001300030B50B46014600202022012409E00D467F
:10014000D5409D4205D31D469540491B2546954007
:1001500040191546521E002DF1DC30BD70B500244B
:100160002546002801DA01244042002901DA012550
:100170004942FFF7DDFFAC4200D04042002C00D0E6
:10018000494270BD03460B439B0703D009E008C9F1
:10019000121F08C0042AFAD203E00B780370401C37
:1001A000491C521EF9D27047D2B201E00270401CC5
:1001B000491EFBD270470022F6E710B513460A46E7
:1001C00004461946FFF7F0FF204610BD70B5002821
:1001D00000D11068002514E00B4602E0A64203D0CF
:1001E0005B1C1C78002CF9D1E3B22B4307D0002C08
:1001F00006D0002D04D000210170401C04E005460B
:10020000401C0678002EE7D11060284670BD014AD8
:10021000DCE700002801002030B50546002008E09A
:100220000A4602E0A34207D0521C1378002BF9D1F2
:10023000401C2C5C002CF3D130BD70B5064601F09B
:10024000E1FF046805460A220021304600F004FC64
:100250002C6070BD70B5064601F0D4FF04680546F9
:100260000A220021304600F0F7FB2C6070BDF8B583
:1002700002464A40D40F42004B0052085B089A42A3
:1002800002D20246084611464A0023D0C30D4A0056
:10029000DDB2120EAD1A202D35DA49020126490AC7
:1002A000F6058A19002C00D0524220214F1B11461E
:1002B000B9402A411018C20D9A4221D0002C17D003
:1002C000012D08DCDA05801AD20F8019D207DBB2C3
:1002D00000F002FCF8BDDA05801A012340001B067D
:1002E000C01880185A428018CA0F1043490007E00E
:1002F0004908C2071143DA05801A8019400880189E
:1003000000F0E2FBF8BD61000122511A001BF7E783
:100310000122D2075140AAE70122D2075040A6E7A6
:10032000024670B54A40D30FDB0740002DD04A008B
:100330002AD0010E140E000212020919400A520AB4
:100340008418E50104465443000A120A2E0450435F
:10035000A4194219200CC543AA18120C0125AD039B
:10036000521C521912047F39240400D0521C10432D
:1003700001D44000491EC2B20C06C0092018401C1E
:100380004008802A02D003E0002070BD40084000F1
:10039000002900DA0020184370BD70B502464A40BB
:1003A000D50F40004A00ED0740085208002814D03D
:1003B000002A12D0C40DD30D41020120C005520203
:1003C000490A520AE41A091812187D34914201D3DD
:1003D000641C00E04900002C01DA002070BD0023FD
:1003E000914201D3891A0343400849000028F7D1FC
:1003F00000290AD0914202D10121C90705E09142AA
:1004000001D2012101E00121C943E005C0184019D2
:1004100000F05AFB70BD0000F0B507460846584092
:1004200087B0C00F049048000E46590040084908A4
:10043000BC1A884105D2384631461E4617460B463F
:1004400002465800400810434CD0300D0390400540
:100450005900400D490D0590401A0290402872DA6B
:1004600018030121000B090508430190049800922C
:10047000002805D001995242002088410092019045
:10048000029840210A1A0199009800F05FFA054687
:100490000C466B4607CB00F07AFAC0197141039AFB
:1004A0000E0D0023D71756401A467A40164344D003
:1004B000049A002A2DD0029A012A039A15DC12050B
:1004C000C01A914101263605001C7141D20F059ECC
:1004D000D2070093019202962A46234600F042FB7F
:1004E00007B0F0BD38463146FAE71605224A0F46F6
:1004F000B218C01AB74101210905001C4F4100186C
:100500007F41114618187941E20F10436D1964417B
:1005100013E0E2076D0815436408C2071443039A09
:1005200001261205C01A91413605001C7141CE0703
:10053000400830434908C01851412A46234600F07C
:1005400004FBCDE7FFE7049801224000C117121A0F
:1005500000238B4104983146C417381AA141EEE7B5
:1005600030B40124E407634030BC55E730B40124C3
:10057000E407614030BC4FE70000E0FFF0B51FB476
:1005800088B00B990998002448400999C00F490088
:1005900049080991C0070B990090490049080B913F
:1005A00009990898A64608431CD00B990A98084355
:1005B00018D0099801244000420D4800410D0998C7
:1005C00024050003000B204309900B980003000B47
:1005D00020430B9050181C494018002201901446EB
:1005E000104605E0002001460DB0F0BD032801DAF9
:1005F000034600E003239C46C11A0AAE0AE05F00EE
:1006000008ADED5B4F00F75B7D430027AA187C41E6
:10061000491C5B1E6145F2DD410004AB5A522104C6
:10062000120C0A43240C401C0828DFDB01980290BE
:100630000099704601910090059B049A07990698CD
:1006400000F090FAD0E700000DFCFFFFF0B50C467B
:100650005C4085B0E40FE40703944C000026640876
:1006600059009446490802460296224321D0624628
:100670000A431ED06200570D4A000E032303550D96
:10068000012402462C492405781B1B0B360B40180D
:1006900023432643614600901C46501AB44103D3BD
:1006A0000098401C009002E0921800985B410028DE
:1006B00003DA0020014605B0F0BD00200121090544
:1006C0000746864611E064461D46141BB54106D315
:1006D0006546521BB341744607430C43A646CD07FB
:1006E00040084908284392185B4105460D43EAD16A
:1006F0001046184313D060461946504071400843D5
:1007000006D06046101AB34106D20122002306E04B
:1007100000220123DB0702E00122D243531000989C
:1007200074460105381C6141029C039D0019694112
:1007300000F00BFABFE70000FD030000C217C10F75
:10074000504010B54018CA079623002100F0C4F9A4
:1007500010BD00000EB5C217C10F5040CA074018A7
:100760000021054B0293019200910A460B4600F0CE
:10077000F9F903B000BD0000330400000EB50549CF
:100780000291002100910A460B46019100F0EAF91E
:1007900003B000BD33040000C20F4100400201233A
:1007A000400ADB05D207090EC0187F2901DA0020B4
:1007B0007047962903DC9623591AC84001E0963900
:1007C0008840002AF4D040427047000070B5CD0F39
:1007D0004A0009030123090B1B0519430B4BED07C5
:1007E0000024520D9A4201DA002070BD074B3433C9
:1007F0009A4203DC9A1A00F0B9F802E00449511851
:1008000088402C43F1D0404270BD0000FF0300003F
:10081000CDFBFFFFC20FD207400040080BD0C10D37
:100820000723DB01C91840020905400A1143C20829
:1008300040071143704700200146704710B500295A
:1008400004DB0124E40740428C412146002B04DBF9
:100850001C460123DB075242A3418B4200D1824256
:1008600010BD000010B5002904DB0124E40740425C
:100870008C412146002B04DB1C460123DB0752423E
:10088000A341994200D1904210BD0000CB0FDB077D
:10089000490010B5490802460A4307D00A0D07244B
:1008A0000903E401090B121B002A01DC002010BD22
:1008B000C900440F0C43C100E018D205801800F0B5
:1008C00003F910BD0122D207002800DB101A00290D
:1008D00000DB511A814270470122D207002800DB59
:1008E000101A002900DB511A88427047F0B51FB476
:1008F0000646002082B005464024019100901BE08E
:10090000019922460F46304600F030F8049A059BC4
:10091000801A994110D310461946224600F016F865
:10092000361A8F410197224601200021009F00F0D6
:100930000DF838184D4100902046641E0028DFDC79
:10094000019B00982946324607B0F0BD10B5202A19
:1009500004DB0146203A9140002010BD9140202345
:100960009C1A0346E3401943904010BD10B5202A5D
:1009700004DB0846203AD040002110BD0B46D3408E
:10098000D0402024A21A91400843194610BD10B54A
:10099000202A06DBCB170846203A1041C1170B432B
:1009A00006E00B461341D0402024A21A9140084390
:1009B000194610BD0FB400B589B00CA900910B9970
:1009C0000023CB60204B214A069307920422019218
:1009D0001F4A02921F4A089202466B46002000F00E
:1009E00036FA09B008BC04B0184770B586B00646A0
:1009F0000020C0430190002015460C460091029152
:100A000004903246694604A8FFF7D4FF03460498D1
:100A10002118002D05D0002801D00A4600E022460A
:100A20002A6000280DD0002B02DD0098884208D0F3
:100A3000081B0190009432466946029404A8FFF70F
:100A4000B9FF06B070BD0000A5100000C510000081
:100A5000FFFFFF7F450D0000F7B5009C0F46002605
:100A60002578641C002D05D000F068F90068405D11
:100A7000C007F5D12B2D02D02D2D18D0641E39467C
:100A80002046029A00F030FB002F04D03968A142C2
:100A900001D1009939607105022400290BDA404226
:100AA000002803DD01F0AEFB0460A007FEBD0120BD
:100AB00080020643E3E70028F8DA01F0A3FB0460B4
:100AC0000048FEBDFFFFFF7F002904DA401C4900FB
:100AD00001D140084000704770B40024050C05D1D6
:100AE0001024000402D1002921D01124050E01D1C7
:100AF00000020834050F01D10001241D850F01D12A
:100B00008000A41C002801DB4000641C002908D0E0
:100B100020252E1B0D46F540A14000D00121294380
:100B2000084301061B1B000ADB1D02D5002070BC18
:100B30007047DB05181880180029F8DA401C4900B6
:100B4000F5D170BC40084000704710B5002B08DAA2
:100B50000024401C614192185B411A4301D14008B6
:100B6000400010BDF0B51FB482B005460C0003D0A4
:100B7000084601F021FB02E001F01EFB2030024696
:100B8000009021462846FFF7E1FE049B059A0446A3
:100B90000F4618431143084314D0184610431BD086
:100BA000009840210A1A18460599FFF7DFFE05460E
:100BB0000E46009A05990498FFF7C8FE084305D031
:100BC000012004E02046394607B0F0BD0020C117DF
:100BD00005430E432C43374300990E986305401A92
:100BE0007905E40A00220C43FD0A0A3002D50020F0
:100BF0000146E9E70105101969410C9C0D9D00199A
:100C00006941FFF7A2FFDFE770B54B005B080343C4
:100C10000BD04B005C0D002633466542B341D41720
:100C2000AD1AA34102DB0020014670BD1205301849
:100C3000514170BDFEB500231A461B1A8A4103DBE1
:100C40000020014603B0F0BD4A000D0301212D0B29
:100C50000905520D0D43D10702D100186D41521EF6
:100C60005110FF31FF310131002704463E4638461E
:100C7000009701910246012100200905FFF776FE49
:100C8000C3197141F818324684468E464A4161467E
:100C90002846611A904104D36046241A954176464D
:100CA0001F46241900986D41401C00903428E1DD56
:100CB000F91930467041091BA84103D20022D243E2
:100CC000134601E00022134601980105381C7141CA
:100CD000FFF73BFFB6E700004A0009030123090BB9
:100CE0001B0519430A4B10B5520D9A4202DA002037
:100CF000014610BD064B34339A4203DC9A1AFFF7C3
:100D000035FE10BD034BD218FFF720FE10BD0000CA
:100D1000FF030000CDFBFFFF064C0125064E05E05A
:100D2000E36807CC2B430C3C98471034B442F7D30C
:100D3000FFF7CAF988790000A879000000487047D9
:100D40008479000010B50446FFF7F8FF0068005DE5
:100D5000C007C00F10BD0000FFB5087885B015466C
:100D6000FF2805D0491C2D2804D00022002407E0CC
:100D700000240BE00122F9E70A235C430419491C13
:100D80000878FF28F8D1002A00D0644200200190A2
:100D90002A7801462D2A01D02B2A04D16D1C2D2A38
:100DA0000DD00022019200262F78FF2F09D00A22B1
:100DB00000236D1C00F0EBF938187141F4E70122B3
:100DC000F0E7089AA218039202460A430DD00024C5
:100DD000B24AB14D2646009200F026FA04900398DC
:100DE0000291002807DA47421AE0002105980A46D6
:100DF00006C009B0F0BD074612E0F80707D022464A
:100E00002B4630460099FFF7B9FB06460091224673
:100E10002B4610461946FFF7B1FB04460D467F10DE
:100E2000002FEAD10398009B0028029904983246CB
:100E300002DAFFF70BFC01E0FFF7A0FB019A002AA2
:100E400002D00122D2075140059A03C2D1E7FFB573
:100E500091B0002009900025ED432E209E685C682B
:100E60001F460190B9696D1C129888470090396A35
:100E700088470028F6D10098401C0AD00D20C001F8
:100E80008443002E12DD00982B2809D02D280DD187
:100E900003E00020C04315B0F0BD012080020443F0
:100EA000B9696D1C12988847761E009003A96005E9
:100EB00001D52D2000E02B206A461073491C0CA898
:100EC0000F9102900AE0B9696D1C12988847009052
:100ED0000120400204431398761E0560002E02DDB7
:100EE00000983028EFD001990098884246D18020A0
:100EF000044308E00998401E099001204002044381
:100F00001399681C0860B9696D1C761E1298884791
:100F100000903028EED031E00199884205D12006BA
:100F200003D480200443761E1EE0009801F0A4FA4A
:100F3000002826D001204002044307A90F9803315E
:100F4000761E88420BD200980F99303808700F989F
:100F5000401C0F90200607D50998401E03E020068C
:100F600002D40998401C0990A00502D51399681C69
:100F70000860B9696D1C129888470090002ECBDC80
:100F800059E0002E57DD0098652801D0452852D140
:100F9000A00550D5032000028443B9696D1C761E5C
:100FA000129888470090002E0CDD2B2804D02D28A5
:100FB00008D1FF2001300443B9696D1C129888479D
:100FC000761E0090E00501D52D2100E02B2102982E
:100FD00001700298401C0290019025E0012040021F
:100FE00004430EA902980131761E88420ED2009861
:100FF000029930380006000E087003D1029901985A
:1010000081420AD90298401C029006E0E00501D511
:10101000234801E0224840420990B9696D1C1298AA
:101020008847009013980560002E04DD009801F0B9
:1010300023FA0028D2D1F969129888470F99FF2026
:101040000870029903AA087000200A900B900CA95E
:101050000AA8099BFFF780FEA00502D40120C04327
:1010600019E72420044209D0E00713D138680B9A0D
:101070000A99031D3B60006806C00BE00B990A98B3
:10108000FFF704FC0146E00704D13868021D3A600E
:10109000006801602846FEE6000024400000F03FA2
:1010A000F1D8FFFF4268002A08D001680B78491C7C
:1010B000002B03D0521E06C0184670470121C160A4
:1010C000881E70474268002A0BD0C3680168002B55
:1010D00007D183688B4204D0491E521C06C00020F1
:1010E00070470020C0437047F7B582B0029C0027CC
:1010F0002078641C15460197302802D0002D15D0A9
:1011000015E020780127641C782804D0582802D0E4
:10111000002D09D00BE0002D01D0102D07D10027A4
:1011200010252078641C02E0082500E00A2500262E
:10113000009610E00099012769430818020C29461F
:1011400080B2714300908E183804864201D301208A
:1011500001902078641C294600F056F80028E9DA4E
:101160000398002805D0002F01D0641E00E0029CE7
:1011700004600198002806D001F044F802210160C3
:10118000C81E05B0F0BD009930040843F9E7F0B57A
:101190001FB486B000200090019002900698069936
:1011A00080B204900798090C0204001411430790C0
:1011B0000027089D099806913E463C4603900398F7
:1011C000A9B20204000C039004982D0C1543484367
:1011D00000212246FFF7BAFBC719714110340E46B1
:1011E000402CECDB3846029AFFF7B0FB009A019BDB
:1011F00080180090594102980191103002904028C7
:10120000CCDB00980BB0F0BD3A2800D23038202358
:1012100002469A43412A01D310463738884201D307
:101220000020C043704700000EB5054A029200221C
:10123000009213460192FFF795FC03B000BD000039
:101240003304000070B58C180578401C6B075B0FE9
:1012500001D10378401C2A1106D10278401C03E01A
:1012600006780E70401C491C5B1EF9D12B0705D473
:101270000023521E0DD40B70491CFAE70378401C62
:10128000CB1A921C03E01D780D70491C5B1C521E8A
:10129000F9D5A142D8D3002070BD0000C10F89004C
:1012A000064A89188968C306DB0E01229A40114359
:1012B000C20F9200014BD21891607047000200509B
:1012C000F3B583B00C460398002809D13D48006A65
:1012D0000121C90488433B4908623B48029008E069
:1012E0003848006A0121C904084336490862374872
:1012F00002903748844204D84010844201D9002724
:1013000022E03448844205D84010844202D90127A3
:10131000640019E03048844205D84010844202D36A
:101320000327A40010E00398002803D12B48254987
:10133000086202E02A4823490862042000F0D6F936
:1013400000F0E2F805B0F0BD26492046FEF7F0FEB9
:10135000064624490298FEF7EBFE05460EE0E80734
:10136000C00F002807D1F007C00F002803D1022DBD
:1013700001D0022E00D102E06D087608EFE700BF31
:10138000B803A91E49020843B11E084301900D4845
:10139000006A010C0904019801430A480162006ACD
:1013A00005210904884307490862042000F09EF9DA
:1013B0007A1C6A431146029A72431046FEF7B8FE41
:1013C000C0E7000000020050001BB7000080510180
:1013D00000C2EB0B00E1F50580F0FA022EC200001E
:1013E0006FD6000040420F00024909680143014ADC
:1013F000116070470002005010B500F067FC014812
:10140000006810BD00000020FEB5002002901AA068
:10141000006800901948046A00132040002801D099
:101420000020FEBD0120C0042040002801D0144D42
:1014300000E0144D012040042040002801D028463F
:10144000EFE7032080032040800B69460A5C01928D
:10145000E005C00D861C1F2040022040400A871C6A
:10146000019A7A431146AA0872431046FEF760FEBD
:10147000800002900298D4E70102020400020050AA
:1014800000805101001BB700FEB5002002901AA099
:10149000006800901948046A00132040002801D019
:1014A0000020FEBD0120C0042040002801D0144DC2
:1014B00000E0144D012040042040002801D02846BF
:1014C000EFE7032080032040800B69460A5C01920D
:1014D000E005C00D861C1F2040022040400A871CEA
:1014E000019A7A431146AA0872431046FEF720FE7D
:1014F000800002900298D4E701020204000200502A
:1015000000805101001BB700FEB5002002901AA018
:10151000006800901948046A00132040002801D098
:101520000020FEBD0120C0042040002801D0144D41
:1015300000E0144D012040042040002801D028463E
:10154000EFE7032080032040800B69460A5C01928C
:10155000E005C00D861C1F2040022040400A871C69
:10156000019A7A431146AA0872431046FEF7E0FD3D
:10157000800002900298D4E70102020400020050A9
:1015800000805101001BB700FEB5002002901AA098
:10159000006800901948046A00132040002801D018
:1015A0000020FEBD0120C0042040002801D0144DC1
:1015B00000E0144D012040042040002801D02846BE
:1015C000EFE7032080032040800B69460A5C01920C
:1015D000E005C00D861C1F2040022040400A871CE9
:1015E000019A7A431146AA0872431046FEF7A0FDFD
:1015F000800002900298D4E7010202040002005029
:1016000000805101001BB70010B504461048844209
:1016100001D9044603E00F48844200D204460E4834
:101620000068C007C00F002805D021460020FFF742
:1016300047FE044605E021460120C004FFF740FEB6
:1016400004460021022000F009F8204610BD0000E9
:1016500080F0FA0240787D010002005070B5044627
:101660000D4608480069C008C000204305490861CC
:1016700008468069000900012843886100F026FBC4
:1016800070BD000000020050F0B50B4600210024A0
:101690000025C600360F002E0FD04600B60FB6004C
:1016A000114FF4192168C600370FC601F60EB74076
:1016B0000E46BE431E43314621608603360E002E81
:1016C00010D00603B60FB600074F0837F519296882
:1016D0008603360EF6438705FF0EBE400E401643C6
:1016E00031462960F0BD0000100200500146074A53
:1016F00005E01046521E002801DC00207047044817
:10170000C06808408842F4D10120F7E790D0030078
:10171000000200500348006840084000014908608A
:101720007047000000C000500348006810210843C3
:10173000014908607047000000C0005001462220A7
:101740000D4AD0601046416001201061BFF36F8FD9
:1017500000BF094800690028FBD107480068402203
:101760001040002805D04020034A10600020C043EC
:1017700070470020FCE7000000C0005003480068EC
:1017800001210843014908607047000000C0005073
:1017900001460020074AD0601046416001201061D8
:1017A000BFF36F8F00BF034800690028FBD10148D9
:1017B0008068704700C0005070B505460E46002492
:1017C00008E0A100032212058818FFF7E1FFA1003D
:1017D0006850641CB442F4D3002070BD70B5054657
:1017E0000E460020044625E0A20003231B05D01866
:1017F000A200A9582122114BDA601A46506091606C
:1018000001221A61BFF36F8F00BF00BF0B4A12693C
:10181000002AFBD100BFA100032212058818FFF7A0
:10182000B7FFA1006958884202D00020C04370BDB4
:10183000601C0446B442D7D30020F8E700C0005033
:101840000D48006A08210840002803D008200A49F2
:1018500008620FE00848006A0749086206484030FD
:10186000006A05494031086203488030006A024935
:1018700080310862704700008040005070B5034618
:1018800000200FE0012484400C40002C09D01C688B
:1018900046000325B540AC4346001546B5402C43F1
:1018A0001C60401C0828EDD370BD41690122114322
:1018B000416170470146C8687047000010B50D4887
:1018C000FFF7F8FF04460B484069C007C00F01212D
:1018D00048404840002803D00648FFF7E6FF07E0ED
:1018E00005480068002803D0204603490968884756
:1018F00010BD000000000240CC000020C206D20E45
:1019000001219140014A11607047000000E100E0B0
:1019100030B50146F0240C4022110B071B0F540177
:10192000024D64199D00601930BD00000042005056
:1019300030B583680D24A3430C46144308252C437B
:101940002343836030BD0000FFB581B004460A9F89
:1019500000260498202801D1002004900498C0009B
:101960000299084303990843206005200007006896
:10197000000F0007002808D0052000070068000FAE
:10198000000701210907884249D1FFF735FD0646C6
:10199000029800283FD1A060B7420FD10520000770
:1019A0000068000F000701210907884206D1E06B9B
:1019B00001210843E063304605B0F0BDB74205D3CE
:1019C0006068000C000460607008F5E7002F07D124
:1019D0006068000C0004564940186060700CEBE72A
:1019E00079000A2272431046FEF7A2FB401D0A212D
:1019F0000090FEF79DFB451E4D48854200D90546E7
:101A00006068000C000428436060681C4100304698
:101A1000FEF78EFBD0E71020A0603046CCE7E06BED
:101A20000121C9070843E0630298002867D1A0603C
:101A3000404884420DD14048406910210840102898
:101A400003D1FFF7D9FC064610E0FFF79DFD0646DF
:101A50000CE03948406920210840202803D1FFF7D5
:101A6000CBFC064602E0FFF78FFD0646B74203D3E4
:101A70000020606030469FE7002F0AD1E06B4000F5
:101A80004008E0636068000C0004FF306060700A8A
:101A900092E70A21714308463946FEF749FB401D8B
:101AA0000A210090FEF744FB451EFF2D1DD9E06B77
:101AB00040004008E06379000A2272431046FEF7B6
:101AC00037FB401D0A210090FEF732FB451EFF2D1B
:101AD00000D9FF256068000C000428436060681C82
:101AE00041003046FEF724FB66E76068000C000406
:101AF00028436060691C3046FEF71AFB5CE7102043
:101B0000A0600C48844207D10B48406910218843EB
:101B100010300949486106E00748406920218843A0
:101B200020300549486100206060304644E70000ED
:101B3000FFFF0000000003400002005010B5042029
:101B4000FFF752FC1020FFF7D1FD0120FFF74CFCFE
:101B50000120FFF7CBFD00210846FFF77FFD274856
:101B6000FFF752FD2648FFF799FB2548401CFFF779
:101B700095FB2448FFF792FB002211462048FFF70F
:101B800083FD002211461E48401CFFF77DFD002208
:101B900020211D48FFF778FD002211461948FFF764
:101BA00073FD1948FFF77AFB00F090F80520000755
:101BB000C06B1649084005210907C8630846C06B79
:101BC0000321084305210907C8630846006B104933
:101BD00008400521090708630846006B0B49C94303
:101BE00008430521090708630846006B0F21090314
:101BF000084305210907086310BD000080F0FA02C0
:101C0000103D80270200802E0D005022FCFCFFFFBB
:101C1000FCFCFFFC010E05221207891889680122CD
:101C200082401143020E05231B07D2189160010E5A
:101C30001A4689188A68012181408A43010EC91811
:101C40008A60704706E05920054908601620086040
:101C500088200860024800680128F4D1704700001D
:101C60000001005070B5044612480078012807D1E1
:101C7000234660221048017810A005F01AFC18E0F5
:101C8000F02005F0A5FC0C48007805F0A1FC15201B
:101C900005F09EFC204605F09BFC074800781530B7
:101CA000001945066D0E284605F092FCF72005F058
:101CB0008FFC70BD5E0000205C0000204725642082
:101CC000542564204525640D0A00000070B51248B3
:101CD000006945076D0FFFF797FB10490860022D5B
:101CE00003D0A8000E490C5801E00C4804680A48CB
:101CF00080690007000F461C31462046FEF718FA9F
:101D0000084908600849074800684A108018FEF72B
:101D10000FFA0649086070BD00020050080000205C
:101D2000F47600000000002040420F000400002074
:101D30007047000030B589B005462022194901A836
:101D4000FEF720FA1848854206D118484069072155
:101D500009020840040A1AE013482030854206D1DF
:101D600012484069072109030840040B0FE010489E
:101D7000854206D10D484069072109040840040C3A
:101D800005E00A484069072109050840040D022CB6
:101D900003D10848006809B030BDA00001A9085867
:101DA000F9E70000A07800000000014000020050A8
:101DB0000000114000000020FEB505460F46164603
:101DC0002846FFF7B7FF0446002001900090600806
:101DD000B04202D2022001901BE001208006844222
:101DE00003D307200090E4080EE00120400684425F
:101DF00003D303200090A40806E0012000068442DB
:101E000002D301200090640831462046FEF790F985
:101E1000019000983843286001986860009A521C2D
:101E20000198504301462046FEF782F9FEBD0000AE
:101E300000BF08488068C007C00F002809D000BF55
:101E400001200449886000BF03480068401C024923
:101E500008607047000001401800002010B50446DB
:101E600022460121C9060C48FFF7A6FF00BF0A4819
:101E700000680121490708430749086000BF00BF07
:101E800008460068890308430349086000BF08202A
:101E9000FFF734FD10BD00000000014010B500F058
:101EA000F1F810BD10B504460348FFF7B3FE214614
:101EB000024800F02FF810BD10000004000005409B
:101EC00010B500F023F910BD10B504460348FFF724
:101ED000A1FE2146024800F01DF810BD11000004CB
:101EE0000000154010B50948406801210843074922
:101EF00048600C20FFF702FD0548406801210843B7
:101F0000034948600D20FFF7F9FC10BD00000540B3
:101F100000001540F0B587B004460D46274801463D
:101F20000EC9C06803AE0EC6069000200290244879
:101F30004069032109060840060E214880690F21E7
:101F400009020840070A002020630320E060A0681F
:101F50001C490840A060012E04D1FFF795FAB1009A
:101F600003AA5050002D26D0B10003AA5058791C66
:101F7000FEF7DEF86908401829460190FEF7D8F808
:101F8000801E02901049029888420FD9B10003AA1E
:101F90005058791CFEF7CCF8E9004018294601900A
:101FA000FEF7C6F80009801E606204E003210907FD
:101FB00002980843606207B0F0BD0000707800002E
:101FC000000200500FFFF0FFFFFF0000FFB587B0D9
:101FD00004460D461746284801460EC9C06802AEA1
:101FE0000EC605900020019024484069032109068F
:101FF0000840060E214880690F2109020840000AA6
:102000000690012E04D1FFF73FFAB10002AA50500A
:10201000002D28D0B10002AA50580699491CFEF79D
:1020200087F86908401829460090FEF781F8801E5D
:10203000019013490198884210D9B10002AA505862
:102040000699491CFEF774F8E900401829460090EB
:10205000FEF76EF80009801E606204E003210907A4
:1020600001980843606238460A990843109908436A
:10207000E0600BB0F0BD000080780000000200506E
:10208000FFFF000008B5FF2100911B49C8698915B1
:10209000014000292ED027E017490968C9B20091F4
:1020A000164900228A5E802A17DA69460978144A9E
:1020B000144B1B88D154134909887F2901D1002171
:1020C00002E010490988491C0E4A11800B49098811
:1020D000491C09B2094A118006E00021074A118013
:1020E000084A1180084A11800349C969C907C90F04
:1020F0000029D1D108BD0000000005405600002095
:10210000D00100205A0000205800002008B5FF210F
:1021100000911B49C8698915014000292ED027E08C
:1021200017490968C9B20091164900228A5E802ABF
:1021300017DA69460978144A144B1B88D15413499D
:1021400009887F2901D1002102E010490988491C32
:102150000E4A11800B490988491C09B2094A1180AD
:1021600006E00021074A1180084A1180084A1180C0
:102170000349C969C907C90F0029D1D108BD0000A9
:10218000000015404A0000205002002050000020AE
:102190004E00002037B514460846064B6A462146D5
:1021A00000F072F904466946002000F009FD20465F
:1021B0003EBD0000C12B00002021020C01D01021E7
:1021C0001046020A01D010460839020901D0104613
:1021D000091F820801D01046891E420801D0881EBE
:1021E0007047081A704730B47446641E2578641C22
:1021F000AB4204D3635D5B00E31830BC18471D4657
:10220000F8E70000004870472C010020F8B50446AC
:102210004F1EC8000838211815461E460868496830
:102220003A4606239A4310D02A463346FEF7A6F9CB
:102230003A46D200083AA3181A687F1E5B68FEF778
:10224000EBF806223B469343EED1022F23D0042F16
:1022500011D0062F2FD12A463346FEF78FF9E36AB5
:10226000A26AFEF7D9F82A463346FEF787F9636A71
:10227000226AFEF7D1F82A463346FEF77FF9E36972
:10228000A269FEF7C9F82A463346FEF777F9636973
:102290002269FEF7C1F82A463346FEF76FF9E36874
:1022A000A268FEF7B9F82A463346FEF767F9636875
:1022B0002268FEF7B1F8F8BD002210B513461046AB
:1022C0000149FEF7C3F910BD0000F03F10B501222F
:1022D000FEF79AFC10BD002210B5134610461146B9
:1022E000FEF7B4F910BD0000014800687047000017
:1022F0002C01002002E008C8121F08C1002AFAD1F0
:1023000070477047002001E001C1121F002AFBD175
:102310007047000001490860704700002C01002050
:10232000F0B51FB484B007980699020D014314D08C
:102330004A484B491018484305140F9801280E9835
:102340001CD0281A401C0024464E47490094019195
:102350000290002814DA474227E00F98012443A393
:10236000012808D0002104980F9A84600360C2609D
:10237000416009B0F0BD0E98C143F4E74042E2E786
:10238000074612E0F80707D0224633460199009825
:10239000FEF7F4F8019100902246334610461946A4
:1023A000FEF7ECF804460E467F10002FEAD10298A3
:1023B000019B0028009A0799069802DAFEF7DEF8DA
:1023C00001E0FEF743F904460E460022284BFEF7D3
:1023D00049FA03D80020C043014607E00022254BFC
:1023E00020463146FEF718F8FEF776FC102409E087
:1023F000002C0ADB0A220023FEF778FA059B303214
:102400001A55641E02460A43F2D11122641C059B30
:10241000121B1C190F9B012B03D0012308430ED163
:102420000AE0084304D011200E9000200F9084E7AA
:102430000E98151A6D1E0BE00E98824202DD0023E5
:102440006D1C03E0824201DA00236D1E002BEED0EA
:1024500004980F998260C16030C08AE701FCFFFFD9
:10246000104D0000000024400000F03F300000004C
:102470000000F0430000E03F30380A2801D201207C
:102480007047002070470000FFB597B00646002552
:1024900018E2252877D100242746FD49049400E05E
:1024A0000443761C32780120203A90400842F7D14C
:1024B00030782A280ED00222307801463039092996
:1024C00016D804990A235943303940181443761C0E
:1024D0000490F1E7189802C804911890002904DAD2
:1024E0000120400304434842049002200443761C28
:1024F00030782E2814D1042004437078761C2A28C2
:1025000009D11898761C80C8189009E00A214F4319
:10251000303FC719761C3078014630390929F5D982
:1025200030786C2810D006DC4C281AD068280ED0E1
:102530006A2817D104E0742813D07A2812D110E049
:102540000120400504430CE00121090501E00321BD
:1025500009050C437178814203D10120000524183C
:10256000761C761C3078119066280BD013DC582826
:102570007DD009DC00287BD04528F6D04628F4D051
:1025800047281AD1A5E118E0632835D0642870D017
:10259000652812D19DE170286CD008DC6728F1D045
:1025A00069287BD06E280DD06F2806D1BAE0732839
:1025B0002ED0752871D0782859D01A9A1999904739
:1025C0006D1C7EE16002400F022809D003280DD067
:1025D0000428189801680DD00D60001D189070E156
:1025E0001898EA1701680D604A60F6E718980168C4
:1025F0000D80F2E70D70F0E718986A4601781172C5
:10260000001D18900020507202A80090012005E0E3
:10261000189802C8189000200091C04361070DD59A
:10262000002101E00199491C0191B94212DA81426D
:10263000F8DB009A515C0029F4D10BE0002101E0A5
:102640000199491C01918142FADB019A0099895C48
:102650000029F5D1019904981A9B471A214638465A
:10266000199A00F097FA0199401945180BE04FE0CC
:102670002CE113E04EE0009800990078491C00918D
:102680001A9A199990470198401E0190401CF2D166
:10269000214638461A9B199A10E137E00A2000219A
:1026A000009001916002410F022907D0189A01CAD7
:1026B0001892C2179446032908D00AE01898C01D42
:1026C000C108C90005C91891944607E000B2C217B5
:1026D0009446042902D140B2C1178C4600226146BB
:1026E000944506DA0A460021404291418C462D214C
:1026F00002E0210504D52B216A461173012103E074
:10270000E10701D02021F7E7029155E00A200AE015
:10271000102008E0102000900021042004430191C3
:10272000082703E008200021019100906002410F7A
:10273000022907D0189A01CA189200229446032948
:1027400008D008E01898C01DC108C90005C9189133
:10275000944603E080B2042900D1C0B20021029166
:10276000210729D51199702906D0009A1021019BC3
:102770004A401A4305D00EE040216A4611730121F8
:1027800008E06146014306D030216A461173119971
:10279000517302210291009A0821019B4A401A4379
:1027A0000AD16146014301D1610705D530216A464E
:1027B000117301217F1E02911199582904D035A16E
:1027C0000E910DA90D910DE037A1F9E76146019B2E
:1027D000009AFEF78BF80E9B8C469B5C0D9A521E5E
:1027E0000D92137061460143F0D10D9805A9081AA6
:1027F00020300190600703D501200004844300E0ED
:1028000001270198874201DD381A00E00020019974
:1028100000904118029809180498401A0490E003A7
:1028200006D421461A9B199A049800F0B3F9451969
:10283000002706E003A81A9AC05D199990476D1CFD
:102840007F1C02988742F5DBE0030CD521461A9BDA
:10285000199A049800F09EF9451904E01A9A30205C
:10286000199990476D1C0099481E00900029F5DCCD
:1028700008E00D980D990078491C0D911A9A199944
:1028800090476D1C0199481E01900029F1DC63E11D
:102890000928010030313233343536373839616236
:1028A00063646566000000003031323334353637FA
:1028B00038394142434445460000000000F05AF9CF
:1028C0004519761C3078002800D0E2E528461BB078
:1028D000F0BD600700D406271898C01DC108C900C4
:1028E00048680A680831C30FDB071891190001D046
:1028F0009CA108E0210501D59BA104E0E10701D0DE
:102900009AA100E09AA1430011985B0810916528F4
:102910000CD006DC452809D046281DD0472841D1D7
:1029200041E0662818D067283CD13CE00021112FF7
:1029300001DB112000E0781C0191009008A911A88A
:10294000FFF7EEFC139905910021119A15927F1C57
:1029500012980197009150E00120C00703900120D8
:10296000019008A9009711A8FFF7DAFC139A1499AF
:1029700005920022119B009212981593059A0192DC
:10298000002901D0104602E0791C40180190381A45
:1029900001D5019804E04042401E0090781C01904F
:1029A000C01B029043E0012F00DA01270021112F04
:1029B00001DD112000E038460191009008A911A81E
:1029C000FFF7AEFC13990591119A00211298159208
:1029D0000091019721070CD40599B94201DB0199B7
:1029E00000E00191012904DD159A491E515C30294E
:1029F00006D0B84201DA011D05DA0121029115E085
:102A00000199491EEDE7002805DC00994118009165
:102A10000199091A03E0019A411C914200DD0191DC
:102A20000099401A401C02900120C0070390200723
:102A300006D402990198814202DB0020C043029033
:102A400000206946C87707AF012103980337C907FB
:102A5000884224D0022011902B2012900398002845
:102A60000CDA404203902D20129007E00A210398CF
:102A7000FDF75EFB30317F1E039039701199481EBF
:102A800011900029F2DC03980028EFD1791E1298EA
:102A900008703078202108404530BF1E387006A8E5
:102AA000C01BC01D039010980078002800D00120A2
:102AB000019941180298C017091803980918049839
:102AC000401A401E0490E00306D421461A9B199A2E
:102AD000049800F05FF8451910980078002803D09A
:102AE0001A9A199990476D1CE00324D521461A9B28
:102AF000199A049800F04EF845191CE00098002837
:102B000007DB00990598884203DD1598405C199908
:102B100001E0199930201A9A904700986D1C401CCA
:102B200000900298401E0290002804D11A9A2E208C
:102B3000199990476D1C0199481E01900029DDDC10
:102B400005E038781A9A7F1C199990476D1C0399F3
:102B5000481E03900029F4DC21461A9B199A049818
:102B6000ACE600002D0000002B000000200000005B
:102B700000000000F8B5044600251E4617468804EC
:102B800004D405E039462020B0476D1C641EF9D5F9
:102B90002846F8BDFFB50446002581B01E46C8038F
:102BA00001D5302700E02027880404D505E0384609
:102BB0000399B0476D1C641EF9D5284605B0F0BDD9
:102BC0000A68531C0B601070704710B50024E44372
:102BD000142000F029F8044620B210BD10B50024DE
:102BE000E44301F041FF210D0C1A05480021415E2C
:102BF000641A002C02DA01200003241820B210BD50
:102C0000F800002010B50024E443132000F00CF875
:102C1000044620B210BD10B50024E443152000F096
:102C200003F8044620B210BD00B50246104601F07C
:102C300086FB002801D1401E00BD474840690C2199
:102C4000884345494861084680698861084680682C
:102C5000C904084340498860012040490862104681
:102C600010380300FFF7BFFA060454142434445408
:102C700005200007406B012108430521090748632F
:102C80003648406A000A0002401C3449486240E06D
:102C900005200007406B042108430521090748630C
:102CA0002E48406A000A0002001D2C49486230E0AC
:102CB00005200007406B08210843052109074863E8
:102CC0002648406A000A000208302449486220E091
:102CD00005200007406B10210843052109074863C0
:102CE0001E48406A000A000210301C49486210E089
:102CF00005200007406B2021084305210907486390
:102D00001648406A000A000220301449486200E078
:102D100000BF00BF0120114908630846006A012175
:102D2000C90208430D49086200BF0C48006BC00788
:102D3000C00F0028F9D00948006A0121C902884360
:102D400006490862012008631046103880004018C8
:102D500000680005000D6FE70002005000000E4003
:102D60003EB50446284881780291C17801916846B1
:102D7000007A0F304106490E68460079814203D03F
:102D80001320FEF76FFF3EBD6846007A401C1F49C6
:102D90000870F02004F01CFC1C48007804F018FCBB
:102DA000102004F015FC1A48007804F011FC1748B4
:102DB000007810301649097840184106490E0091F4
:102DC0006846007804F004FCF72004F001FCF020D1
:102DD00004F02AFCFF2004F027FC102004F024FC5F
:102DE0000A48007804F020FC084800780F304106BB
:102DF000490E00916846007804F016FCF72004F0B4
:102E000013FC00BFBFE70000D00200205C000020E0
:102E10005D00002030B583B00446FFF765FA054633
:102E2000002000900246019021466846FDF7DDFD36
:102E30002846FFF76FFA0199009803B030BD0000F3
:102E4000F1B584B00498FDF785FC04460022084BD8
:102E5000FDF794FB0022074B01910090FDF7F6FB74
:102E60000646FDF713FD0290029805B0F0BD000084
:102E700000C8A9400000B040F0B589B00746384608
:102E8000FDF75CFC04462046FDF7C4FC02460B46F9
:102E90000591049000203C49FDF7D8FB054600222F
:102EA0003A4BFDF75DFB07910690FDF7EFFC0446FA
:102EB00037490020085EFDF741FC05462146FDF735
:102EC0006CFA044633490020085EFDF737FC0546DE
:102ED00029462046FDF761FA08900898FDF79AFC0C
:102EE0000791069001F03CFA0546FDF7CFFC0890EB
:102EF00029490020085EFDF721FC0546294608986F
:102F0000FDF74BFA089025490020085EFDF722FCEA
:102F10000546234A234BFDF77FFA02460B460191F3
:102F2000009000201949FDF791FB05910490089845
:102F3000FDF770FC03910290059B049AFDF76CFA73
:102F400007910690FDF7A2FC08900898FDF762FC37
:102F500002460B460791069000200C49FDF776FBD0
:102F60000546FDF793FC08900898FDF753FC0C4AC2
:102F70000C4B07910690FDF7F3FA0546FDF786FC2A
:102F80000890089809B0F0BD00FEAF400000F03F87
:102F90001E01002022010020200100201C01002031
:102FA0006666666666127140F1B582B00298FDF7FA
:102FB000D1FB0446044A054BFDF7E0FA0646FDF74F
:102FC00065FC01900198FEBDFCA9F1D24D62803FE5
:102FD000F1B58AB03F48006807B23F48079008AA99
:102FE0003EA10A98FDF7F2F8044618E008AA3BA1B2
:102FF0000020FDF7EBF804462078412804D1601C3E
:10300000FDF71BF907B20AE02078532807D1601CAE
:10301000FFF700FF05910490FDF738FC0790002CA6
:10302000E4D13803FDF796FB00222D4B039102906B
:10303000FDF70CFB0022134605910490FDF712FCEE
:1030400013D83803FDF786FB0022254B0191009031
:10305000FDF7FCFA0022234B03910290FDF7DCF907
:1030600005910490FDF7B2FB12E03803FDF772FB07
:1030700000221B4B01910090FDF7E8FA0022194B4A
:1030800003910290FDF76CFA05910490FDF79EFB09
:103090000690FDF75FFB05460E4613490798FDF7BE
:1030A00011FC01D2104807E00B490798FDF714FC0A
:1030B00001D2094800E00798079028463146FDF7FD
:1030C00085FB0690079903F035FE0F20FEF7CAFD39
:1030D0000BB0F0BDD800002000002042200000000E
:1030E000008076400000E03F000020C2F1B58AB0C9
:1030F0003F4807683F48079008AA3FA10A98FDF794
:1031000065F8044618E008AA3BA10020FDF75EF828
:1031100004462078412804D1601CFDF79BF807463F
:103120000AE02078532807D1601CFFF773FE059151
:103130000490FDF7ABFB0790002CE4D13803FDF7BA
:1031400009FB00222D4B03910290FDF77FFA00222C
:10315000134605910490FDF785FB13D83803FDF75E
:10316000F9FA0022254B01910090FDF76FFA002239
:10317000234B03910290FDF74FF905910490FDF761
:1031800025FB12E03803FDF7E5FA00221B4B019105
:103190000090FDF75BFA0022194B03910290FDF7B6
:1031A000DFF905910490FDF711FB0690FDF7D2FAC7
:1031B00005460E4613490798FDF784FB01D21148D6
:1031C00007E00C490798FDF787FB01D2094800E0AA
:1031D0000798079028463146FDF7F8FA06900799B8
:1031E00003F0A8FD0F20FEF73DFD0BB0F0BD000081
:1031F000D80000200000204220000000008076401F
:103200000000E03F000020C2FEB507461D4E02AAA6
:103210001DA13846FCF7DAFF044618E002AA1AA1FD
:103220000020FCF7D3FF04462078502804D1601C0E
:10323000FDF703F805B20AE02078532807D1601C97
:10324000FFF7E8FD01910090FDF720FB0646002CFA
:10325000E4D10E493046FDF735FB01D20B4807E0BB
:1032600008493046FDF738FB01D2064800E03046F9
:1032700006463146284603F05DFD0F20FEF7F2FCBE
:10328000FEBD00000000204220000000000020C21F
:10329000F8B506466A4613A13046FCF797FF044688
:1032A000002C05D06A460FA10020FCF78FFF0446D2
:1032B0002078442803D1601CFCF7BFFF45B2681C8E
:1032C00009490870094802780846017808A004F006
:1032D000F0F805480378FF2209A10D4804F0FCF836
:1032E000F8BD0000200000005C0000205D00002010
:1032F000472564204D3130205425640D0A0000001C
:10330000472564204D3130204425640D0A0000001B
:1033100000001540F0B585B027480068FDF71AFA9F
:1033200004460022254BFDF729F90022244B039186
:103330000290FDF78BF9064600221346FDF792FA3C
:1033400018D81D480068FDF705FA064600221B4BF9
:10335000FDF714F904460022194BFDF777F9002216
:10336000184B01910090FDF757F803910290FDF77B
:103370002DFA17E010480068FDF7ECF9044600222A
:103380000E4BFDF7FBF8064600220D4BFDF75EF9EC
:1033900000220C4B01910090FDF7E2F8039102909E
:1033A000FDF714FA024604900748017807A004F0DC
:1033B00080F805B0F0BD0000D80000200080764005
:1033C0000000B0400000E03F5C0000204725642082
:1033D0004D33362041256C640D0A0000F8B50746D0
:1033E00008490020085EFFF72BFD0646FDF712FA9C
:1033F000044622460B460448017804A004F059F81C
:10340000F8BD0000840000205C00002047256420F7
:103410004D382049252E32660D0A000010B50446AD
:1034200004480022825E0448017804A004F041F8B8
:1034300010BD0000780000205C00002047256420BB
:103440004D35205025640D0A0000000070B5064679
:1034500006480068FDF7DEF9044622460B4604489C
:10346000017804A004F025F870BD00008800002059
:103470005C000020472564204D362053252E3266FF
:103480000D0A0000F8B5074608490020085EFFF75E
:10349000F3FC0646FDF7BEF9044622460B460448F7
:1034A000017804A004F005F8F8BD00007C000020BD
:1034B0005C000020472564204D372054252E3266BD
:1034C0000D0A0000F8B5074608490020085EFFF71E
:1034D0006BFD0646FDF79EF9044622460B4604485E
:1034E000017804A003F0E5FFF8BD00008000002093
:1034F0005C000020472564204D392056252E326679
:103500000D0A000010B50446034A0448017804A0DF
:1035100003F0CFFF10BD00005F0000205C00002022
:10352000472564204D3132205625730D0A000000D6
:10353000F1B58AB03F48006807B23F48079008AA33
:103540003EA10A98FCF742FE044618E008AA3BA1F7
:103550000020FCF73BFE04462078412804D1601C83
:10356000FCF76BFE07B20AE02078532807D1601CF5
:10357000FFF750FC05910490FDF788F90790002CA7
:10358000E4D13803FDF7E6F800222D4B03910290B9
:10359000FDF75CF80022134605910490FDF762F9EF
:1035A00013D83803FDF7D6F80022254B019100907F
:1035B000FDF74CF80022234B03910290FCF72CFFFF
:1035C00005910490FDF702F912E03803FDF7C2F807
:1035D00000221B4B01910090FDF738F80022194B97
:1035E00003910290FCF7BCFF05910490FDF7EEF803
:1035F0000690FDF7AFF805460E4613490798FDF70C
:1036000061F901D2104807E00B490798FDF764F90A
:1036100001D2094800E00798079028463146FDF797
:10362000D5F80690079903F079FB0F20FEF71AFBF7
:103630000BB0F0BDD80000200000204220000000A8
:10364000008076400000E03F000020C2F1B58AB063
:103650003F4807683F48079008AA3FA10A98FCF72F
:10366000B5FD044618E008AA3BA10020FCF7AEFD1A
:1036700004462078412804D1601CFCF7EBFD06903D
:103680000AE02078532807D1601CFFF7C3FB05919F
:103690000490FDF7FBF80790002CE4D13803FDF708
:1036A00059F800222D4B03910290FCF7CFFF002226
:1036B000134605910490FDF7D5F813D83803FDF7AC
:1036C00049F80022254B01910090FCF7BFFF002232
:1036D000234B03910290FCF79FFE05910490FDF7A8
:1036E00075F812E03803FDF735F800221B4B019105
:1036F0000090FCF7ABFF0022194B03910290FCF7FE
:103700002FFF05910490FDF761F80690FDF722F870
:1037100005460E4613490798FDF7D4F801D2114823
:1037200007E00C490798FDF7D7F801D2094800E0F7
:103730000798079028463146FDF748F80690079904
:1037400003F0ECFA0F20FEF78DFA0BB0F0BD00008D
:10375000D8000020000020422000000000807640B9
:103760000000E03F000020C2FEB507461D4E02AA41
:103770001DA13846FCF72AFD044618E002AA1AA14A
:103780000020FCF723FD04462078502804D1601C5B
:10379000FCF753FD05B20AE02078532807D1601CDE
:1037A000FFF738FB01910090FDF770F80646002CFA
:1037B000E4D10E493046FDF785F801D20B4807E009
:1037C00008493046FDF788F801D2064800E0304647
:1037D00006463146284603F0A1FA0F20FEF742FACA
:1037E000FEBD00000000204220000000000020C2BA
:1037F00010B5044600F0BCFA0C4908700846007881
:10380000C007C00F087008460078313008490871B9
:1038100002F044F90020074908706020064908704A
:10382000034A06A1074803F057FE10BD5E000020C2
:103830005F0000205C0000205D0000205625730D15
:103840000A00000000000540FEB507463B4E02AAF4
:103850003BA13846FCF7BAFC044618E002AA38A19E
:103860000020FCF7B3FC04462078432804D1601CF8
:10387000FCF7E3FCC5B20AE02078532807D1601CAE
:10388000FFF7C8FA01910090FDF700F80646002CFA
:10389000E4D12A493046FDF71FF804D329493046C0
:1038A000FDF710F800D2254E002D3FD126490868BB
:1038B000C117090D091809130903411A224A116099
:1038C00010460068002802DD1046006802E01E482D
:1038D000006840420121C90288420ADD1A48006896
:1038E000002806DD184800684900401A164908609B
:1038F00017E015480068002802DD1348006802E060
:103900001148006840420121C902884209DD0E4881
:103910000068002805DA0C480068490040180A4988
:1039200008600020094908600949088031460020E4
:1039300003F000FA0F20FEF795F9FEBD00002042CB
:1039400020000000000020C2D8000020E400002079
:10395000F4000020F8B506466A4614A13046FCF78C
:1039600035FC0446002C05D06A4610A10020FCF767
:103970002DFC04462078432813D1601CFCF75DFC25
:10398000C5B2681EC507ED0F284600F0D5FA00281D
:1039900003D10F20FEF766F906E01120FEF762F969
:1039A00002E01320FEF75EF9F8BD000020000000E1
:1039B00010B5044602F002F9002803D10F20FEF7EB
:1039C00051F902E01120FEF74DF910BDF8B5064699
:1039D00000256A4617A13046FCF7F8FB04460CE0C8
:1039E0006A4614A10020FCF7F1FB04462078532816
:1039F00003D1601CFCF721FC05B2002CF0D1FE20A5
:103A0000C043854200DA04E0FF2D01DDFF2000E025
:103A1000284605460121362000F0EAF80120064933
:103A20000880064805800020054908700F20FEF731
:103A300019F9F8BD20000000FA000020FC00002069
:103A4000D5000020F1B582B001AA19A10298FCF7B7
:103A5000BDFB04461CE001AA15A10020FCF7B6FB43
:103A600004462078522804D1601CFCF7E6FBC5B25E
:103A70000EE02078472804D1601CFCF7DEFBC6B2BC
:103A800006E02078422803D1601CFCF7D6FBC7B2C1
:103A9000002CE0D107480570467087703A463146E1
:103AA000284603F021F90F20FEF7DCF8FEBD0000E8
:103AB00020000000D0000020F8B506466A460DA19F
:103AC0003046FCF783FB0446002C05D06A4609A16A
:103AD0000020FCF77BFB04462078422803D1601CC1
:103AE000FCF7ABFBC5B2284602F092FC0F20FEF7B4
:103AF000B9F8F8BD2000000010B5044601200449C3
:103B000008700020034908800F20FEF7ABF810BDB5
:103B100047000020FE00002010B504460D488078C4
:103B2000012813D10B48C07802280FD10948007929
:103B300003280BD107484079042807D1054880792C
:103B4000052803D10F20FEF78DF802E01120FEF7C3
:103B500089F810BDD002002070B5044600F092FE36
:103B6000054600BF00F08EFE401BA042FAD970BD92
:103B700010B503F0BDFA16480068164908601648EB
:103B80000078602823D11548007801281CD01448FB
:103B90000078012818D0134B9A785978187803F0D8
:103BA000A3F811480088002803D101F053F9044616
:103BB00006E00D480088012802D10C480024045F6B
:103BC000204603F075FA02E0012002F021FC10BD4E
:103BD000F0000020880000205D000020D4000020BC
:103BE00047000020D0000020FA000020FC00002048
:103BF00030B505460C462846FDF78AFE046030BD08
:103C0000F1B584B00498FCF7A5FD0446104A114BA9
:103C1000FCF7B4FC019100900F480068FCF7FAFD36
:103C200004460E4A0E4BFCF7A9FC0646019B009A7F
:103C3000FCF7F2FB03910290FCF728FE06490860AE
:103C400008460068FCF7A8FD00B205B0F0BD000012
:103C5000666666666666D63F24010020CDCCCCCC75
:103C6000CCCCE43F0EB5002000904049496908469D
:103C70000C30042202A903F0B7FA002847D13B49CF
:103C8000496908461430042201A903F0ADFA00285E
:103C90003DD1019902984018401C002809D13349B0
:103CA0004969084610300422694603F09DFA00284D
:103CB00059D02E4949690C31C81DFF30FA30042211
:103CC00002A903F091FA00284DD12849496914311D
:103CD000C81DFF30FA30042201A903F085FA00283C
:103CE00041D1019902984018401C00280BD11F496E
:103CF00049691031C81DFF30FA300422694603F0CB
:103D000073FA00282FD0002003F0FEFB2BE01749A8
:103D100049690C31C81DFF30FA30042202A903F0B2
:103D200063FA00281CD1114949691431C81DFF30BC
:103D3000FA30042201A903F057FA002810D10199A2
:103D400002984018401C00280DD1084949691031DB
:103D5000C81DFF30FA300422694603F045FA02E03C
:103D6000002003F0D1FB00980EBD000000C0005001
:103D70000EB5002000903C494869042202A903F0D6
:103D800033FA002844D138494969084608300422EA
:103D900001A903F029FA00283AD1019902984018A4
:103DA000401C002808D130494969081D0422694691
:103DB00003F01AFA002855D02B494969C81DFF3075
:103DC000FA30042202A903F00FFA00284AD126494A
:103DD00049690831C81DFF30FA30042201A903F0F7
:103DE00003FA00283ED1019902984018401C00288F
:103DF0000AD11D494969C81DFF30FE3004226946B9
:103E000003F0F2F900282DD0002003F01BFC29E07C
:103E100015494969C81DFF30FA30042202A903F090
:103E2000E3F900281BD1104949690831C81DFF304A
:103E3000FA30042201A903F0D7F900280FD1019923
:103E400002984018401C00280CD107494969C81D38
:103E5000FF30FE300422694603F0C6F902E000207C
:103E600003F0F0FB00980EBD00C000503EB50446C4
:103E70000025002000902F49496908460C30042293
:103E800002A903F0B1F900281ED12A494969084660
:103E90001430042201A903F0A7F9002814D1254900
:103EA0004969084610300422694603F09DF900284C
:103EB0000AD1019902984018401C002804D10098AA
:103EC000A04201D128463EBD1A4949690C31C81D9E
:103ED000FF30FA30042202A903F086F9002822D12B
:103EE000144949691431C81DFF30FA30042201A970
:103EF00003F07AF9002816D10E4949691031C81D1E
:103F0000FF30FA300422694603F06EF900280AD126
:103F1000019902984018401C002804D10098A04242
:103F200001D12846CFE7204603F0EEFA05462846A1
:103F3000C9E7000000C000503EB50446002500203F
:103F400000902C494869042202A903F04DF9002889
:103F50001DD12849496908460830042201A903F007
:103F600043F9002813D123494969081D04226946F1
:103F700003F03AF900280AD1019902984018401C30
:103F8000002804D10098A04201D128463EBD19491D
:103F90004969C81DFF30FA30042202A903F024F950
:103FA000002821D1134949690831C81DFF30FA3072
:103FB000042201A903F018F9002815D10D49496917
:103FC000C81DFF30FE300422694603F00DF90028B9
:103FD0000AD1019902984018401C002804D1009889
:103FE000A04201D12846D1E7204603F02BFB05462D
:103FF0002846CBE700C0005000200EE00B49095CCA
:104000000B4A116000BF0B49896901221207114058
:10401000090F0029F7D0411CC8B207490988884216
:10402000ECDB0021044A118070470000D002002020
:1040300000001540000005404800002008B5FF20A2
:10404000009034480078012800D108BD00F01AFC27
:104050003149086054E0314831490988405C00909A
:1040600030480078002803D168460078F02807D04F
:104070002C480078012806D168460078472802D1EC
:10408000012029490870684600782849086000BF67
:1040900026488069012109070840000F0028F7D051
:1040A0001F4800887F2801D1002002E01C480088BA
:1040B000401C1B4908801E480088401E00B21C4955
:1040C000088018480078002803D168460078F7284F
:1040D00007D014480078012807D1684600780A28DC
:1040E00003D100201049087010E000F0CBFB0A4912
:1040F0000968401AC82803D900200B49087005E058
:10410000074800880B4909888842A4D100BF00BF36
:104110009BE70000460000209C000020500100208A
:10412000520000205E0000204500002000000540F5
:104130004C0000205400002008B5FF2000903448B7
:104140000078012800D108BD00F09CFB31490860CF
:1041500054E0314831490988405C0090304800788B
:10416000002803D168460078F02807D02C48007852
:10417000012806D168460078472802D10120294944
:104180000870684600782849086000BF26488069A2
:10419000012109070840000F0028F7D01F480088B8
:1041A0007F2801D1002002E01C480088401C1B49E8
:1041B00008801E480088401E00B21C49088018482C
:1041C0000078002803D168460078F72807D0144803
:1041D0000078012807D1684600780A2803D100201A
:1041E0001049087010E000F04DFB0A490968401AB8
:1041F000C82803D900200B49087005E0074800884B
:104200000B4909888842A4D100BF00BF9BE700008A
:104210004500002098000020500200204E000020A1
:104220005E00002046000020000005404A000020FB
:1042300050000020F0B585B036480078602867D17E
:1042400035480068FCF786FA0022344B039102904F
:10425000FCF794F906460022314BFCF7F7F90446C7
:1042600000221346FCF7FEFA18D82B480068FCF72A
:1042700071FA04460022294BFCF780F90022284BF2
:1042800001910090FCF7E2F906460022254BFCF76D
:10429000C3F803910290FCF799FA17E01E480068F2
:1042A000FCF758FA064600221C4BFCF767F9044657
:1042B00000221B4BFCF7CAF900221A4B0191009017
:1042C000FCF74EF903910290FCF780FA164908605A
:1042D00011490968002902DD0F49096802E00E4909
:1042E000096849420846C917090D09180913090345
:1042F000411A09B20D4A1180FEF784FC0C4908806E
:10430000FEF789FC0B490880FEF75FFC0A4908802C
:1043100005B0F0BD5D000020D80000200080764090
:104320000000B0400000E03F900000207800002036
:104330007C0000208000002084000020704701469F
:10434000102907D0122905D0132903D0142901D030
:10435000152901D1012070470020FCE77047704704
:10436000F0B5C54A00248FB091420ADA4B005B08D1
:10437000934206D801254A006D05EA4205D100287E
:1043800003D0FDF7A3FF0FB0F0BD01252D05A94215
:1043900019DA034308D0002910DA0120FDF7BAFF2B
:1043A000FDF799FF0FB0F0BD0220FDF7B3FFFDF759
:1043B00083FF0122D20751400FB0F0BD3524E44302
:1043C0003622FCF721FC0A15AC4B1219D4180A034B
:1043D000120BAB49AB4B56182E4031465940114396
:1043E0000192321512190B920022FCF7B9F8019ACA
:1043F0000446921C1003A44E000B0D467E44032875
:1044000060D2204673683268FCF718FA1CD10B980A
:10441000002815D0FCF79EF904460E469B4A9C4B9B
:10442000FCF7ACF80D4607469A4A9B4B20463146AE
:10443000FCF7A4F83A462B46FBF7EEFF0FB0F0BDB1
:10444000716830680FB0F0BD944A954B20462946FC
:10445000FCF794F80022934BFCF788F806460F46C9
:1044600022462B4610461946FCF788F832463B4652
:10447000FCF784F806460B980F4600281DD0FCF781
:1044800069F9824A824B05910490FCF777F832462D
:104490003B46FCF76BF822462B46FCF761F80446D6
:1044A0000D467C4A7C4B05990498FCF767F8224638
:1044B0002B46FCF755F80FB0F0BD0B4632462046B0
:1044C0002946C4E0012300229B072046FBF7A4FFF6
:1044D00002460B4620462946FCF7B8F806460F462A
:1044E0000B98FCF737F932463B460591049010468D
:1044F0001946FCF743F809910C906B490198099B08
:10450000421800920C9A19461046FCF737F80246FA
:1045100007910A90654901980B1A65480193032198
:104520007844079BFDF772FE079B0A9AFCF726F872
:104530000E905F480D9104217844079B0A9AFDF77D
:1045400065FE099B0C9AFCF719F8019B009A1A4327
:1045500000920D9B0E9AFBF75FFF009A01910C9061
:10456000002A4DDD0022D24320462946FCF74CFBB1
:1045700022462B46FCF702F800910A900B9800287F
:104580002BD0424A424B05990498FBF7F7FF07915D
:104590000E90019B0C9A00990A98FBF73DFF32465A
:1045A0003B46FBF7EBFF079B0E9AFBF735FF009BA3
:1045B0000A9AFBF7DBFF22462B46FBF7D1FF0446A6
:1045C0000D46344A344B05990498FBF7D7FF224631
:1045D0002B46FBF7C5FF0FB0F0BD019B0C9A0A9864
:1045E000FBF71AFF32463B46FBF7C8FF009B0A9ACF
:1045F000FBF7BCFF22462B46FBF7B8FF0FB0F0BD20
:104600000B98002827D0214A214B05990498FBF7E5
:10461000B5FF0791009020462946019B0C9AFBF7B5
:104620009FFF32463B46FBF7A9FF079B009AFBF72B
:1046300097FF22462B46FBF793FF04460D46154A8B
:10464000154B05990498FBF799FF22462B46FBF77B
:1046500087FF0FB0F0BD0B46204629460C9AFBF7AA
:104660007FFF32463B46FBF789FF22462B46FBF78E
:104670007DFF0FB0F0BD00000000F07F01FCFFFFE8
:10468000645F09000000F03FF8340000763C7935A3
:10469000EF39EA3D0000E0FE422EE63F5555555504
:1046A0005555D53F0000E03F86EBF9FF51B80600B5
:1046B0009C3300001CB5002001900021102000F068
:1046C0007BFE0021122000F077FE0121342000F053
:1046D00073FE0121352000F06FFE00BF06E0592077
:1046E0004F49086016200860882008604C48006820
:1046F0000128F4D100BFFDF721FA00BF002048498E
:10470000086000BFE1204002FDF7CCFBE120400241
:10471000FDF7DAFB002003460322E1214902009065
:104720004048FDF753FC002003460322E1214902E3
:1047300000903D48FDF74AFCFDF7D4FB3B48FDF7F0
:104740008DFB0820FCF7AAFD00F07AF901F0F0FDDE
:10475000FFF70EFB3649087008460078C007C00F07
:10476000087008460078313032490871FFF77AFA4C
:1047700000B23149088001F091F900202F490870FA
:1047800060202F4908703220FFF7E6F9294A2DA151
:10479000244802F0A1FE42E000F06CFAFFF7CCFCE6
:1047A000FFF74CFCFFF746FD00F06CF82749086066
:1047B0000846006826490968401A092822D9234872
:1047C000006823490968401A224908601F480068A8
:1047D0001F4908602048007801280FD11F48008831
:1047E0000A2807DAFF231A461946FF20F53001F0A0
:1047F000D9FD05E000201849087001E000F050F8EC
:10480000FFF7B6F900F03EF815490968401A282864
:1048100005D900F037F81249086001F0E1FABBE76A
:10482000000100500000054000001540A086010076
:104830005E0000205F000020F80000205C000020E7
:104840005D0000205625730D0A0000000C000020BA
:1048500010000020E800002047000020FE0000209B
:1048600014000020F8B506460C4617461D46321BBC
:10487000069B5B1B5A431046391BFBF76FFC401924
:10488000F8BD000010B5642102480068FBF750FC39
:1048900010BD0000180000207047704770470000EE
:1048A000F8B5FEF7AFF90546FBF748FF0446FEF7FB
:1048B0008CF90546FBF742FF0746FEF7ACF90546C3
:1048C000FBF73CFF009052480088401C504908808C
:1048D00050480088401C4F4908804F480088401CC1
:1048E0004D4908802046FBF757FF05B22846FEF7E2
:1048F000C3FA04463846FBF74FFF05B22846FEF7D9
:104900009FFA07460098FBF747FF05B22846FEF7D7
:104910004BFB009041492046FBF7DEFF04D24048A4
:104920000088401C3E4908803A4800881921490106
:10493000884211D100203749088039480088FF217A
:104940009131884205DD012001F062FD01203549E9
:10495000087000203249088032480078012807D1C9
:1049600000231A46FF21FF20F53001F01BFDF8BDA2
:104970000098FBF74FFF054600222B4BFBF75EFF2D
:1049800004D32A490098FBF7A7FF04D228480088DF
:10499000401C274908802048008819214901884285
:1049A00011D100201C49088021480088FF21913145
:1049B000884205DD012001F02BFD01201949087016
:1049C00000201B4908801B493846FBF785FF04D2AD
:1049D00019480088401C184908800D480088192192
:1049E0004901884211D100200949088012480088F5
:1049F000FF219131884205DD012001F009FD0120F0
:104A00000849087000200C49088000BFAFE700008B
:104A10000C01002012010020060100200000A0422D
:104A200014010020D40000200000144000002041A8
:104A3000080100200080BB440E0100207047704731
:104A400008B5074810230422002100900548FCF710
:104A50007BFF002201210348FCF76AFF08BD00002C
:104A6000808D5B0000400340124880680C22904318
:104A7000012210430F4A9060002010621046006827
:104A8000012210430B4A106000BF0A480068C007AB
:104A9000C00F0028F9D107480169081141000548F5
:104AA00080680822904305221043024A906008B2B1
:104AB00070470000004003407047000006498842EC
:104AC00002DD0649411A08B203494942884202DA26
:104AD000090D411808B27047FF070000FF0F0000E2
:104AE000F8B5064600273046FBF7A7FBC4B22148BD
:104AF0000078002806D11020FDF7B4F801201D49E8
:104B00000870F8BD00201B490870FF2C03D01A481C
:104B10000078844221D119A13046FBF77DFB054680
:104B2000002D16D016494919481CFBF786FBC7B261
:104B3000FF2C09D10A2F07D0472002F075FDFFF79F
:104B40005BFA0A2002F070FD0D49481900F01AF8CE
:104B500002E01220FDF786F807E0472002F064FD2E
:104B6000FFF74AFA0A2002F05FFD012001490870B0
:104B700000BFC6E7440000205C0000204D0000009C
:104B8000D002002070B50446601CFBF756FBC5B28E
:104B90002B00FDF728FB266C14181C2024282C3031
:104BA00034383C406C6C6C6C6C6C44486C6C6C6C59
:104BB0006C6C6C6C6C4C5054585C6064686C204637
:104BC000FEF722FB54E02046FEF7CEFD50E02046E3
:104BD000FEF772FF4CE02046FEF734FF48E0204627
:104BE000FEF71CFC44E02046FEF730FC40E0204687
:104BF000FEF748FC3CE02046FEF7F0FB38E020469C
:104C0000FEF760FC34E02046FEF742FB30E0204631
:104C1000FEF7EEFD2CE02046FEF774FC28E020466F
:104C2000FEF798FE24E02046FEF766FF20E02046CF
:104C3000FEF7BEFE1CE02046FEF7CAF918E020464B
:104C4000FEF776FC14E02046FEF750FA10E020460E
:104C5000FEF7FCFC0CE02046FEF7B8FE08E020461C
:104C6000FEF758FB04E02046FEF7EEFD00E000BF33
:104C700000BF70BD08B5FF200090CAE069486A49CE
:104C80000988405C00906948007800287ED1684817
:104C9000007801281ED168460078F72805D1002049
:104CA0006349087000F0C2FBA2E0684600786149E1
:104CB000614A1288885460480088401C5E49088018
:104CC000084600887F28EFDD0020594908705A49BE
:104CD00008808DE068460078F02806D1012054490C
:104CE000087000205449088082E054480078012868
:104CF00041D1684601784F484F4A128881544E4846
:104D00000088401C4C4908800846008805286FD15F
:104D100000204A49087048490880464800785528CC
:104D200066D144484078032862D14248C0780128BF
:104D30005ED14048007900285AD100BFFF21404A87
:104D40001160552111603B4989781160042111607F
:104D50000921116000BF05E03A49095C384A116039
:104D6000411C08B20928F7DB0D21354A11600A21E0
:104D700011603DE00AE068460078FF2838D1012044
:104D80002E49087000202C49088031E0274800781F
:104D900001282DD12C48007800281FD068460078C3
:104DA0000A2806D10020284908702248FFF798FEFB
:104DB0001EE0684600781F491F4A128888541E4822
:104DC0000088401C1C490880084600887F280FDDA9
:104DD00000201D4908701849088009E068460078DD
:104DE000472805D101201849087000201249088081
:104DF0000D4800887F2801D1002002E00A48008881
:104E0000401C0949088011480088401E00B20F4923
:104E10000880054800880E490988884200D02DE79F
:104E200008BD0000D0010020580000205E000020D6
:104E300040000020D0020020480000204100002057
:104E4000000005405F0000204300002056000020C5
:104E50005A000020F0B58BB08121C905FE480068DA
:104E6000FBF75EFA079001F02DFF002802DD01F04C
:104E700029FF02E001F026FF40420646FBF75EFCF8
:104E800005460799FBF728FD77D80021F34800680D
:104E9000FBF722FD02D2F148006804E0EF48006809
:104EA0000121C90748400546EB4801682846FBF741
:104EB0002FFA044600212046FBF704FD5ED001F0E6
:104EC00001FF00285ADD00212046FBF705FD01D235
:104ED000204603E020460121C90748400546E04836
:104EE00001682846FBF7F8FC1ED200212046FBF79C
:104EF000F3FC01D2204603E020460121C9074840C7
:104F0000014607902046FBF748FA0646D448016858
:104F10003046FBF705FA0546D14801692846FBF7FC
:104F2000FBF9CF4908618BE000212046FBF7D4FC58
:104F300001D2204603E020460121C907484001462E
:104F400006902046FBF729FA064600212046FBF78B
:104F5000C3FC01D2204603E020460121C907484096
:104F600031460790FBF7DCF90546BD480169284644
:104F7000FBF7D2F9BA49086162E07CE000212046E3
:104F8000FBF7A0FC5CD001F09DFE002858DA002160
:104F90002046FBF7A1FC01D2204603E02046012178
:104FA000C90748400546AE4801682846FBF794FC0F
:104FB0001ED200212046FBF78FFC01D2204603E0E1
:104FC00020460121C9074840014607902046FBF7CB
:104FD000E4F90646A24801683046FBF7A1F9054608
:104FE0009F4801692846FBF742F99D49086127E07F
:104FF00000212046FBF770FC01D2204603E020464A
:105000000121C9074840014606902046FBF7C5F933
:10501000064600212046FBF75FFC01D2204603E054
:1050200020460121C907484031460790FBF778F92F
:1050300005468B4801692846FBF719F9884908613C
:10504000874908698749FBF73DFC01D2854809E09B
:10505000834908698449FBF73FFC01D2824801E09B
:105060007F4800697E4908610869FBF795FB00B23B
:105070007E4908808FE18121C90577480068FBF7E8
:105080004FF9079001F01EFE002802DD01F01AFE24
:1050900002E001F017FE40420646FBF74FFB0546D3
:1050A0000799FBF70FFCE5D271490968714A12684C
:1050B000881AFBF743FB074601F004FE0390FBF759
:1050C00049FB054600226C4BFBF758FA00226B4B5C
:1050D00005910490FBF7BAFA07910690FBF776FB6F
:1050E00000B26249088000213846FBF7F5FB01D287
:1050F000384603E038460121C90748400546604963
:10510000FBF7EAFB78D200213846FBF7E5FB4BD2F0
:105110005C480078012805D15B480078002801D15F
:105120005A4948610120584908708121C9054A48F7
:105130000068FBF7F5F839460190FBF7F1F800211C
:105140000290FBF7C9FB0AD28121C90542480068D9
:10515000FBF7E6F839460290FBF7E2F80CE0812114
:10516000C9053D480068FBF7DBF839460290FBF7BC
:10517000D7F80121C90748400390FBF74BFB0546D0
:1051800002F00EF900223D4B05910490FBF75EFA08
:1051900007910690FBF77AFB089030480899006861
:1051A000FBF7B6F809904FE036480078012806D1A1
:1051B00035480078012802D1002034494861002098
:1051C000314908708121C90523480068FBF7A8F818
:1051D00039460190FBF7A4F800210290FBF77CFB15
:1051E0000BD28121C9051C480068FBF799F83946A4
:1051F0000290FBF795F80DE08AE08121C905164879
:105200000068FBF78DF839460290FBF789F8012119
:10521000C90748400390FBF7FDFA0591049002F09E
:10522000BFF80122D207514005460022134BFBF77D
:105230000DFA07910690FBF729FB0890074808999B
:105240000068FBF765F80990104948690999FBF770
:105250000EF80E4948611BE0EC000020F000002031
:105260008803002000007FC300007F43F600002079
:10527000DC000020D8000020008019400000104011
:1052800000004041D30000200501002068030020F9
:105290004348007801281FD188680999FBF740F836
:1052A00007904048016801208007FBF739F839462C
:1052B0000590FBF735F806463B490020085EFBF7F2
:1052C0003DFA31460690FAF7D2FF05460799FBF7FB
:1052D0001FF83449086144E0324A51695068FBF7CD
:1052E0001FF83049079088680999FBF719F80646B6
:1052F0002D490020085EFBF721FA31460690FBF7A6
:1053000007F805460799FBF703F82649086128E0E6
:105310003846FBF741FA06B23046FEF771FC054607
:10532000FBF70CFA074601201D49087000201D49B3
:10533000486108901D4808990068FAF7E9FF09904C
:10534000184908683946FAF7EBFF05461649002068
:10535000085EFBF7F3F906462946FAF788FF11497C
:105360000861104908691249FBF7ACFA01D21048EC
:1053700009E00C4908690F49FBF7AEFA01D20D4864
:1053800001E008480069074908610869FBF704FA69
:1053900000B20549088004490020085E0BB0F0BD4A
:1053A000D300002068030020F6000020F000002059
:1053B00000007FC300007F43F8B504460D46F0208F
:1053C000204006112107090F01208840C7B2330091
:1053D000FCF709FF05040A11181F26002A46394662
:1053E0001148FCF74BFA1CE02A4639460E4840307B
:1053F000FCF744FA15E02A4639460B488030FCF7A2
:105400003DFA0EE02A4639460748C030FCF736FA26
:1054100007E02A4639460448C030FCF72FFA00E07E
:1054200000BF00BFF8BD00000040005010B52A4882
:105430000078FF2805D02848007828490978884254
:1054400040D125480078FF280BD123484078102808
:1054500007D0F02002F0E8F8FEF7CEFDF72002F0CA
:10546000E3F800242BE00C2060431D49085C1A4936
:105470004978884221D11B48007800280ED0164870
:10548000407818490978884208D0134840780011BC
:10549000012803D01220FCF7E5FB10BD0C2060436F
:1054A0000F4940188068002806D00C2060430A4647
:1054B000801881680020884703E0601CC4B21D2C5E
:1054C000D1D307E0F02002F0AFF8FEF795FDF7200A
:1054D00002F0AAF800BFE0E7D00200205C00002044
:1054E000147700005D00002070B505460C46284684
:1054F00020388000E3490C500121284620388000E4
:10550000E14A11502146E148FAF728FE04462846B0
:1055100020380300FCF767FE080535679FD7FDFCC0
:10552000FBFADB4840690020D94948610846806899
:10553000C9020843D6498860D648806808210843D4
:10554000D449886008460068000A00020B300860F1
:1055500008464068C008C000001D4860CD48403083
:10556000C06B01210843CB494031C86305200007C7
:10557000806B89150843052109078863C548C46005
:105580007DE1C34840690020C14948610846806800
:10559000C9020843BE498860BE4880680121C9022B
:1055A0000843BC49886008460068000A00020B30C6
:1055B000086008464068702188434030B54948601B
:1055C000B4484030C06B02210843B2494031C8633F
:1055D00005200007806B49150843052109078863EA
:1055E000AC4884614BE1AA4840690020A849486161
:1055F0000846806809030843A5498860A548806873
:1056000089020843A349886008460068FF2109020F
:1056100088430B21090240189E49086008464068EB
:1056200007210902884301218902401899494860ED
:1056300098484030C06B0421084396494031C86304
:1056400005200007806B09150843052109078863B9
:105650009048446213E18E48406900208C494861BB
:10566000084680680903084389498860894880683A
:10567000890408438749886008460068FF210902B9
:1056800088430B2109024018824908600846406897
:105690000721090388430121890340187D49486097
:1056A0007C484030C06B082108437A494031C863C8
:1056B00005200007806BC91408430521090788638A
:1056C00074480463DBE07248C06900207049C86117
:1056D00008468068490308436D4988606E488068C1
:1056E000082108436C49886008460068000A0002E7
:1056F0000B30086008464068C008C000001D4860C4
:1057000065484030C06B0121084303E0B6E07CE00F
:1057100042E00EE060494031C86305200007806B1D
:105720000121090308430521090788635A48C46019
:10573000A5E05748C06900205549C86108468068FF
:105740004903084352498860534880680121C902CF
:1057500008435149886008460068000A00020B307F
:105760000860084640687021884340304A494860D4
:1057700049484030C06B0221084347494031C86363
:1057800005200007806B0121490308430521090713
:1057900088634148846172E03D48C06900203C490B
:1057A000C8610846806889030843394988603A48D7
:1057B0008068890208433849886008460068FF21EC
:1057C000090288430B210902401833490860084642
:1057D00040680721090288430121890240182E49A7
:1057E00048602D484030C06B042108432A494031AD
:1057F000C86305200007806B012189030843052148
:10580000090788632448446239E02148C0690020C0
:105810001F49C86108468068890308431C4988609D
:105820001D488068890408431B4988600846006851
:10583000FF21090288430B2109024018164908601C
:10584000084640680721090388430121890340185D
:105850001149486010484030C06B082108430E4988
:105860004031C86305200007806B0121C90308434C
:105870000521090788630848046300E000BF00BFF2
:1058800070BD00001C0000203001002040420F00CD
:105890000002005000000440000014407047000067
:1058A000FFB583B00D4616461F46002002902C46D9
:1058B0000398203880001049085802900F48029938
:1058C000FAF74CFC0290B44201DA304604E0BC42E4
:1058D00001DD384600E020460446029800233A469F
:1058E000314600902046FEF7BDFF0446214603984E
:1058F00000F006F807B0F0BD1C00002040420F0089
:1059000000B50246203A1300FCF76DFC08050D16A1
:105910001F283039424B244A1161926801231A43EF
:10592000214B9A603EE0204AD1619268FF23013307
:105930001A431D4B9A6035E01B4A9162926801231D
:105940001B041A43184B9A602CE0174A5163926863
:1059500001231B061A43144B9A6023E0134A11617A
:10596000926801231A43114B9A601BE00F4AD161E0
:105970009268FF2301331A430C4B9A6012E00B4AE2
:105980009162926801231B041A43084B9A6009E054
:10599000064A5163926801231B061A43034B9A601F
:1059A00000E000BF00BF00BD000004400000144044
:1059B00010B50246505C4006400E184C2070481C42
:1059C000105CC007030E2046007818432070481C66
:1059D000105C40106070881C105C8007030E20462D
:1059E0004078C0186070881C105C8010A070C81CC3
:1059F000105C4007030E20468078C018A070C81CB9
:105A0000105CC010E070081D105C0007030E2046FB
:105A1000C078C018E0702046006810BDB0000020BB
:105A200030B50346585C4006400E0E4D2870481CA9
:105A3000185CC007040E2846007820432870481CD4
:105A4000185C40106870002A07D1881C185C800719
:105A5000040E2846407820436870024D0020285EDE
:105A600030BD0000B40000207047704710B50246FA
:105A7000505C4006400E064C2070481C105CC0076D
:105A8000030E20460078184320702046007810BD91
:105A9000B6000020704770477047000010B5012124
:105AA0002620FFF789FC01212520FFF785FC012135
:105AB0002420FFF781FC01213620FFF77DFC012126
:105AC0002320FFF779FC7D21C9002620FFF70CFD7C
:105AD0007D21C9002520FFF707FD7D21C900242075
