:020000040000FA
:1000000080060020D5000000FB000000FD0000007D
:1000100000000000000000000000000000000000E0
:10002000000000000000000000000000FF000000D1
:1000300000000000000000000101000003010000BA
:100040000501000005010000050100000501000098
:10005000050100000D16000005010000050100006B
:10006000BD190000050100000501000005010000A8
:10007000291A00004D1A00000501000005010000CA
:100080000501000005010000A116000005010000A7
:100090000501000005010000050100000501000048
:1000A0000501000005010000050100000501000038
:1000B0000501000005010000050100000501000028
:1000C0000348854600F018FE00480047E13800006C
:1000D000800600200C480D4901600D4901600D4962
:1000E00001600D4A0D4911600D4A0E491160002151
:1000F00001600D4880470D480047FEE7FEE7FEE738
:10010000FEE7FEE7FEE70000000100505900000096
:10011000160000008800000024000050A55A0000CE
:10012000800300501F000000BD180000C100000047
:1001300030B50B46014600202022012409E00D467F
:10014000D5409D4205D31D469540491B2546954007
:1001500040191546521E002DF1DC30BD70B500244B
:100160002546002801DA01244042002901DA012550
:100170004942FFF7DDFFAC4200D04042002C00D0E6
:10018000494270BD03460B439B0703D009E008C9F1
:10019000121F08C0042AFAD203E00B780370401C37
:1001A000491C521EF9D2704770B5002800D1106862
:1001B000002514E00B4602E0A64203D05B1C1C782D
:1001C000002CF9D1E3B22B4307D0002C06D0002D30
:1001D00004D000210170401C04E00546401C067854
:1001E000002EE7D11060284670BD014ADCE7000010
:1001F000F800002030B50546002008E00A4602E07D
:10020000A34207D0521C1378002BF9D1401C2C5C60
:10021000002CF3D130BD70B5064601F00DFE046828
:1002200005460A220021304600F0DEFB2C6070BD3E
:10023000F8B502464A40D40F42004B0052085B0812
:100240009A4202D20246084611464A0023D0C30D04
:100250004A00DDB2120EAD1A202D35DA4902012610
:10026000490AF6058A19002C00D0524220214F1B62
:100270001146B9402A411018C20D9A4221D0002CD3
:1002800017D0012D08DCDA05801AD20F8019D207A9
:10029000DBB200F0E9FBF8BDDA05801A012340006B
:1002A0001B06C01880185A428018CA0F1043490014
:1002B00007E04908C2071143DA05801A801940088F
:1002C000801800F0C9FBF8BD61000122511A001B23
:1002D000F7E70122D2075140AAE70122D207504096
:1002E000A6E7024670B54A40D30FDB0740002DD089
:1002F0004A002AD0010E140E000212020919400A07
:10030000520A8418E50104465443000A120A2E04D6
:100310005043A4194219200CC543AA18120C0125F8
:10032000AD03521C521912047F39240400D0521C10
:10033000104301D44000491EC2B20C06C009201867
:10034000401C4008802A02D003E0002070BD400815
:100350004000002900DA0020184370BD70B5024645
:100360004A40D50F40004A00ED07400852080028D7
:1003700014D0002A12D0C40DD30D41020120C005B3
:100380005202490A520AE41A091812187D3491429D
:1003900001D3641C00E04900002C01DA002070BD8C
:1003A0000023914201D3891A0343400849000028E1
:1003B000F7D100290AD0914202D10121C90705E0F5
:1003C000914201D2012101E00121C943E005C01899
:1003D000401900F041FB70BDF0B507460846584093
:1003E00087B0C00F049048000E46590040084908E5
:1003F000BC1A884105D2384631461E4617460B4680
:1004000002465800400810434CD0300D0390400580
:100410005900400D490D0590401A0290402872DAAB
:1004200018030121000B090508430190049800926C
:10043000002805D001995242002088410092019085
:10044000029840210A1A0199009800F047FA0546DF
:100450000C466B4607CB00F062FAC0197141039A53
:100460000E0D0023D71756401A467A40164344D043
:10047000049A002A2DD0029A012A039A15DC12054B
:10048000C01A914101263605001C7141D20F059E0C
:10049000D2070093019202962A46234600F02AFBD7
:1004A00007B0F0BD38463146FAE71605224A0F4636
:1004B000B218C01AB74101210905001C4F410018AC
:1004C0007F41114618187941E20F10436D196441BC
:1004D00013E0E2076D0815436408C2071443039A4A
:1004E00001261205C01A91413605001C7141CE0744
:1004F000400830434908C01851412A46234600F0BD
:10050000ECFACDE7FFE7049801224000C117121A68
:1005100000238B4104983146C417381AA141EEE7F5
:1005200030B40124E407634030BC55E730B4012403
:10053000E407614030BC4FE70000E0FFF0B51FB4B6
:1005400088B00B990998002448400999C00F4900C8
:1005500049080991C0070B990090490049080B917F
:1005600009990898A64608431CD00B990A98084395
:1005700018D0099801244000420D4800410D099807
:1005800024050003000B204309900B980003000B87
:1005900020430B9050181C4940180022019014462B
:1005A000104605E0002001460DB0F0BD032801DA39
:1005B000034600E003239C46C11A0AAE0AE05F002E
:1005C00008ADED5B4F00F75B7D430027AA187C4127
:1005D000491C5B1E6145F2DD410004AB5A52210407
:1005E000120C0A43240C401C0828DFDB01980290FF
:1005F0000099704601910090059B049A079906980E
:1006000000F078FAD0E700000DFCFFFFF0B50C46D3
:100610005C4085B0E40FE40703944C0000266408B6
:1006200059009446490802460296224321D0624668
:100630000A431ED06200570D4A000E032303550DD6
:10064000012402462C492405781B1B0B360B40184D
:1006500023432643614600901C46501AB44103D3FD
:100660000098401C009002E0921800985B4100281E
:1006700003DA0020014605B0F0BD00200121090584
:100680000746864611E064461D46141BB54106D355
:100690006546521BB341744607430C43A646CD073B
:1006A00040084908284392185B4105460D43EAD1AA
:1006B0001046184313D06046194650407140084315
:1006C00006D06046101AB34106D20122002306E08C
:1006D00000220123DB0702E00122D24353100098DD
:1006E00074460105381C6141029C039D0019694153
:1006F00000F0F3F9BFE70000FD030000C217C10FCF
:10070000504010B54018CA079623002100F0ACF9FC
:1007100010BD00000EB5C217C10F5040CA074018E7
:100720000021054B0293019200910A460B4600F00E
:10073000E1F903B000BD000033040000C20F410026
:1007400040020123400ADB05D207090EC0187F29A9
:1007500001DA00207047962903DC9623591AC84015
:1007600001E096398840002AF4D0404270470000EA
:1007700070B5CD0F4A0009030123090B1B0519436E
:100780000B4BED070024520D9A4201DA002070BD98
:10079000074B34339A4203DC9A1A00F0AFF802E0B8
:1007A0000449511888402C43F1D0404270BD0000EC
:1007B000FF030000CDFBFFFF4A0009030123090BE3
:1007C0001B051943094B10B5520D9A4201DA00205E
:1007D00010BD064B34339A4203DC9A1A00F08EF8AF
:1007E00010BD03495118884010BD0000FF030000F0
:1007F000CDFBFFFFC20FD207400040080BD0C10D58
:100800000723DB01C91840020905400A1143C20849
:10081000400711437047002001467047CB0FDB07AC
:10082000490010B5490802460A4307D00A0D0724BB
:100830000903E401090B121B002A01DC002010BD92
:10084000C900440F0C43C100E018D205801800F025
:1008500003F910BD0122D207002800DB101A00297D
:1008600000DB511A814270470122D207002800DBC9
:10087000101A002900DB511A88427047F0B51FB4E6
:100880000646002082B005464024019100901BE0FE
:10089000019922460F46304600F030F8049A059B35
:1008A000801A994110D310461946224600F016F8D6
:1008B000361A8F410197224601200021009F00F047
:1008C0000DF838184D4100902046641E0028DFDCEA
:1008D000019B00982946324607B0F0BD10B5202A8A
:1008E00004DB0146203A9140002010BD91402023B6
:1008F0009C1A0346E3401943904010BD10B5202ACE
:1009000004DB0846203AD040002110BD0B46D340FE
:10091000D0402024A21A91400843194610BD10B5BA
:10092000202A06DBCB170846203A1041C1170B439B
:1009300006E00B461341D0402024A21A9140084300
:10094000194610BD0FB400B589B00CA900910B99E0
:100950000023CB60204B214A069307920422019288
:100960001F4A02921F4A089202466B46002000F07E
:100970005EFA09B008BC04B0184770B586B00646E8
:100980000020C0430190002015460C4600910291C2
:1009900004903246694604A8FFF7D4FF0346049842
:1009A0002118002D05D0002801D00A4600E022467B
:1009B0002A6000280DD0002B02DD0098884208D064
:1009C000081B0190009432466946029404A8FFF780
:1009D000B9FF06B070BD000085100000A510000032
:1009E000FFFFFF7F250D0000F7B5009C0F46002696
:1009F0002578641C002D05D000F090F90068405D5A
:100A0000C007F5D12B2D02D02D2D18D0641E3946EC
:100A10002046029A00F058FB002F04D03968A1420A
:100A200001D1009939607105022400290BDA404296
:100A3000002803DD01F000FA0460A007FEBD0120DC
:100A400080020643E3E70028F8DA01F0F5F90460D4
:100A50000048FEBDFFFFFF7F002904DA401C49006B
:100A600001D140084000704770B40024050C05D146
:100A70001024000402D1002921D01124050E01D137
:100A800000020834050F01D10001241D850F01D19A
:100A90008000A41C002801DB4000641C002908D051
:100AA00020252E1B0D46F540A14000D001212943F1
:100AB000084301061B1B000ADB1D02D5002070BC89
:100AC0007047DB05181880180029F8DA401C490027
:100AD000F5D170BC40084000704710B5002B08DA13
:100AE0000024401C614192185B411A4301D1400827
:100AF000400010BDF0B51FB482B005460C0003D015
:100B0000084601F073F902E001F070F92030024666
:100B1000009021462846FFF7E1FE049B059A044613
:100B20000F4618431143084314D0184610431BD0F6
:100B3000009840210A1A18460599FFF7DFFE05467E
:100B40000E46009A05990498FFF7C8FE084305D0A1
:100B5000012004E02046394607B0F0BD0020C1174F
:100B600005430E432C43374300990E986305401A02
:100B70007905E40A00220C43FD0A0A3002D5002060
:100B80000146E9E70105101969410C9C0D9D00190A
:100B90006941FFF7A2FFDFE770B54B005B08034335
:100BA0000BD04B005C0D002633466542B341D41791
:100BB000AD1AA34102DB0020014670BD12053018BA
:100BC000514170BDFEB500231A461B1A8A4103DB52
:100BD0000020014603B0F0BD4A000D0301212D0B9A
:100BE0000905520D0D43D10702D100186D41521E67
:100BF0005110FF31FF310131002704463E4638468F
:100C0000009701910246012100200905FFF776FEB9
:100C1000C3197141F818324684468E464A416146EE
:100C20002846611A904104D36046241A95417646BD
:100C30001F46241900986D41401C00903428E1DDC6
:100C4000F91930467041091BA84103D20022D24352
:100C5000134601E00022134601980105381C71413A
:100C6000FFF73BFFB6E700004A0009030123090B29
:100C70001B0519430A4B10B5520D9A4202DA0020A7
:100C8000014610BD064B34339A4203DC9A1AFFF733
:100C900035FE10BD034BD218FFF720FE10BD00003B
:100CA000FF030000CDFBFFFF10B5002904DB01248A
:100CB000E40740428C412146002B04DB1C46012303
:100CC000DB075242A3418B4200D1824210BD00009B
:100CD00010B5002904DB0124E40740428C41214681
:100CE000002B04DB1C460123DB075242A34199423F
:100CF00000D1904210BD0000064C0125064E05E0D3
:100D0000E36807CC2B430C3C98471034B442F7D32C
:100D1000FFF7DAF9E85B0000085C00000048704764
:100D2000E45B000010B50446FFF7F8FF0068005DC3
:100D3000C007C00F10BD0000FFB5087885B015468C
:100D4000FF2805D0491C2D2804D00022002407E0EC
:100D500000240BE00122F9E70A235C430419491C33
:100D60000878FF28F8D1002A00D0644200200190C2
:100D70002A7801462D2A01D02B2A04D16D1C2D2A58
:100D80000DD00022019200262F78FF2F09D00A22D1
:100D900000236D1C00F0EBF938187141F4E70122D3
:100DA000F0E7089AA218039202460A430DD00024E5
:100DB000B24AB14D2646009200F026FA04900398FC
:100DC0000291002807DA47421AE0002105980A46F6
:100DD00006C009B0F0BD074612E0F80707D022466A
:100DE0002B4630460099FFF7A9FB064600912246A4
:100DF0002B4610461946FFF7A1FB04460D467F100F
:100E0000002FEAD10398009B0028029904983246EB
:100E100002DAFFF7FBFB01E0FFF790FB019A002AE3
:100E200002D00122D2075140059A03C2D1E7FFB593
:100E300091B0002009900025ED432E209E685C684B
:100E40001F460190B9696D1C129888470090396A55
:100E500088470028F6D10098401C0AD00D20C00118
:100E60008443002E12DD00982B2809D02D280DD1A7
:100E700003E00020C04315B0F0BD01208002044310
:100E8000B9696D1C12988847761E009003A9600509
:100E900001D52D2000E02B206A461073491C0CA8B8
:100EA0000F9102900AE0B9696D1C12988847009072
:100EB0000120400204431398761E0560002E02DDD7
:100EC00000983028EFD001990098884246D18020C0
:100ED000044308E00998401E0990012040020443A1
:100EE0001399681C0860B9696D1C761E12988847B2
:100EF00000903028EED031E00199884205D12006DB
:100F000003D480200443761E1EE0009801F0CEF842
:100F1000002826D001204002044307A90F9803317E
:100F2000761E88420BD200980F99303808700F98BF
:100F3000401C0F90200607D50998401E03E02006AC
:100F400002D40998401C0990A00502D51399681C89
:100F50000860B9696D1C129888470090002ECBDCA0
:100F600059E0002E57DD0098652801D0452852D160
:100F7000A00550D5032000028443B9696D1C761E7C
:100F8000129888470090002E0CDD2B2804D02D28C5
:100F900008D1FF2001300443B9696D1C12988847BD
:100FA000761E0090E00501D52D2100E02B2102984E
:100FB00001700298401C0290019025E0012040023F
:100FC00004430EA902980131761E88420ED2009881
:100FD000029930380006000E087003D1029901987A
:100FE00081420AD90298401C029006E0E00501D532
:100FF000234801E0224840420990B9696D1C1298CB
:101000008847009013980560002E04DD009801F0D9
:101010004DF80028D2D1F969129888470F99FF201E
:101020000870029903AA087000200A900B900CA97E
:101030000AA8099BFFF780FEA00502D40120C04347
:1010400019E72420044209D0E00713D138680B9A2D
:101050000A99031D3B60006806C00BE00B990A98D3
:10106000FFF7DCFB0146E00704D13868021D3A6057
:10107000006801602846FEE6000024400000F03FC2
:10108000F1D8FFFF4268002A08D001680B78491C9C
:10109000002B03D0521E06C0184670470121C160C4
:1010A000881E70474268002A0BD0C3680168002B75
:1010B00007D183688B4204D0491E521C06C0002011
:1010C00070470020C0437047F7B582B0029C0027EC
:1010D0002078641C15460197302802D0002D15D0C9
:1010E00015E020780127641C782804D0582802D005
:1010F000002D09D00BE0002D01D0102D07D10027C5
:1011000010252078641C02E0082500E00A2500264E
:10111000009610E00099012769430818020C29463F
:1011200080B2714300908E183804864201D30120AA
:1011300001902078641C294600F056F80028E9DA6E
:101140000398002805D0002F01D0641E00E0029C07
:1011500004600198002806D000F06EFE02210160B4
:10116000C81E05B0F0BD009930040843F9E7F0B59A
:101170001FB486B000200090019002900698069956
:1011800080B204900798090C0204001411430790E0
:101190000027089D099806913E463C460390039817
:1011A000A9B20204000C039004982D0C1543484387
:1011B00000212246FFF792FBC719714110340E46F9
:1011C000402CECDB3846029AFFF788FB009A019B23
:1011D00080180090594102980191103002904028E7
:1011E000CCDB00980BB0F0BD3A2800D23038202379
:1011F00002469A43412A01D310463738884201D328
:101200000020C043704700000EB5054A029200223C
:10121000009213460192FFF76DFC03B000BD000081
:1012200033040000C10F8900064A89188968C30683
:10123000DB0E01229A401143C20F9200014BD218DB
:101240009160704700020050F3B583B00C460398DC
:10125000002809D13D48006A0121C90488433B495F
:1012600008623B48029008E03848006A0121C9043E
:10127000084336490862374802903748844204D808
:101280004010844201D9002722E03448844205D826
:101290004010844202D90127640019E0304884429A
:1012A00005D84010844202D30327A40010E003981D
:1012B000002803D12B482549086202E02A48234927
:1012C0000862042000F08EF900F0DAF805B0F0BDF5
:1012D00026492046FEF72CFF064624490298FEF7D1
:1012E00027FF05460EE0E807C00F002807D1F007EA
:1012F000C00F002803D1022D01D0022E00D102E040
:101300006D087608EFE700BFB803A91E490208433D
:10131000B11E084301900D48006A010C09040198B0
:1013200001430A480162006A05210904884307490C
:101330000862042000F056F97A1C6A431146029AAA
:1013400072431046FEF7F4FEC0E7000000020050B2
:10135000001BB7000080510100C2EB0B00E1F50556
:1013600080F0FA022EC200006FD6000040420F004B
:10137000024909680143014A1160704700020050A8
:10138000FEB5002002901AA0006800901948046A77
:1013900000132040002801D00020FEBD0120C00421
:1013A0002040002801D0144D00E0144D01204004DD
:1013B0002040002801D02846EFE70320800320408A
:1013C000800B69460A5C0192E005C00D861C1F2057
:1013D00040022040400A871C019A7A431146AA081D
:1013E00072431046FEF7A4FE800002900298D4E7F4
:1013F000010202040002005000805101001BB700EE
:10140000FEB5002002901AA0006800901948046AF6
:1014100000132040002801D00020FEBD0120C004A0
:101420002040002801D0144D00E0144D012040045C
:101430002040002801D02846EFE703208003204009
:10144000800B69460A5C0192E005C00D861C1F20D6
:1014500040022040400A871C019A7A431146AA089C
:1014600072431046FEF764FE800002900298D4E7B3
:10147000010202040002005000805101001BB7006D
:10148000FEB5002002901AA0006800901948046A76
:1014900000132040002801D00020FEBD0120C00420
:1014A0002040002801D0144D00E0144D01204004DC
:1014B0002040002801D02846EFE703208003204089
:1014C000800B69460A5C0192E005C00D861C1F2056
:1014D00040022040400A871C019A7A431146AA081C
:1014E00072431046FEF724FE800002900298D4E773
:1014F000010202040002005000805101001BB700ED
:1015000010B504461048844201D9044603E00F4850
:10151000844200D204460E480068C007C00F00286D
:1015200005D021460020FFF78FFE044605E0214646
:101530000120C004FFF788FE04460021022000F0CD
:1015400009F8204610BD000080F0FA0240787D01C5
:101550000002005070B504460D4608480069C008F6
:10156000C000204305490861084680690009000160
:101570002843886100F070F970BD0000000200503F
:10158000F0B50B46002100240025C600360F002EC2
:101590000FD04600B60FB600114FF4192168C600EF
:1015A000370FC601F60EB7400E46BE431E43314606
:1015B00021608603360E002E10D00603B60FB6004B
:1015C000074F0837F51929688603360EF643870555
:1015D000FF0EBE400E40164331462960F0BD0000AC
:1015E000100200500146074A05E01046521E00282E
:1015F00001DC002070470448C06808408842F4D1EC
:101600000120F7E790D00300000200500D48006A67
:1016100008210840002803D008200A4908620FE08A
:101620000848006A0749086206484030006A0549D0
:101630004031086203488030006A02498031086204
:10164000704700008040005010B58469130E8B4035
:101650001C438461C3691402240A8C402343C36180
:1016600010BD70B5034600200FE0012484400C40FB
:10167000002C09D01C6846000325B540AC43460049
:101680001546B5402C431C60401C0828EDD370BDA6
:10169000416901221143416170470146C8687047A2
:1016A00010B50D48FFF7F9FF04460B484069C00725
:1016B000C00F012148404840002803D00648FFF7EA
:1016C000E7FF07E005480068002803D020460349EB
:1016D0000968884710BD000000000240BC000020DF
:1016E000C206D20E01219140014A116070470000EC
:1016F00000E100E030B50146F0240C4022110B0758
:101700001B0F5401024D64199D00601930BD00008B
:101710000042005010B50420FFF72AFE1020FFF70A
:1017200061FF00210720FFF715FF0120FFF720FED2
:101730000120FFF757FF1E48FFF7E2FE1D48FFF7A5
:1017400071FD1C48401CFFF76DFD1B48FFF76AFD4B
:10175000002211461748FFF713FF002211461548D3
:10176000401CFFF70DFF002211461348FFF708FF4A
:1017700005200007C06B1149084005210907C8630F
:101780000846C06B0321084305210907C8630846C2
:10179000006B0B4908400521090708630846006BE8
:1017A0000649C943084305210907086310BD000025
:1017B00080F0FA02103D80270200802EFCFCFFFF23
:1017C000FCFCFFFC010E0522120789188968012222
:1017D00082401143020E05231B07D2189160010EAF
:1017E0001A4689188A68012181408A43010EC91866
:1017F0008A60704770B5044612480078012806D107
:1018000022461148017811A004F044F818E0F020B5
:1018100004F06CF80C48007804F068F8152004F027
:1018200065F8204604F062F8074800781530001982
:1018300045066D0E284604F059F8F72004F056F8D6
:1018400070BD00006800002066000020472564206D
:101850005225640D0A00000070B512480069450762
:101860006D0FFFF78DFD10490860022D03D0A80011
:101870000E490C5801E00C4804680A4880690007CA
:10188000000F461C31462046FEF752FC084908600E
:101890000849074800684A108018FEF749FC0649C5
:1018A000086070BD00020050080000206059000070
:1018B0000000002040420F0004000020704700009C
:1018C00030B589B005462022194901A8FEF75AFC17
:1018D0001848854206D11848406907210902084086
:1018E000040A1AE013482030854206D112484069A4
:1018F000072109030840040B0FE01048854206D178
:101900000D484069072109040840040C05E00A4815
:101910004069072109050840040D022C03D108483D
:10192000006809B030BDA00001A90858F9E700001F
:10193000005B000000000140000200500000114068
:1019400000000020FEB505460F4616462846FFF764
:10195000B7FF04460020019000906008B04202D218
:10196000022001901BE001208006844203D307205F
:101970000090E4080EE001204006844203D30320D7
:101980000090A40806E001200006844202D3012052
:101990000090640831462046FEF7CAFB019000988B
:1019A0003843286001986860009A521C019850439F
:1019B00001462046FEF7BCFBFEBD000000BF084804
:1019C0008068C007C00F002809D000BF012004496B
:1019D000886000BF03480068401C024908607047E7
:1019E000000001401400002010B5044622460121E9
:1019F000C9060C48FFF7A6FF00BF0A48006801218E
:101A0000490708430749086000BF00BF084600684F
:101A1000890308430349086000BF0820FFF760FE00
:101A200010BD00000000014010B500F0F1F810BD3D
:101A300010B504460348FFF7C5FE2146024800F0F2
:101A40002FF810BD100000040000054010B500F094
:101A50007FF910BD10B504460348FFF7B3FE2146D9
:101A6000024800F01DF810BD1100000400001540F0
:101A700010B50948406801210843074948600C2017
:101A8000FFF72EFE054840680121084303494860DE
:101A90000D20FFF725FE10BD000005400000154099
:101AA000F0B587B004460D46274801460EC9C06808
:101AB00003AE0EC606900020029024484069032120
:101AC00009060840060E214880690F2109020840D6
:101AD000070A002020630320E060A0681C4908403A
:101AE000A060012E04D1FFF78BFCB10003AA505077
:101AF000002D26D0B10003AA5058791CFEF718FB20
:101B00006908401829460190FEF712FB801E0290DA
:101B10001049029888420FD9B10003AA5058791C85
:101B2000FEF706FBE900401829460190FEF700FB8E
:101B30000009801E606204E003210907029808433F
:101B4000606207B0F0BD0000D05A000000020050F3
:101B50000FFFF0FFFFFF0000FFB587B004460D4602
:101B60001746284801460EC9C06802AE0EC6059049
:101B70000020019024484069032109060840060E10
:101B8000214880690F2109020840000A0690012EB1
:101B900004D1FFF735FCB10002AA5050002D28D027
:101BA000B10002AA50580699491CFEF7C1FA69080B
:101BB000401829460090FEF7BBFA801E0190134999
:101BC0000198884210D9B10002AA50580699491CC0
:101BD000FEF7AEFAE900401829460090FEF7A8FA91
:101BE0000009801E606204E0032109070198084390
:101BF000606238460A99084310990843E0600BB0C8
:101C0000F0BD0000E05A000000020050FFFF00009D
:101C100070B5FF244748C569406840084000454901
:101C200048600C2001218140434A116000BF4348B5
:101C30000078002835D1601C2840002831D029E0E8
:101C40003C480068C4B23E48007800281AD0F72CFF
:101C500005D100203A49087002F07AFB1AE03948B1
:101C600039490988445438480088401C364908805E
:101C7000084600883F280DDD0020314908703249B0
:101C8000088007E0F02C05D101202D4908700020C4
:101C90002D4908802748C069C007C00F0028CFD150
:101CA00039E026480078012835D100022840002874
:101CB00031D02AE01F480068C4B2244800780028C8
:101CC0001BD00A2C06D10020204908701D4801F0C5
:101CD00085FF1AE01B481C49098844541A480088AB
:101CE000401C19490880084600883F280DDD002067
:101CF000164908701449088007E0472C05D10120D7
:101D0000124908700020104908800A48C069C007BD
:101D1000C00F0028CED1074840680121084305497B
:101D200048600C2001218140034A803A116000BFC5
:101D300070BD00000000054080E100E06800002068
:101D400050000020E0010020580000205200002038
:101D5000FF20184AD169421C0A40002A29D022E0FB
:101D6000144A1268D0B2144A1288402A14DA134A6C
:101D7000134B1B88D054124A12883F2A01D10022EB
:101D800002E00F4A1288521C0D4B1A800A4A128830
:101D9000521C094B1A8006E00022074B1A80084BA0
:101DA0001A80084B1A80034AD269D207D20F002A40
:101DB000D6D17047000015405A0000206001002075
:101DC000600000205E00002037B514460846064B30
:101DD0006A46214600F072F904466946002000F088
:101DE00009FD20463EBD0000F52700002021020C21
:101DF00001D010211046020A01D01046083902090C
:101E000001D01046091F820801D01046891E4208E1
:101E100001D0881E7047081A704730B47446641E9B
:101E20002578641CAB4204D3635D5B00E31830BCCF
:101E300018471D46F8E7000000487047FC000020E6
:101E4000F8B504464F1EC8000838211815461E462E
:101E5000086849683A4606239A4310D02A46334612
:101E6000FEF76CFB3A46D200083AA3181A687F1EA8
:101E70005B68FEF7B1FA06223B469343EED1022F90
:101E800023D0042F11D0062F2FD12A463346FEF738
:101E900055FBE36AA26AFEF79FFA2A463346FEF72D
:101EA0004DFB636A226AFEF797FA2A463346FEF72D
:101EB00045FBE369A269FEF78FFA2A463346FEF72F
:101EC0003DFB63692269FEF787FA2A463346FEF72F
:101ED00035FBE368A268FEF77FFA2A463346FEF731
:101EE0002DFB63682268FEF777FAF8BD002210B573
:101EF000134610460149FEF789FB10BD0000F03F74
:101F000010B50122FEF748FE10BD002210B51346A1
:101F100010461146FEF77AFB10BD0000014800682C
:101F200070470000FC00002002E008C8121F08C132
:101F3000002AFAD170477047002001E001C1121F4A
:101F4000002AFBD17047000001490860704700007B
:101F5000FC000020F0B51FB484B007980699020D6C
:101F6000014314D04A484B491018484305140F98B0
:101F700001280E981CD0281A401C0024464E4749C0
:101F8000009401910290002814DA474227E00F984C
:101F9000012443A3012808D0002104980F9A8460EB
:101FA0000360C260416009B0F0BD0E98C143F4E720
:101FB0004042E2E7074612E0F80707D022463346E0
:101FC00001990098FEF7BAFA019100902246334633
:101FD00010461946FEF7B2FA04460E467F10002F4F
:101FE000EAD10298019B0028009A0799069802DA24
:101FF000FEF7A4FA01E0FEF709FB04460E460022B4
:10200000284BFEF765FE03D80020C043014607E0D9
:102010000022254B20463146FEF7DEF9FEF724FE6E
:10202000102409E0002C0ADB0A220023FEF726FC1C
:10203000059B30321A55641E02460A43F2D1112222
:10204000641C059B121B1C190F9B012B03D0012341
:1020500008430ED10AE0084304D011200E9000205E
:102060000F9084E70E98151A6D1E0BE00E988242B1
:1020700002DD00236D1C03E0824201DA00236D1EA5
:10208000002BEED004980F998260C16030C08AE7BF
:1020900001FCFFFF104D0000000024400000F03F55
:1020A000300000000000F0430000E03F30380A2814
:1020B00001D201207047002070470000FFB597B0A3
:1020C0000646002518E2252877D100242746FD4939
:1020D000049400E00443761C32780120203A9040BA
:1020E0000842F7D130782A280ED0022230780146F3
:1020F0003039092916D804990A2359433039401830
:102100001443761C0490F1E7189802C804911890C3
:10211000002904DA012040030443484204900220CD
:102120000443761C30782E2814D1042004437078A0
:10213000761C2A2809D11898761C80C8189009E0C6
:102140000A214F43303FC719761C30780146303999
:102150000929F5D930786C2810D006DC4C281AD023
:1021600068280ED06A2817D104E0742813D07A2882
:1021700012D110E00120400504430CE001210905C3
:1021800001E0032109050C437178814203D101204C
:1021900000052418761C761C3078119066280BD028
:1021A00013DC58287DD009DC00287BD04528F6D0E8
:1021B0004628F4D047281AD1A5E118E0632835D085
:1021C000642870D0652812D19DE170286CD008DC9D
:1021D0006728F1D069287BD06E280DD06F2806D1F2
:1021E000BAE073282ED0752871D0782859D01A9A61
:1021F000199990476D1C7EE16002400F022809D0BA
:1022000003280DD00428189801680DD00D60001D1A
:10221000189070E11898EA1701680D604A60F6E7B7
:10222000189801680D80F2E70D70F0E718986A467B
:1022300001781172001D18900020507202A80090C1
:10224000012005E0189802C8189000200091C043B2
:1022500061070DD5002101E00199491C0191B942A6
:1022600012DA8142F8DB009A515C0029F4D10BE0CC
:10227000002101E00199491C01918142FADB019A98
:102280000099895C0029F5D1019904981A9B471A95
:1022900021463846199A00F097FA019940194518D5
:1022A0000BE04FE02CE113E04EE00098009900783D
:1022B000491C00911A9A199990470198401E019063
:1022C000401CF2D1214638461A9B199A10E137E09A
:1022D0000A200021009001916002410F022907D0DD
:1022E000189A01CA1892C2179446032908D00AE026
:1022F0001898C01DC108C90005C91891944607E087
:1023000000B2C2179446042902D140B2C1178C46CC
:1023100000226146944506DA0A4600214042914176
:102320008C462D2102E0210504D52B216A4611732C
:10233000012103E0E10701D02021F7E7029155E0F8
:102340000A200AE0102008E010200090002104205C
:1023500004430191082703E0082000210191009027
:102360006002410F022907D0189A01CA1892002270
:102370009446032908D008E01898C01DC108C90078
:1023800005C91891944603E080B2042900D1C0B277
:1023900000210291210729D51199702906D0009AB0
:1023A0001021019B4A401A4305D00EE040216A46A5
:1023B0001173012108E06146014306D030216A46CD
:1023C00011731199517302210291009A0821019B06
:1023D0004A401A430AD16146014301D1610705D53C
:1023E00030216A46117301217F1E029111995829EB
:1023F00004D035A10E910DA90D910DE037A1F9E79B
:102400006146019B009AFEF739FA0E9B8C469B5C55
:102410000D9A521E0D92137061460143F0D10D9832
:1024200005A9081A20300190600703D50120000497
:10243000844300E001270198874201DD381A00E05B
:102440000020019900904118029809180498401A38
:102450000490E00306D421461A9B199A049800F0D0
:10246000B3F94519002706E003A81A9AC05D199927
:1024700090476D1C7F1C02988742F5DBE0030CD56A
:1024800021461A9B199A049800F09EF9451904E018
:102490001A9A3020199990476D1C0099481E009097
:1024A0000029F5DC08E00D980D990078491C0D9184
:1024B0001A9A199990476D1C0199481E019000299C
:1024C000F1DC63E10928010030313233343536372D
:1024D0003839616263646566000000003031323370
:1024E0003435363738394142434445460000000010
:1024F00000F05AF94519761C3078002800D0E2E542
:1025000028461BB0F0BD600700D406271898C01DF0
:10251000C108C90048680A680831C30FDB07189171
:10252000190001D09CA108E0210501D59BA104E080
:10253000E10701D09AA100E09AA1430011985B083D
:10254000109165280CD006DC452809D046281DD0FE
:10255000472841D141E0662818D067283CD13CE0AB
:102560000021112F01DB112000E0781C0191009067
:1025700008A911A8FFF7EEFC139905910021119A03
:1025800015927F1C12980197009150E00120C0071E
:1025900003900120019008A9009711A8FFF7DAFC29
:1025A000139A149905920022119B00921298159388
:1025B000059A0192002901D0104602E0791C4018CA
:1025C0000190381A01D5019804E04042401E009065
:1025D000781C0190C01B029043E0012F00DA012714
:1025E0000021112F01DD112000E0384601910090FB
:1025F00008A911A8FFF7AEFC13990591119A0021C3
:10260000129815920091019721070CD40599B942AF
:1026100001DB019900E00191012904DD159A491EB1
:10262000515C302906D0B84201DA011D05DA0121DA
:10263000029115E00199491EEDE7002805DC00999B
:10264000411800910199091A03E0019A411C914235
:1026500000DD01910099401A401C02900120C00742
:102660000390200706D402990198814202DB0020E2
:10267000C043029000206946C87707AF0121039844
:102680000337C907884224D0022011902B201290D2
:10269000039800280CDA404203902D20129007E0A6
:1026A0000A210398FDF744FD30317F1E03903970F5
:1026B0001199481E11900029F2DC03980028EFD1EF
:1026C000791E129808703078202108404530BF1ECE
:1026D000387006A8C01BC01D039010980078002811
:1026E00000D00120019941180298C01709180398D9
:1026F00009180498401A401E0490E00306D42146AD
:102700001A9B199A049800F05FF845191098007800
:10271000002803D01A9A199990476D1CE00324D51C
:1027200021461A9B199A049800F04EF845191CE0AE
:102730000098002807DB00990598884203DD15986A
:10274000405C199901E0199930201A9A9047009835
:102750006D1C401C00900298401E0290002804D17D
:102760001A9A2E20199990476D1C0199481E0190C4
:102770000029DDDC05E038781A9A7F1C199990470A
:102780006D1C0399481E03900029F4DC21461A9B16
:10279000199A0498ACE600002D0000002B00000000
:1027A0002000000000000000F8B5044600251E4689
:1027B0001746880404D405E039462020B0476D1C34
:1027C000641EF9D52846F8BDFFB50446002581B042
:1027D0001E46C80301D5302700E02027880404D511
:1027E00005E038460399B0476D1C641EF9D52846AC
:1027F00005B0F0BD0A68531C0B601070704710B52F
:102800000024E443142000F01FF8044620B210BD59
:1028100010B50024E443102000F016F8044620B25E
:1028200010BD10B50024E443132000F00DF8044659
:1028300020B210BD10B50024E443152000F004F8C8
:10284000044620B210BD000000B50246104600F05C
:102850008CFE002801D1401E00BD474840690C2174
:102860008843454948610846806988610846806810
:10287000C904084340498860012040490862104665
:1028800010380300FFF7C9FA0604541424344454E2
:1028900005200007406B0121084305210907486313
:1028A0003648406A000A0002401C3449486240E051
:1028B00005200007406B04210843052109074863F0
:1028C0002E48406A000A0002001D2C49486230E090
:1028D00005200007406B08210843052109074863CC
:1028E0002648406A000A000208302449486220E075
:1028F00005200007406B10210843052109074863A4
:102900001E48406A000A000210301C49486210E06C
:1029100005200007406B2021084305210907486373
:102920001648406A000A000220301449486200E05C
:1029300000BF00BF0120114908630846006A012159
:10294000C90208430D49086200BF0C48006BC0076C
:10295000C00F0028F9D00948006A0121C902884344
:1029600006490862012008631046103880004018AC
:1029700000680005000D6FE70002005000000E40E7
:10298000F8B5074622488478C57820460F304006BF
:10299000400EA84203D01320FEF72CFFF8BD601CA8
:1029A0001C490870F02002F0A1FF1A48007802F0DC
:1029B0009DFF102002F09AFF1748007802F096FF62
:1029C0001448007810301449097840184606760EED
:1029D000304602F08BFFF72002F088FFF02002F073
:1029E000AFFFFF2002F0ACFF102002F0A9FF094862
:1029F000007802F0A5FF074800780F304606760EF3
:102A0000304602F09DFFF72002F09AFF00BFC5E7B5
:102A1000E0010020660000206700002030B583B090
:102A20000446FFF77BFA054600200090024601901D
:102A300021466846FDF7A1FF2846FFF785FA019970
:102A4000009803B030BD0000F1B584B00498FDF7E4
:102A500061FE04460022084BFDF770FD0022074B83
:102A600001910090FDF7D2FD0646FDF7D7FE0290DA
:102A7000029805B0F0BD00000070A7400000B04013
:102A8000F0B589B007463846FDF738FE04462046C3
:102A9000FDF7B0FE02460B460591049000203C492C
:102AA000FDF7B4FD054600223A4BFDF739FD0791CD
:102AB0000690FDF7B3FE044637490020085EFDF797
:102AC0001DFE05462146FDF749FC0446334900201A
:102AD000085EFDF713FE054629462046FDF73EFC3D
:102AE00008900898FDF786FE0791069000F04EFDCD
:102AF0000546FDF793FE089029490020085EFDF782
:102B0000FDFD054629460898FDF728FC0890254953
:102B10000020085EFDF7FEFD0546234A234BFDF726
:102B20005BFC02460B460191009000201949FDF71D
:102B30006DFD059104900898FDF75CFE03910290ED
:102B4000059B049AFDF748FC07910690FDF766FE89
:102B500008900898FDF74EFE02460B460791069036
:102B600000200C49FDF752FD0546FDF757FE089081
:102B70000898FDF73FFE0C4A0C4B07910690FDF7B5
:102B8000CFFC0546FDF74AFE0890089809B0F0BD55
:102B900000FEAF400000F03FDA000020DE00002021
:102BA000DC000020D8000020666666666612714070
:102BB000F1B582B00298FDF7ADFD0446044A054B1D
:102BC000FDF7BCFC0646FDF729FE01900198FEBD0D
:102BD000FCA9F1D24D62803FF0B585B007461D4E8D
:102BE00004AA1DA13846FDF7DFFA04461CE004AA3A
:102BF00019A10020FDF7D8FA04462078502808D102
:102C0000601CFFF70BFF03910290FDF7B1FD05B2C9
:102C10000AE02078532807D1601CFFF7FFFE0391DC
:102C20000290FDF7FBFD0646002CE0D13146284618
:102C300002F016FC3046FDF7DDFD029003912A46B6
:102C4000019100900548017805A002F023FE05B02F
:102C5000F0BD0000000020422000000066000020BF
:102C6000472564204D31205025642C2053252E32D9
:102C7000660D0A00F1B582B001AA14A10298FDF711
:102C800093FA0446002C05D001AA10A10020FDF7FC
:102C90008BFA04462078442806D1601CFFF7BEFE5C
:102CA0000546FDF765FD47B2781C094908700948DB
:102CB00002780846017808A002F0ECFD0448037889
:102CC000FF2209A10C4802F0F8FDFEBD2000000023
:102CD0006600002067000020472564204D31302029
:102CE0005425640D0A000000472564204D31302032
:102CF0004425640D0A00000000001540F8B50746A1
:102D000008490020085EFFF79FFE0646FDF772FDAA
:102D1000044622460B460448017804A002F0BAFD9E
:102D2000F8BD0000860000206600002047256420D2
:102D30004D382043252E32660D0A000010B504469A
:102D400004480022825E0448017804A002F0A2FD3B
:102D500010BD00007600002066000020472564209A
:102D60004D35205025640D0A0000000010B50446C2
:102D700004480022825E0448017804A002F08AFD23
:102D800010BD00007E000020660000204725642062
:102D90004D362053252E32660D0A0000F8B5074641
:102DA00008490020085EFFF76BFE0646FDF722FD8E
:102DB000044622460B460448017804A002F06AFD4E
:102DC000F8BD00007A00002066000020472564203E
:102DD0004D372054252E32660D0A0000F8B50746FF
:102DE00008490020085EFFF7E3FE0646FDF702FDF6
:102DF000044622460B460448017804A002F04AFD2E
:102E0000F8BD0000820000206600002047256420F5
:102E10004D392056252E32660D0A0000F0B585B0DA
:102E200007461D4E04AA1DA13846FDF7BDF904460C
:102E30001CE004AA19A10020FDF7B6F90446207889
:102E4000502808D1601CFFF7E9FD03910290FDF7BF
:102E50008FFC05B20AE02078532807D1601CFFF7E9
:102E6000DDFD03910290FDF7D9FC0646002CE0D170
:102E70003146284602F0E6FA3046FDF7BBFC0290E8
:102E800003912A46019100900548017805A002F0BF
:102E900001FD05B0F0BD0000000020422000000050
:102EA00066000020472564204D32205025642C20E8
:102EB00053252E32660D0A00F1B584B002AA20A176
:102EC0000498FDF771F9044628E002AA1CA100202D
:102ED000FDF76AF904462078522808D1601CFFF7F4
:102EE0009DFD01910090FDF767FCC5B216E02078CA
:102EF000472808D1601CFFF791FD01910090FDF774
:102F00005BFCC6B20AE02078422807D1601CFFF7BC
:102F100085FD01910090FDF74FFCC7B2002CD4D184
:102F20003A463146284602F073FA33462A460548A7
:102F30000097017804A002F0ADFC05B0F0BD0000E0
:102F40002000000066000020472564204D342052F8
:102F500025642C204725642C204225640D0A00009E
:102F6000F1B582B001AA10A10298FDF71DF904463F
:102F7000002C05D001AA0CA10020FDF715F904468C
:102F80002078422806D1601CFFF748FD0546FDF772
:102F9000EFFB47B2F8B202F007F93A46034801786E
:102FA00003A002F077FCFEBD2000000066000020B8
:102FB000472564204D33204225640D0A000000009F
:102FC00010B5044601200549087000200449088016
:102FD0000448017804A002F05DFC10BD56000020FA
:102FE000EE00002066000020472564204D32300DA1
:102FF0000A00000010B504460D488078012813D15E
:103000000B48C07802280FD10948007903280BD15A
:1030100007484079042807D105488079052803D15D
:103020000F20FEF7E7FB02E01120FEF7E3FB10BDE7
:10303000E001002070B5FFF7EBFB04460B4804806D
:103040000B490988611A08B200F0B6FD09490880E9
:103050000748048008480078602805D100F052FE37
:103060000546284602F0BAFB70BD0000C4000020EF
:10307000C20000207E0000206700002010B501463D
:10308000F020084002110B071B0F5001024C0019E1
:103090009C00005910BD00000042005030B50546AC
:1030A0000C462846FEF726FB046030BDF1B584B01F
:1030B0000498FDF72FFB04460022104BFDF73EFA63
:1030C000019100900E480068FDF794FB0446002231
:1030D0000A4BFDF733FA0646019B009AFDF77CF98F
:1030E00003910290FDF79AFB0549086008460068C5
:1030F000FDF724FB00B205B0F0BD00000000E03F8A
:10310000D400002000200EE00B49095C0B4A11603E
:1031100000BF0B498969012212071140090F0029DC
:10312000F7D0411CC8B2074909888842ECDB00216E
:10313000044A118070470000E001002000001540A3
:10314000000005405800002070B5FF242C48058879
:1031500000F076FC2B4908604CE0294805882A4895
:103160002A490988445C2A480078002801D1F02CBB
:1031700005D027480078012804D1472C02D101202E
:10318000244908702448046000BF23488069012155
:1031900009070840000F0028F7D01C4800883F2886
:1031A00001D1002002E019480088401C174908801E
:1031B0001A480088401E19490880154800780028E0
:1031C00001D1F72C05D012480078012805D10A2C2E
:1031D00003D100200F49087010E000F031FC0949CC
:1031E0000968401A7D210901884203D900200C4951
:1031F000087003E005480088A842AED100BF70BD4A
:1032000064000020900000202001002062000020C7
:103210006800002054000020000005405C000020F1
:103220005500002070B5FF242C48058800F008FCEC
:103230002B4908604CE0294805882A482A49098812
:10324000445C2A480078002801D1F02C05D027489A
:103250000078012804D1472C02D1012024490870AC
:103260002448046000BF2348806901210907084001
:10327000000F0028F7D01C4800883F2801D100200B
:1032800002E019480088401C174908801A48008845
:10329000401E1949088015480078002801D1F72CF4
:1032A00005D012480078012805D10A2C03D100204E
:1032B0000F49087010E000F0C3FB09490968401A83
:1032C0007D210901884203D900200949087003E0E3
:1032D00005480088A842AED100BF70BD6000002044
:1032E0008C000020600100205E00002068000020AB
:1032F00055000020000005405A00002010B50A4883
:10330000007860280FD1FFF783FA08490880FFF79B
:1033100088FA07490880FFF78DFA06490880FFF709
:103320006EFA0549088010BD670000207600002075
:103330007A000020820000208600002070470000F4
:1033400010B50446502C74D014DC102C43D008DC8B
:10335000002C6BD0012C2CD00E2C68D00F2C67D1F8
:10336000DEE0112C29D0202C1BD0302C7DD0412C1C
:10337000F5D1C3E02007000F0028F0D12011801FF5
:103380000300FEF74AFD0A3F20C7120A9BCB37977E
:1033900006CB222069490870CEE02D2067490870CD
:1033A000CAE0432065490870C6E0462063490870BA
:1033B000C2E0482061490870BEE001F017FB6020C0
:1033C0005E490870B8E00021232000F087FF42200A
:1033D0005A490870B0E0012202215948FEF734F939
:1033E000022001218140574A116000BF4420534907
:1033F0000870A1E00321142000F070FF40204F4925
:10340000087099E07D21C900232001F015F87D2185
:10341000C900242001F010F87D21C900252001F009
:103420000BF821204549087086E002E01EE076E0B6
:1034300074E00121232000F051FF0121242000F03D
:103440004DFF0121252000F049FF0121322000F02D
:1034500045FF0121152000F041FF0121142000F05B
:103460003DFF24203549087066E04BE0012114201F
:1034700000F034FF0121052000F030FF012106207B
:1034800000F02CFF0121252000F028FF012126203B
:1034900000F024FF0121152000F020FF012123204E
:1034A00000F01CFF0121242000F018FF28202349F0
:1034B000087041E04520214908703DE001210620C7
:1034C00000F00CFF01210620FFF7E8FD7D21C90077
:1034D000232000F0B1FF7D21C900242000F0ACFFC3
:1034E0007D21C900252000F0A7FF7D21C9002620ED
:1034F00000F0A2FF2A20114908701DE02B200F497F
:10350000087019E00121232000F0E8FE2F200B496C
:10351000087011E04120094908700DE000BF00BFAC
:10352000002009490880094908800949088009499B
:1035300008800249087000BF00BF10BD670000206E
:10354000C040005000E100E05E000020600000206C
:10355000620000206400002010B50024E443042031
:10356000FFF78CFD044620B210BD0146102907D09C
:10357000122905D0132903D0142901D0152901D10E
:10358000012070470020FCE770477047F0B5C54A3E
:1035900000248FB091420ADA4B005B08934206D8B0
:1035A00001254A006D05EA4205D1002803D0FEF747
:1035B000A7FC0FB0F0BD01252D05A94219DA034380
:1035C00008D0002910DA0120FEF7BEFCFEF79DFCB2
:1035D0000FB0F0BD0220FEF7B7FCFEF787FC01221A
:1035E000D20751400FB0F0BD3524E4433622FDF739
:1035F000D3FA0A15AC4B1219D4180A03120BAB49B3
:10360000AB4B56182E4031465940114301923215AA
:1036100012190B920022FCF783FF019A0446921CB8
:103620001003A44E000B0D467E44032860D22046B2
:1036300073683268FDF738FB1CD10B98002815D051
:10364000FDF768F804460E469B4A9C4BFCF776FF54
:103650000D4607469A4A9B4B20463146FCF76EFFC3
:103660003A462B46FCF7B8FE0FB0F0BD71683068E3
:103670000FB0F0BD944A954B20462946FCF75EFFFB
:103680000022934BFCF752FF06460F4622462B467C
:1036900010461946FCF752FF32463B46FCF74EFFF8
:1036A00006460B980F4600281DD0FDF733F8824AD6
:1036B000824B05910490FCF741FF32463B46FCF7F4
:1036C00035FF22462B46FCF72BFF04460D467C4A6D
:1036D0007C4B05990498FCF731FF22462B46FCF7FA
:1036E0001FFF0FB0F0BD0B46324620462946C4E00E
:1036F000012300229B072046FCF76EFE02460B4684
:1037000020462946FCF782FF06460F460B98FDF738
:1037100001F832463B460591049010461946FCF7E5
:103720000DFF09910C906B490198099B421800927A
:103730000C9A19461046FCF701FF024607910A90C1
:10374000654901980B1A6548019303217844079B4A
:10375000FEF776FB079B0A9AFCF7F0FE0E905F4897
:103760000D9104217844079B0A9AFEF769FB099B97
:103770000C9AFCF7E3FE019B009A1A4300920D9B02
:103780000E9AFCF729FE009A01910C90002A4DDD5B
:103790000022D24320462946FDF7FEF922462B4659
:1037A000FCF7CCFE00910A900B9800282BD0424ADF
:1037B000424B05990498FCF7C1FE07910E90019BBE
:1037C0000C9A00990A98FCF707FE32463B46FCF734
:1037D000B5FE079B0E9AFCF7FFFD009B0A9AFCF7CB
:1037E000A5FE22462B46FCF79BFE04460D46344AB6
:1037F000344B05990498FCF7A1FE22462B46FCF7B2
:103800008FFE0FB0F0BD019B0C9A0A98FCF7E4FD07
:1038100032463B46FCF792FE009B0A9AFCF786FE76
:1038200022462B46FCF782FE0FB0F0BD0B98002815
:1038300027D0214A214B05990498FCF77FFE079178
:10384000009020462946019B0C9AFCF769FE3246FF
:103850003B46FCF773FE079B009AFCF761FE22468D
:103860002B46FCF75DFE04460D46154A154B05999F
:103870000498FCF763FE22462B46FCF751FE0FB07E
:10388000F0BD0B46204629460C9AFCF749FE32460D
:103890003B46FCF753FE22462B46FCF747FE0FB093
:1038A000F0BD00000000F07F01FCFFFF645F090035
:1038B0000000F03F2C250000763C7935EF39EA3DD9
:1038C0000000E0FE422EE63F555555555555D53F73
:1038D0000000E03F86EBF9FF51B80600D02300005E
:1038E0001CB5002001900021322000F0F7FC0021DF
:1038F000342000F0F3FC0021352000F0EFFC002123
:10390000122000F0EBFC0021052000F0E7FC002174
:10391000072000F0E3FC00BF06E0592036490860AC
:103920001620086088200860334800680128F4D118
:1039300000BFFDF7EFFE00BF00202F49086000BF69
:10394000E1204002FEF774F8E1204002FEF782F821
:10395000002003460322E121490200902748FEF798
:10396000FBF8002003460322E1214902009024488D
:10397000FEF7F2F8FEF77CF82248FEF735F8112042
:10398000FFF7DEFC01F032F800201F4908706020CC
:103990001E4908702EE0FFF745FCFFF7D5FBFFF747
:1039A000ADFC00F04DF81A49086008460068194956
:1039B0000968401A0A281DD91748007801280FD134
:1039C000164800880A2807DAFF231A461946FF20FE
:1039D000F53001F0B3FB05E000200F49087001E06D
:1039E00000F03CF8FFF726FB01F02AF908480068D0
:1039F00008490860CFE700000001005000000540C2
:103A000000001540A086010066000020670000202D
:103A10000C0000201000002056000020EE000020C6
:103A2000F8B506460C4617461D46321B069B5B1B27
:103A30005A431046391BFCF791FB4019F8BD0000B2
:103A400010B5642102480068FCF772FB10BD00004D
:103A5000140000207047704770470000F8B5FEF76B
:103A6000E0FE0746FCF74AFE0446FEF7C8FE07469E
:103A7000FCF744FE0546FEF7DDFE0746FCF73EFE7A
:103A8000064644480088401C424908804248008855
:103A9000401C414908802046FCF750FE07B23846DA
:103AA000FEF7EEFF04462846FCF748FE07B238460C
:103AB000FEF7CAFF05463046FCF740FE07B238461F
:103AC000FFF776F8064635492046FCF7CDFE04D2CE
:103AD00033480088401C3249088032480088012859
:103AE00007D100231A46FF21FF20F53001F026FB05
:103AF000F8BDFFF731FD002808D101F055FB00218A
:103B00003620FFF7CBFA012026490880224800889A
:103B10004B21C900884215D100201F490880204848
:103B20000088FF212D31884209DD002001F03CFB97
:103B300000213620FFF7B2FA01201A490880002040
:103B40001749088018492846FCF78EFE04D217480A
:103B50000088401C154908800E4800884B21C90088
:103B6000884215D100200B49088010480088FF21A9
:103B70002D31884209DD002001F016FB002136209E
:103B8000FFF78CFA012007490880002007490880C8
:103B900000BFADE7E0000020E60000200000484242
:103BA000E8000020F00000200080BB44E20000207C
:103BB00070477047704700000121C902884202DD4A
:103BC0004900411A08B20449884203DA0121090375
:103BD000411808B27047000000F8FFFFF8B506462C
:103BE00000273046FCF717FBC4B2204800780028B5
:103BF00003D101201D490870F8BD00201B49087041
:103C0000FF2C03D01A480078844221D119A13046F4
:103C1000FCF7F0FA0546002D16D017494919481C43
:103C2000FCF7F9FAC7B2FF2C09D10A2F07D04720B9
:103C300001F086FEFFF766FA0A2001F081FE0E49C8
:103C4000481900F01BF802E01220FDF7D3FD07E051
:103C5000472001F075FEFFF755FA0A2001F070FECB
:103C600001200249087000BFC6E700005300002091
:103C7000660000204D000000E001002070B5044601
:103C8000601CFCF7C8FAC5B22B00FEF7C6F8153861
:103C90000C1014181C2024282C30383838383838A8
:103CA0003838383438002046FEF796FF28E02046A2
:103CB000FFF7B4F824E02046FFF752F920E0204651
:103CC000FFF7FAF81CE02046FFF738F818E0204626
:103CD000FFF74CF814E02046FFF760F810E02046AC
:103CE000FFF70CF80CE02046FFF778F808E02046D4
:103CF000FEF7C0FF04E02046FFF762F900E000BFD6
:103D000000BF70BDF0B58DB0FE480078012807D126
:103D1000FEF77EFD07463846FFF7C8F9074602E082
:103D2000FEF776FD0746F84900228A5EB81AFCF7CE
:103D3000E5FC0990F5490998FCF78CFD01D2F348A0
:103D400007E0F3490998FCF78FFD01D2F04800E045
:103D50000998099038B2FFF7A9F938B2ED490880FF
:103D60000020085EE84908800998FCF743FD0546F5
:103D70000022E94BFCF7E2FB0022E84B03910290A2
:103D8000FCF744FC0022E64B05910490FCF7D6FBBF
:103D900007910690FCF742FD0A90E249E24800686C
:103DA000FCF79FFA079001F01FFB002802DD01F0ED
:103DB0001BFB02E001F018FB40420646FCF79EFCAC
:103DC00005460799FCF750FD74D800210A98FCF7C6
:103DD0004BFD01D20A9803E00121C9070A98484027
:103DE0000546D14801682846FCF773FA04460021CD
:103DF0002046FCF72FFD5ED001F0F6FA00285ADDD0
:103E000000212046FCF730FD01D2204603E0204689
:103E10000121C90748400546C44801682846FCF707
:103E200023FD1ED200212046FCF71EFD01D22046B4
:103E300003E020460121C90748400146079020467B
:103E4000FCF78CFA0646B94801683046FCF749FA97
:103E50000546B64801692846FCF73FFAB3490861B0
:103E60008BE000212046FCF7FFFC01D2204603E056
:103E700020460121C9074840014606902046FCF72C
:103E80006DFA064600212046FCF7EEFC01D22046E2
:103E900003E020460121C907484031460790FCF75E
:103EA00020FA0546A14801692846FCF716FA9F4901
:103EB000086162E07CE000212046FCF7CBFC5CD08E
:103EC00001F092FA002858DA00212046FCF7CCFCD9
:103ED00001D2204603E020460121C907484005469B
:103EE000924801682846FCF7BFFC1ED200212046FC
:103EF000FCF7BAFC01D2204603E020460121C907A5
:103F00004840014607902046FCF728FA06468748B5
:103F100001683046FCF7E5F9054684480169284602
:103F2000FCF786F98149086127E000212046FCF76B
:103F30009BFC01D2204603E020460121C9074840EE
:103F4000014606902046FCF709FA06460021204665
:103F5000FCF78AFC01D2204603E020460121C90774
:103F6000484031460790FCF7BCF905466F480169A7
:103F70002846FCF75DF96D4908616C4908696C4990
:103F8000FCF768FC01D26A4809E068490869694998
:103F9000FCF76AFC01D2674801E0644800696349A4
:103FA00008610869FCF7CAFB00B2634908807FE139
:103FB0005C495D480068FCF794F9079001F014FA39
:103FC000002802DD01F010FA02E001F00DFA404293
:103FD0000646FCF793FB05460799FCF73BFCE6D247
:103FE000564A0021515EC81BFCF788FB0C9001F07B
:103FF000FBF90390FCF78EFB05460022504BFCF7C3
:104000009DFA00224F4B05910490FCF7FFFA0791AF
:104010000690FCF7ADFB00B24749088000210C98E0
:10402000FCF722FC01D20C9803E00121C9070C988F
:10403000484005463B49FCF717FC61D200210C982B
:10404000FCF712FC47D22F480078012805D13E48E2
:104050000078002801D13D49486101203A490870A3
:10406000304931480068FCF73CF901900C99FCF7A5
:1040700038F900210290FCF7F7FB09D229492A48B8
:104080000068FCF72EF902900C99FCF72AF90BE076
:10409000244925480068FCF724F902900C99FCF7A4
:1040A00020F90121C90748400390FCF7A3FB05460E
:1040B00001F0CAFB0022234B05910490FCF7A6FAFD
:1040C00007910690FCF7AAFB089008990A98FCF75C
:1040D00000F90B9073E00B480078012806D11A48CC
:1040E0000078012802D100201849486100201649B3
:1040F00008700C490C480068FCF7F3F8019027E0C1
:104100009FE00000C0000020C6000020000020C288
:1041100000002042C400002000005940002CB140A3
:1041200000004E400000A040D000002040020020CF
:1041300000007FC300007F43CE000020C8000020A5
:104140000080194000001440C1000020200200201F
:104150000C99FCF7C6F800210290FCF785FB09D208
:10416000564957480068FCF7BCF802900C99FCF7D8
:10417000B8F80BE0514952480068FCF7B2F80290D9
:104180000C99FCF7AEF80121C90748400390FCF7F1
:1041900031FB0591049001F057FB0122D2075140F9
:1041A00005460022474BFCF731FA07910690FCF7D1
:1041B00035FB089008990A98FCF78BF80B90424958
:1041C00048690B99FCF734F83F4948613F4800784B
:1041D00001281AD188680B99FCF783F83A490790AF
:1041E00008680C99FCF77DF8064639490020085EFE
:1041F000FCF784FA31460690FCF71AF80546079951
:10420000FCF767F83049086138E02F4A5169506877
:10421000FCF767F82C49079088680B99FCF761F860
:1042200006462B490020085EFCF768FA31460690E6
:10423000FCF74FF805460799FCF74BF8224908614F
:104240001CE001202149087000201F4948610890A6
:1042500008990A98FCF73DF80B901B4908680C99DF
:10426000FCF73FF805461A490020085EFCF746FABD
:1042700006462946FBF7DCFF134908611249086925
:104280001449FCF7E7FA01D2124809E00E4908691F
:104290001149FCF7E9FA01D20F4801E00A48006928
:1042A000094908610869FCF749FA00B20849088021
:1042B00007490020085E0DB0F0BD00000000A040DE
:1042C000D00000200000144020020020C000002088
:1042D000CE00002000007FC300007F43F8B50446F5
:1042E0000D46F020204006112107090F01208840CB
:1042F000C7B23300FDF791FD05040A11181F26000F
:104300002A4639461148FDF7ACF91CE02A463946E1
:104310000E484030FDF7A5F915E02A4639460B480E
:104320008030FDF79EF90EE02A4639460748C03036
:10433000FDF797F907E02A4639460448C030FDF7F3
:1043400090F900E000BF00BFF8BD00000040005041
:1043500010B534480078002806D11020FDF74AFA3D
:1043600001203049087010BD00202E4908702E48E9
:104370000078FF2805D02C4800782C49097888421D
:1043800043D129480078FF280BD1274840781028CE
:1043900007D0F02001F0D4FAFEF7B4FEF72001F0C8
:1043A000CFFA00242EE00C2060432149085C1E490E
:1043B0004978884224D11F480078002811D01A4833
:1043C00040781C49097888420BD017484078001182
:1043D000012806D01220FDF70DFA012011490870BE
:1043E000C1E70C206043124940188068002806D0BD
:1043F0000C2060430A46801881680020884703E04B
:10440000601CC4B21C2CCED307E0F02001F098FA57
:10441000FEF778FEF72001F093FA012001490870B9
:1044200000BFA0E751000020E0010020660000204E
:10443000805900006700002070B505460C462846EC
:1044400020388000E3490C500121284620388000A4
:10445000E14A11502146E148FBF780FE0446284618
:1044600020380300FDF7D9FC080535679FD7FDFC10
:10447000FBFADB4840690020D9494861084680685A
:10448000C9020843D6498860D64880680821084395
:10449000D449886008460068000A00020B300860B2
:1044A00008464068C008C000001D4860CD48403044
:1044B000C06B01210843CB494031C8630520000788
:1044C000806B89150843052109078863C548C460C6
:1044D0007DE1C34840690020C149486108468068C1
:1044E000C9020843BE498860BE4880680121C902EC
:1044F0000843BC49886008460068000A00020B3087
:10450000086008464068702188434030B5494860DB
:10451000B4484030C06B02210843B2494031C863FF
:1045200005200007806B49150843052109078863AA
:10453000AC4884614BE1AA4840690020A849486121
:104540000846806809030843A5498860A548806833
:1045500089020843A349886008460068FF210902D0
:1045600088430B21090240189E49086008464068AC
:1045700007210902884301218902401899494860AE
:1045800098484030C06B0421084396494031C863C5
:1045900005200007806B091508430521090788637A
:1045A0009048446213E18E48406900208C4948617C
:1045B00008468068090308438949886089488068FB
:1045C000890408438749886008460068FF2109027A
:1045D00088430B2109024018824908600846406858
:1045E0000721090388430121890340187D49486058
:1045F0007C484030C06B082108437A494031C86389
:1046000005200007806BC91408430521090788634A
:1046100074480463DBE07248C06900207049C861D7
:1046200008468068490308436D4988606E48806881
:10463000082108436C49886008460068000A0002A7
:104640000B30086008464068C008C000001D486084
:1046500065484030C06B0121084303E0B6E07CE0D0
:1046600042E00EE060494031C86305200007806BDE
:104670000121090308430521090788635A48C460DA
:10468000A5E05748C06900205549C86108468068C0
:104690004903084352498860534880680121C90290
:1046A00008435149886008460068000A00020B3040
:1046B0000860084640687021884340304A49486095
:1046C00049484030C06B0221084347494031C86324
:1046D00005200007806B01214903084305210907D4
:1046E00088634148846172E03D48C06900203C49CC
:1046F000C8610846806889030843394988603A4898
:104700008068890208433849886008460068FF21AC
:10471000090288430B210902401833490860084602
:1047200040680721090288430121890240182E4967
:1047300048602D484030C06B042108432A4940316D
:10474000C86305200007806B012189030843052108
:10475000090788632448446239E02148C069002081
:104760001F49C86108468068890308431C4988605E
:104770001D488068890408431B4988600846006812
:10478000FF21090288430B210902401816490860DD
:10479000084640680721090388430121890340181E
:1047A0001149486010484030C06B082108430E4949
:1047B0004031C86305200007806B0121C90308430D
:1047C0000521090788630848046300E000BF00BFB3
:1047D00070BD00002C0000200001002040420F00AE
:1047E0000002005000000440000014407047000028
:1047F000FFB583B00D4616461F46002002902C469A
:104800000398203880001049085802900F480299F8
:10481000FBF7A4FC0290B44201DA304604E0BC424B
:1048200001DD384600E020460446029800233A465F
:10483000314600902046FFF7F3F8044621460398DE
:1048400000F006F807B0F0BD2C00002040420F0039
:1048500000B50246203A1300FDF7DFFA08050D16F1
:104860001F283039424B244A1161926801231A43B0
:10487000214B9A603EE0204AD1619268FF230133C8
:104880001A431D4B9A6035E01B4A916292680123DE
:104890001B041A43184B9A602CE0174A5163926824
:1048A00001231B061A43144B9A6023E0134A11613B
:1048B000926801231A43114B9A601BE00F4AD161A1
:1048C0009268FF2301331A430C4B9A6012E00B4AA3
:1048D0009162926801231B041A43084B9A6009E015
:1048E000064A5163926801231B061A43034B9A60E0
:1048F00000E000BF00BF00BD000004400000144005
:1049000010B50246505C4006400E184C2070481C02
:10491000105CC007030E2046007818432070481C26
:10492000105C40106070881C105C8007030E2046ED
:104930004078C0186070881C105C8010A070C81C83
:10494000105C4007030E20468078C018A070C81C79
:10495000105CC010E070081D105C0007030E2046BC
:10496000C078C018E0702046006810BDA00000208C
:1049700030B50346585C4006400E0E4D2870481C6A
:10498000185CC007040E2846007820432870481C95
:10499000185C40106870002A07D1881C185C8007DA
:1049A000040E2846407820436870024D0020285E9F
:1049B00030BD0000A40000207047704710B50246CB
:1049C000505C4006400E064C2070481C105CC0072E
:1049D000030E20460078184320702046007810BD52
:1049E000A6000020704770477047000010B50121F5
:1049F0002520FFF773FC01212620FFF76FFC012122
:104A00002420FFF76BFC01213620FFF767FC002113
:104A10003620FEF743FB7D21C9002520FFF70CFD62
:104A20007D21C9002620FFF707FD7D21C900242034
:104A3000FFF702FD2D492220FFF7FEFC2B49232022
:104A4000FFF7FAFCFF23002219462520FFF7D0FECE
:104A5000FF23002219462620FFF7CAFEFF2300226B
:104A600011462420FFF7C4FEFDF7D2FE204908803E
:104A70000020085E1F4908801D490020085E1E496D
:104A800008801B490020085EFBF738FE1B490860C0
:104A90001B481C49086000201B4908800120800732
:104AA0001A4908601A484860FF208005886012494A
:104AB0000020085EFBF722FE1449C8600020486110
:104AC0001448154908600020486088600D48006857
:104AD000C860002048611148114908600020486002
:104AE0008860C860486100F05FFB10BD204E000088
:104AF000C4000020C6000020C8000020D400002010
:104B000000002042D0000020F00000202002002001
:104B10009A99193FCDCC4C40400200206666E63F92
:104B200060020020704700001CB503460020009082
:104B300001902648036000784006400E69460870E0
:104B4000087800F0D3FE2148407840001F490978DA
:104B5000C91108434006400E69464870487800F085
:104B6000C5FE1A48807880001849497889110843A1
:104B70004006400E69468870887800F0B7FE1348FA
:104B8000C078C00011498978491108434006400E99
:104B90006946C870C87800F0A9FE0C48C0780011BA
:104BA00069460871087900F0A1FE694608784978DD
:104BB00040186946897840186946C978401869469E
:104BC000097940184406640E20461CBDA000002050
:104BD00038B504460D460020009020B217490880E1
:104BE000084600784006400E69460870087800F0D4
:104BF0007DFE12484078400010490978C9110843E9
:104C00004006400E69464870487800F06FFE6946DD
:104C1000087849784018C3B2002D0DD10748407874
:104C200080116946887068468078C018C3B25B06F8
:104C30005B0E887800F05AFE184638BDA4000020AC
:104C400010B575480088002870D074480078602836
:104C50006DD173480088012819D172490020085E7F
:104C6000714900228A5E801A002807DD6D49002004
:104C7000085E6D4900228A5E801A06E06A490020BB
:104C8000085E684900228A5E801A052803DC6448B1
:104C90000088022809D164490020085E6149088023
:104CA00061490020085E00F0FDF860480088012896
:104CB00019D15F490020085E5E4900228A5E801A91
:104CC000002807DD5A490020085E5A4900228A5E02
:104CD000801A06E057490020085E554900228A5E86
:104CE000801A052803DC51480088022809D151495F
:104CF0000020085E4E4908804E490020085E00F002
:104D00003DF94D48008801281BD14C490020085E20
:104D10004B4900228A5E801A002809DD474900209D
:104D2000085E474900228A5E801A08E072E06FE060
:104D300043490020085E414900228A5E801A022809
:104D400003DC3D480088022809D13D490020085E67
:104D50003A4908803A490020085E00F0C7F839480F
:104D60000088012819D138490020085E37490022FF
:104D70008A5E801A002807DD33490020085E334927
:104D800000228A5E801A06E030490020085E2E4923
:104D900000228A5E801A0A2803DC2A48008802283A
:104DA00009D12A490020085E2749088027490020A8
:104DB000085E00F007F926480088012819D1254926
:104DC0000020085E244900228A5E801A002807DD40
:104DD00020490020085E204900228A5E801A06E0F1
:104DE0001D490020085E1B4900228A5E801A0A289D
:104DF00003DC17480088022809D117490020085E03
:104E00001449088014490020085E00F027F800E0EB
:104E100000BF00BF10BD00006A0000206700002036
:104E20006C00002078000020760000206E0000203A
:104E30007C0000207A00002070000020800000200C
:104E40007E000020720000208400002082000020EC
:104E500074000020880000208600002030B5054640
:104E6000F02000F043FD0E48007800F03FFD602088
:104E700000F03CFD262000F039FD0948007886301E
:104E8000C4B200212846FFF7A3FE0019C4B264068D
:104E9000640E204600F02AFDF72000F027FD30BD0B
:104EA0006600002030B50546F02000F01FFD0E48DA
:104EB000007800F01BFD602000F018FD222000F0BB
:104EC00015FD094800788230C4B200212846FFF75A
:104ED0007FFE0019C4B26406640E204600F006FD91
:104EE000F72000F003FD30BD66000020F0B587B06C
:104EF00007463846FBF702FC06900698FBF77AFC5B
:104F000005460022194BFBF719FB0022184B0191B3
:104F10000090FBF77BFB0022164B03910290FBF7FE
:104F20000DFB05910490FBF779FC0690F02000F052
:104F3000DDFC1148007800F0D9FC602000F0D6FCC0
:104F4000232000F0D3FC0C4800788330C4B20698CC
:104F5000FFF7EAFD0019C4B26406640E204600F0B3
:104F6000C5FCF72000F0C2FC07B0F0BD00005940BE
:104F7000002CB14000004E406600002030B50546D0
:104F8000F02000F0B3FC0E48007800F0AFFC602089
:104F900000F0ACFC252000F0A9FC09480078853021
:104FA000C4B200212846FFF713FE0019C4B26406FC
:104FB000640E204600F09AFCF72000F097FC30BD0C
:104FC0006600002030B50546F02000F08FFC0E484A
:104FD000007800F08BFC602000F088FC272000F0B7
:104FE00085FC094800788730C4B200212846FFF7C5
:104FF000EFFD0019C4B26406640E204600F076FC92
:10500000F72000F073FC30BD6600002010B5C269C7
:105010000AE00B780360491C00BF83690124240760
:1050200023401B0F002BF8D00B78002BF1D110BDC3
:1050300000B5034603E018785B1C00F057FC1878B5
:105040000028F8D100BD000038B505462F48847807
:105050000F20FCF7CFFB002C1CD1E1204002FCF715
:10506000E7FCE1204002FCF7F5FC002003460322A8
:10507000E121490200902648FCF76EFD002003461E
:105080000322E121490200902248FCF765FDFCF76C
:10509000EFFC3AE0012C1CD1E1200003FCF7C8FC36
:1050A000E1200003FCF7D6FC002003460322E121A7
:1050B000090300901648FCF74FFD00200346032229
:1050C000E121090300901348FCF746FDFCF7D0FCF2
:1050D0001BE0E1204002FCF7ABFCE1204002FCF7C2
:1050E000B9FC002003460322E12149020090084850
:1050F000FCF732FD002003460322E1214902009023
:105100000448FCF729FDFCF7B3FC38BDE0010020A2
:1051100000000540000015407047000010B504462F
:105120000120044908700020034908800F20FCF783
:1051300061FB10BD56000020EE000020F8B50446CB
:105140000D4616461F46FEF77BFC14490968401AB7
:10515000A04213D912480088002803D10120104929
:10516000088002E000200E4908800E480088401C9C
:105170000C490880FEF764FC08490860084800886C
:10518000012805D13A463146284600F041F904E0AD
:1051900000221146104600F03BF9F8BDF400002053
:1051A000EC000020EE00002010B50446002C07D1D2
:1051B00000213620FDF772FF601E0449088003E0DD
:1051C00001213620FDF76AFF10BD0000C800002055
:1051D00010B50446FF23002219462220FFF708FBE2
:1051E000FF20011B034600222320FFF701FB10BD17
:1051F000FEB566488778384610380300FCF70DFE88
:10520000180D0E29BFBFBF444DBFBFBFBFBFBFBF3B
:10521000BF68696A7BBF8C9DAEBFB4E000220121EC
:105220005A48801CFFF7A4FB05465948008805280A
:1052300006DD04215548801CFFF762FB044600E0B0
:10524000544C2146284600F00BF90F20FCF7D2FA07
:1052500099E0002201214D48801CFFF789FB05469B
:105260004B480088052806DD04214848801CFFF7CC
:1052700047FB044600E0484C2146284600F0E2F88F
:105280000F20FCF7B7FA7EE04048C6783046FFF7BB
:105290008BFF0F20FCF7AEFA75E001213B48801C24
:1052A000FFF78CFB029003213848801CFFF786FB38
:1052B000019005213548801CFFF780FB0090009A83
:1052C0000199029800F0A4F80F20FCF793FA5AE035
:1052D00059E058E02D48C0783049088030480088AF
:1052E0000988401800B22E4908802E490020085E27
:1052F000FFF7D8FD47E02548C0782B4908802848AB
:1053000000880988401800B22549088027490020F4
:10531000085EFFF7EBFD36E01C48C07824490880A2
:105320001F4800880988401800B21D49088021499B
:105330000020085EFFF722FE25E01448C0781E49D1
:105340000880174800880988401800B2144908806E
:105350001A490020085EFFF781FD14E00B48C07871
:10536000174908800E4800880988401800B20C4987
:10537000088014490020085EFFF724FE03E0112096
:10538000FCF738FA00BF00BFFEBD0000E0010020BE
:10539000580000200000204200007F436C000020E5
:1053A0006A00002076000020700000207E000020AF
:1053B0006E0000207A00002074000020860000208B
:1053C000720000208200002010B50446FF20011B5F
:1053D000034600222220FFF70BFAFF230022194682
:1053E0002320FFF705FA10BD07490020085E401C86
:1053F000002806D00020085E044900228A5E801A38
:1054000070470020FCE70000C8000020C400002016
:1054100070B504460D461646FF20011B03460022C8
:105420002520FFF7E5F9FF20411B03460022262037
:10543000FFF7DEF9FF20811B034600222420FFF73F
:10544000D7F970BD70B504460D460449098809199D
:1054500008B2294600F004F870BD0000C400002026
:10546000F0B587B004460F46C82C02DBD048844212
:1054700001DD07B0F0BD01213620FDF70FFE002051
:10548000CC490870CC494861CC494861CC4804807B
:1054900000213846FBF7E8F901D2384603E03846E8
:1054A0000121C9074840C7490860C749C548006885
:1054B000FAF717FF0590FFF797FF002802DDFFF7C7
:1054C00093FF02E0FFF790FF40420646FBF716F914
:1054D00005460599FBF7C8F976D8BA480068FBF786
:1054E00089F905460022B94BFBF728F8059104908D
:1054F000FBF794F9B0490861FFF776FF002848DD13
:105500000120B3490870B34900228A5E002A03DDF6
:105510000A460021515E03E0AE4900228A5E5142F4
:105520000846FBF7EBF80646A34908690021FBF79C
:105530009BF902D2A048006904E09F48006901215C
:10554000C907484005463146FBF78EF90ED29A4905
:1055500008690021FBF788F902D29748006915E035
:10556000954800690121C90748400FE09949002288
:105570008A5E002A03DD0A460021515E03E0954958
:1055800000228A5E51420846FBF7B8F88A49086152
:1055900004E100208E4908708E490A5E002A02DD6F
:1055A0000A46115E03E08B4900228A5E514248425E
:1055B000FBF7A4F80646804908690021FBF754F977
:1055C00003D27D48006905E031E07B480069012194
:1055D000C90748400121C907484005463146FBF745
:1055E00039F911D2744908690021FBF73DF902D25B
:1055F0007148006904E0704800690121C90748400A
:105600000121C90748400FE0724900228A5E002A42
:1056100003DD0A460021515E03E06E4900228A5EE6
:1056200051424842FBF76AF863490861B6E0FFF768
:10563000DBFE002802DDFFF7D7FE02E0FFF7D4FE15
:1056400040420190FBF766F8054600225F4BFAF7EF
:1056500075FF0022604B03910290FAF7D7FF059186
:105660000490FBF7DBF854490861FFF7BDFE002802
:1056700048DD012056490870564900228A5E002AFA
:1056800003DD0A460021515E03E0524900228A5E92
:1056900051420846FBF732F806464749086900219F
:1056A000FBF7E2F802D24448006904E0424800698E
:1056B0000121C907484005463146FBF7D5F80ED20F
:1056C0003D4908690021FBF7CFF802D23A4800694A
:1056D00015E0394800690121C90748400FE03D49FC
:1056E00000228A5E002A03DD0A460021515E03E0A3
:1056F000384900228A5E51420846FAF7FFFF2E49D8
:1057000008614BE000203249087032490A5E002AE5
:1057100002DD0A46115E03E02E4900228A5E5142F4
:105720004842FAF7EBFF0646234908690021FBF7D8
:105730009BF802D22048006904E01F48006901215B
:10574000C90748400121C907484005463146FBF7D3
:1057500081F811D2184908690021FBF785F802D2B7
:105760001548006904E0144800690121C907484050
:105770000121C90748400FE0164900228A5E002A2D
:1057800003DD0A460021515E03E0124900228A5ED1
:1057900051424842FAF7B2FF0749086106490869D1
:1057A000FAF7CCFF00B20B49088000BF61E60000A9
:1057B0003C0F0000C000002040020020200200201A
:1057C000C8000020D00000200000A0400080194048
:1057D000C1000020CE0000200000144070B5054636
:1057E0002C46FDF715F8154908800020085E14497D
:1057F000884204DC11480021415EC82907DAFF23F2
:1058000000221146FF20F530FFF798FC70BD0D49CE
:105810000020085E401C002800D1F7E7002C03DDC3
:10582000E0B2FFF7D1FD07E0002C01DD214600E0EA
:105830006142C8B2FFF7CCFC00BFE7E7C40000201C
:105840003C0F0000C8000020F8B506460C46FBF7E8
:10585000B9F905000F4600D00120014349000B486B
:105860004908411AC90F0DD0002E01D0012100E0D6
:1058700000210C4361004908401AC00F02D10120E9
:10588000FCF762FB28463946F8BD00000000F07FB7
:10589000704770470FB400B591B013A810906846D8
:1058A000109A1299FCF790FA6846FFF7C1FB0020A6
:1058B000109011B008BC04B018470FB410B5A2B0D6
:1058C000044626A8219001A8219A2599FCF77CFA84
:1058D00001A92046FFF79AFB0020219022B010BCBE
:1058E00008BC04B018477047704700001049098889
:1058F0003F2914DA0F49104A128888540E49098842
:105900003F2901D1002102E00B490988491C0A4ABC
:10591000118007490988491C054A118006E00021C9
:10592000034A1180044A1180044A11807047000024
:105930005C000020200100206400002062000020A4
:105940000549086000BF0449896901221207114016
:10595000090F0029F7D070470000154070477047C5
:10596000001BB7000000000080F0FA0210270000C2
:105970000000000000000000000000000080510155
:10598000100000000000000081290000110000004C
:1059900000000000915800002000000000000000FE
:1059A0001D510000130000000000000049500000DD
:1059B0001400000000000000F52F00001800000097
:1059C000000000005D590000190000000000000008
:1059D000E95800001A00000000000000E74900003C
:1059E0001B00000000000000E54900001C00000052
:1059F00000000000195100001D0000000000000020
:105A0000BB4900001E00000000000000B949000072
:105A10002100000000000000ED470000220000000F
:105A2000000000005F59000024000000000000009A
:105A3000553A00002800000000000000254B00003F
:105A400029000000000000003D3300002A00000093
:105A500000000000573A00002B000000000000008A
:105A6000B33B00002C00000000000000593A000089
:105A70002D00000000000000B13B00002E000000DF
:105A800000000000E75800002F00000000000000A8
:105A9000893500004000000000000000935800001D
:105AA0004100000000000000B53B00004200000083
:105AB000000000008B3500004700000000000000DF
:105AC000E94900006000000000000000F151000002
:105AD000001BB70000000000000000000080510122
