:020000040000FA
:1000000088060020D5000000FB000000FD00000075
:1000100000000000000000000000000000000000E0
:10002000000000000000000000000000FF000000D1
:1000300000000000000000000101000003010000BA
:100040000501000005010000050100000501000098
:10005000050100000D16000005010000050100006B
:10006000C91900000501000005010000050100009C
:10007000351A0000591A00000501000005010000B2
:100080000501000005010000A116000005010000A7
:100090000501000005010000050100000501000048
:1000A0000501000005010000050100000501000038
:1000B0000501000005010000050100000501000028
:1000C0000348854600F018FE00480047213900002B
:1000D000880600200C480D4901600D4901600D495A
:1000E00001600D4A0D4911600D4A0E491160002151
:1000F00001600D4880470D480047FEE7FEE7FEE738
:10010000FEE7FEE7FEE70000000100505900000096
:10011000160000008800000024000050A55A0000CE
:10012000800300501F000000C9180000C10000003B
:1001300030B50B46014600202022012409E00D467F
:10014000D5409D4205D31D469540491B2546954007
:1001500040191546521E002DF1DC30BD70B500244B
:100160002546002801DA01244042002901DA012550
:100170004942FFF7DDFFAC4200D04042002C00D0E6
:10018000494270BD03460B439B0703D009E008C9F1
:10019000121F08C0042AFAD203E00B780370401C37
:1001A000491C521EF9D2704770B5002800D1106862
:1001B000002514E00B4602E0A64203D05B1C1C782D
:1001C000002CF9D1E3B22B4307D0002C06D0002D30
:1001D00004D000210170401C04E00546401C067854
:1001E000002EE7D11060284670BD014ADCE7000010
:1001F000FC00002030B50546002008E00A4602E079
:10020000A34207D0521C1378002BF9D1401C2C5C60
:10021000002CF3D130BD70B5064601F013FE046822
:1002200005460A220021304600F0F2FB2C6070BD2A
:10023000F8B502464A40D40F42004B0052085B0812
:100240009A4202D20246084611464A0023D0C30D04
:100250004A00DDB2120EAD1A202D35DA4902012610
:10026000490AF6058A19002C00D0524220214F1B62
:100270001146B9402A411018C20D9A4221D0002CD3
:1002800017D0012D08DCDA05801AD20F8019D207A9
:10029000DBB200F0FDFBF8BDDA05801A0123400057
:1002A0001B06C01880185A428018CA0F1043490014
:1002B00007E04908C2071143DA05801A801940088F
:1002C000801800F0DDFBF8BD61000122511A001B0F
:1002D000F7E70122D2075140AAE70122D207504096
:1002E000A6E7024670B54A40D30FDB0740002DD089
:1002F0004A002AD0010E140E000212020919400A07
:10030000520A8418E50104465443000A120A2E04D6
:100310005043A4194219200CC543AA18120C0125F8
:10032000AD03521C521912047F39240400D0521C10
:10033000104301D44000491EC2B20C06C009201867
:10034000401C4008802A02D003E0002070BD400815
:100350004000002900DA0020184370BD70B5024645
:100360004A40D50F40004A00ED07400852080028D7
:1003700014D0002A12D0C40DD30D41020120C005B3
:100380005202490A520AE41A091812187D3491429D
:1003900001D3641C00E04900002C01DA002070BD8C
:1003A0000023914201D3891A0343400849000028E1
:1003B000F7D100290AD0914202D10121C90705E0F5
:1003C000914201D2012101E00121C943E005C01899
:1003D000401900F055FB70BDF0B50746084658407F
:1003E00087B0C00F049048000E46590040084908E5
:1003F000BC1A884105D2384631461E4617460B4680
:1004000002465800400810434CD0300D0390400580
:100410005900400D490D0590401A0290402872DAAB
:1004200018030121000B090508430190049800926C
:10043000002805D001995242002088410092019085
:10044000029840210A1A0199009800F05BFA0546CB
:100450000C466B4607CB00F076FAC0197141039A3F
:100460000E0D0023D71756401A467A40164344D043
:10047000049A002A2DD0029A012A039A15DC12054B
:10048000C01A914101263605001C7141D20F059E0C
:10049000D2070093019202962A46234600F03EFBC3
:1004A00007B0F0BD38463146FAE71605224A0F4636
:1004B000B218C01AB74101210905001C4F410018AC
:1004C0007F41114618187941E20F10436D196441BC
:1004D00013E0E2076D0815436408C2071443039A4A
:1004E00001261205C01A91413605001C7141CE0744
:1004F000400830434908C01851412A46234600F0BD
:1005000000FBCDE7FFE7049801224000C117121A53
:1005100000238B4104983146C417381AA141EEE7F5
:1005200030B40124E407634030BC55E730B4012403
:10053000E407614030BC4FE70000E0FFF0B51FB4B6
:1005400088B00B990998002448400999C00F4900C8
:1005500049080991C0070B990090490049080B917F
:1005600009990898A64608431CD00B990A98084395
:1005700018D0099801244000420D4800410D099807
:1005800024050003000B204309900B980003000B87
:1005900020430B9050181C4940180022019014462B
:1005A000104605E0002001460DB0F0BD032801DA39
:1005B000034600E003239C46C11A0AAE0AE05F002E
:1005C00008ADED5B4F00F75B7D430027AA187C4127
:1005D000491C5B1E6145F2DD410004AB5A52210407
:1005E000120C0A43240C401C0828DFDB01980290FF
:1005F0000099704601910090059B049A079906980E
:1006000000F08CFAD0E700000DFCFFFFF0B50C46BF
:100610005C4085B0E40FE40703944C0000266408B6
:1006200059009446490802460296224321D0624668
:100630000A431ED06200570D4A000E032303550DD6
:10064000012402462C492405781B1B0B360B40184D
:1006500023432643614600901C46501AB44103D3FD
:100660000098401C009002E0921800985B4100281E
:1006700003DA0020014605B0F0BD00200121090584
:100680000746864611E064461D46141BB54106D355
:100690006546521BB341744607430C43A646CD073B
:1006A00040084908284392185B4105460D43EAD1AA
:1006B0001046184313D06046194650407140084315
:1006C00006D06046101AB34106D20122002306E08C
:1006D00000220123DB0702E00122D24353100098DD
:1006E00074460105381C6141029C039D0019694153
:1006F00000F007FABFE70000FD030000C217C10FBA
:10070000504010B54018CA079623002100F0C0F9E8
:1007100010BD00000EB5C217C10F5040CA074018E7
:100720000021054B0293019200910A460B4600F00E
:10073000F5F903B000BD000033040000C20F410012
:1007400040020123400ADB05D207090EC0187F29A9
:1007500001DA00207047962903DC9623591AC84015
:1007600001E096398840002AF4D0404270470000EA
:1007700070B5CD0F4A0009030123090B1B0519436E
:100780000B4BED070024520D9A4201DA002070BD98
:10079000074B34339A4203DC9A1A00F0C3F802E0A4
:1007A0000449511888402C43F1D0404270BD0000EC
:1007B000FF030000CDFBFFFF4A0009030123090BE3
:1007C0001B051943094B10B5520D9A4201DA00205E
:1007D00010BD064B34339A4203DC9A1A00F0A2F89B
:1007E00010BD03495118884010BD0000FF030000F0
:1007F000CDFBFFFFC20FD207400040080BD0C10D58
:100800000723DB01C91840020905400A1143C20849
:1008100040071143704700200146704710B500297A
:1008200004DB0124E40740428C412146002B04DB19
:100830001C460123DB075242A3418B4200D1824276
:1008400010BD0000CB0FDB07490010B54908024678
:100850000A4307D00A0D07240903E401090B121B00
:10086000002A01DC002010BDC900440F0C43C10068
:10087000E018D205801800F003F910BD0122D2075C
:10088000002800DB101A002900DB511A8142704752
:100890000122D207002800DB101A002900DB511AC0
:1008A00088427047F0B51FB40646002082B0054666
:1008B0004024019100901BE0019922460F463046EA
:1008C00000F030F8049A059B801A994110D3104625
:1008D0001946224600F016F8361A8F410197224633
:1008E00001200021009F00F00DF838184D410090C4
:1008F0002046641E0028DFDC019B00982946324612
:1009000007B0F0BD10B5202A04DB0146203A914023
:10091000002010BD914020239C1A0346E340194358
:10092000904010BD10B5202A04DB0846203AD04084
:10093000002110BD0B46D340D0402024A21A914084
:100940000843194610BD10B5202A06DBCB17084610
:10095000203A1041C1170B4306E00B461341D0402B
:100960002024A21A91400843194610BD0FB400B5C7
:1009700089B00CA900910B990023CB60204B214A30
:1009800006930792042201921F4A02921F4A08927C
:1009900002466B46002000F04AFA09B008BC04B0D9
:1009A000184770B586B006460020C043019000206D
:1009B00015460C460091029104903246694604A8FF
:1009C000FFF7D4FF034604982118002D05D0002816
:1009D00001D00A4600E022462A6000280DD0002BF4
:1009E00002DD0098884208D0081B0190009432462E
:1009F0006946029404A8FFF7B9FF06B070BD000075
:100A000085100000A5100000FFFFFF7F250D0000EE
:100A1000F7B5009C0F4600262578641C002D05D0F4
:100A200000F07CF90068405DC007F5D12B2D02D0A5
:100A30002D2D18D0641E39462046029A00F044FB42
:100A4000002F04D03968A14201D1009939607105A5
:100A5000022400290BDA4042002803DD01F0F2F9FC
:100A60000460A007FEBD012080020643E3E70028E2
:100A7000F8DA01F0E7F904600048FEBDFFFFFF7FF0
:100A8000002904DA401C490001D1400840007047A9
:100A900070B40024050C05D11024000402D10029F3
:100AA00021D01124050E01D100020834050F01D117
:100AB0000001241D850F01D18000A41C002801DB4A
:100AC0004000641C002908D020252E1B0D46F5404F
:100AD000A14000D001212943084301061B1B000A45
:100AE000DB1D02D5002070BC7047DB05181880188C
:100AF0000029F8DA401C4900F5D170BC40084000DC
:100B0000704710B5002B08DA0024401C6141921890
:100B10005B411A4301D14008400010BDF0B51FB43D
:100B200082B005460C0003D0084601F065F902E0EA
:100B300001F062F920300246009021462846FFF776
:100B4000E1FE049B059A04460F46184311430843EF
:100B500014D0184610431BD0009840210A1A18469A
:100B60000599FFF7DFFE05460E46009A05990498A1
:100B7000FFF7C8FE084305D0012004E020463946AF
:100B800007B0F0BD0020C11705430E432C43374387
:100B900000990E986305401A7905E40A00220C4377
:100BA000FD0A0A3002D500200146E9E701051019C7
:100BB00069410C9C0D9D00196941FFF7A2FFDFE719
:100BC00070B54B005B0803430BD04B005C0D002657
:100BD00033466542B341D417AD1AA34102DB00206E
:100BE000014670BD12053018514170BDFEB500239D
:100BF0001A461B1A8A4103DB0020014603B0F0BDF0
:100C00004A000D0301212D0B0905520D0D43D1079B
:100C100002D100186D41521E5110FF31FF310131D8
:100C2000002704463E4638460097019102460121BE
:100C300000200905FFF776FEC3197141F818324606
:100C400084468E464A4161462846611A904104D343
:100C50006046241A954176461F46241900986D4136
:100C6000401C00903428E1DDF91930467041091B21
:100C7000A84103D20022D243134601E000221346CA
:100C800001980105381C7141FFF73BFFB6E70000F2
:100C90004A0009030123090B1B0519430A4B10B530
:100CA000520D9A4202DA0020014610BD064B343341
:100CB0009A4203DC9A1AFFF735FE10BD034BD21897
:100CC000FFF720FE10BD0000FF030000CDFBFFFF7B
:100CD00010B5002904DB0124E40740428C41214681
:100CE000002B04DB1C460123DB075242A34199423F
:100CF00000D1904210BD0000064C0125064E05E0D3
:100D0000E36807CC2B430C3C98471034B442F7D32C
:100D1000FFF7DAF9105C0000305C00000048704713
:100D20000C5C000010B50446FFF7F8FF0068005D9A
:100D3000C007C00F10BD0000FFB5087885B015468C
:100D4000FF2805D0491C2D2804D00022002407E0EC
:100D500000240BE00122F9E70A235C430419491C33
:100D60000878FF28F8D1002A00D0644200200190C2
:100D70002A7801462D2A01D02B2A04D16D1C2D2A58
:100D80000DD00022019200262F78FF2F09D00A22D1
:100D900000236D1C00F0EBF938187141F4E70122D3
:100DA000F0E7089AA218039202460A430DD00024E5
:100DB000B24AB14D2646009200F026FA04900398FC
:100DC0000291002807DA47421AE0002105980A46F6
:100DD00006C009B0F0BD074612E0F80707D022466A
:100DE0002B4630460099FFF7A9FB064600912246A4
:100DF0002B4610461946FFF7A1FB04460D467F100F
:100E0000002FEAD10398009B0028029904983246EB
:100E100002DAFFF7FBFB01E0FFF790FB019A002AE3
:100E200002D00122D2075140059A03C2D1E7FFB593
:100E300091B0002009900025ED432E209E685C684B
:100E40001F460190B9696D1C129888470090396A55
:100E500088470028F6D10098401C0AD00D20C00118
:100E60008443002E12DD00982B2809D02D280DD1A7
:100E700003E00020C04315B0F0BD01208002044310
:100E8000B9696D1C12988847761E009003A9600509
:100E900001D52D2000E02B206A461073491C0CA8B8
:100EA0000F9102900AE0B9696D1C12988847009072
:100EB0000120400204431398761E0560002E02DDD7
:100EC00000983028EFD001990098884246D18020C0
:100ED000044308E00998401E0990012040020443A1
:100EE0001399681C0860B9696D1C761E12988847B2
:100EF00000903028EED031E00199884205D12006DB
:100F000003D480200443761E1EE0009801F0D4F83C
:100F1000002826D001204002044307A90F9803317E
:100F2000761E88420BD200980F99303808700F98BF
:100F3000401C0F90200607D50998401E03E02006AC
:100F400002D40998401C0990A00502D51399681C89
:100F50000860B9696D1C129888470090002ECBDCA0
:100F600059E0002E57DD0098652801D0452852D160
:100F7000A00550D5032000028443B9696D1C761E7C
:100F8000129888470090002E0CDD2B2804D02D28C5
:100F900008D1FF2001300443B9696D1C12988847BD
:100FA000761E0090E00501D52D2100E02B2102984E
:100FB00001700298401C0290019025E0012040023F
:100FC00004430EA902980131761E88420ED2009881
:100FD000029930380006000E087003D1029901987A
:100FE00081420AD90298401C029006E0E00501D532
:100FF000234801E0224840420990B9696D1C1298CB
:101000008847009013980560002E04DD009801F0D9
:1010100053F80028D2D1F969129888470F99FF2018
:101020000870029903AA087000200A900B900CA97E
:101030000AA8099BFFF780FEA00502D40120C04347
:1010400019E72420044209D0E00713D138680B9A2D
:101050000A99031D3B60006806C00BE00B990A98D3
:10106000FFF7F0FB0146E00704D13868021D3A6043
:10107000006801602846FEE6000024400000F03FC2
:10108000F1D8FFFF4268002A08D001680B78491C9C
:10109000002B03D0521E06C0184670470121C160C4
:1010A000881E70474268002A0BD0C3680168002B75
:1010B00007D183688B4204D0491E521C06C0002011
:1010C00070470020C0437047F7B582B0029C0027EC
:1010D0002078641C15460197302802D0002D15D0C9
:1010E00015E020780127641C782804D0582802D005
:1010F000002D09D00BE0002D01D0102D07D10027C5
:1011000010252078641C02E0082500E00A2500264E
:10111000009610E00099012769430818020C29463F
:1011200080B2714300908E183804864201D30120AA
:1011300001902078641C294600F056F80028E9DA6E
:101140000398002805D0002F01D0641E00E0029C07
:1011500004600198002806D000F074FE02210160AE
:10116000C81E05B0F0BD009930040843F9E7F0B59A
:101170001FB486B000200090019002900698069956
:1011800080B204900798090C0204001411430790E0
:101190000027089D099806913E463C460390039817
:1011A000A9B20204000C039004982D0C1543484387
:1011B00000212246FFF7A6FBC719714110340E46E5
:1011C000402CECDB3846029AFFF79CFB009A019B0F
:1011D00080180090594102980191103002904028E7
:1011E000CCDB00980BB0F0BD3A2800D23038202379
:1011F00002469A43412A01D310463738884201D328
:101200000020C043704700000EB5054A029200223C
:10121000009213460192FFF781FC03B000BD00006D
:1012200033040000C10F8900064A89188968C30683
:10123000DB0E01229A401143C20F9200014BD218DB
:101240009160704700020050F3B583B00C460398DC
:10125000002809D13D48006A0121C90488433B495F
:1012600008623B48029008E03848006A0121C9043E
:10127000084336490862374802903748844204D808
:101280004010844201D9002722E03448844205D826
:101290004010844202D90127640019E0304884429A
:1012A00005D84010844202D30327A40010E003981D
:1012B000002803D12B482549086202E02A48234927
:1012C0000862042000F08EF900F0DAF805B0F0BDF5
:1012D00026492046FEF72CFF064624490298FEF7D1
:1012E00027FF05460EE0E807C00F002807D1F007EA
:1012F000C00F002803D1022D01D0022E00D102E040
:101300006D087608EFE700BFB803A91E490208433D
:10131000B11E084301900D48006A010C09040198B0
:1013200001430A480162006A05210904884307490C
:101330000862042000F056F97A1C6A431146029AAA
:1013400072431046FEF7F4FEC0E7000000020050B2
:10135000001BB7000080510100C2EB0B00E1F50556
:1013600080F0FA022EC200006FD6000040420F004B
:10137000024909680143014A1160704700020050A8
:10138000FEB5002002901AA0006800901948046A77
:1013900000132040002801D00020FEBD0120C00421
:1013A0002040002801D0144D00E0144D01204004DD
:1013B0002040002801D02846EFE70320800320408A
:1013C000800B69460A5C0192E005C00D861C1F2057
:1013D00040022040400A871C019A7A431146AA081D
:1013E00072431046FEF7A4FE800002900298D4E7F4
:1013F000010202040002005000805101001BB700EE
:10140000FEB5002002901AA0006800901948046AF6
:1014100000132040002801D00020FEBD0120C004A0
:101420002040002801D0144D00E0144D012040045C
:101430002040002801D02846EFE703208003204009
:10144000800B69460A5C0192E005C00D861C1F20D6
:1014500040022040400A871C019A7A431146AA089C
:1014600072431046FEF764FE800002900298D4E7B3
:10147000010202040002005000805101001BB7006D
:10148000FEB5002002901AA0006800901948046A76
:1014900000132040002801D00020FEBD0120C00420
:1014A0002040002801D0144D00E0144D01204004DC
:1014B0002040002801D02846EFE703208003204089
:1014C000800B69460A5C0192E005C00D861C1F2056
:1014D00040022040400A871C019A7A431146AA081C
:1014E00072431046FEF724FE800002900298D4E773
:1014F000010202040002005000805101001BB700ED
:1015000010B504461048844201D9044603E00F4850
:10151000844200D204460E480068C007C00F00286D
:1015200005D021460020FFF78FFE044605E0214646
:101530000120C004FFF788FE04460021022000F0CD
:1015400009F8204610BD000080F0FA0240787D01C5
:101550000002005070B504460D4608480069C008F6
:10156000C000204305490861084680690009000160
:101570002843886100F076F970BD00000002005039
:10158000F0B50B46002100240025C600360F002EC2
:101590000FD04600B60FB600114FF4192168C600EF
:1015A000370FC601F60EB7400E46BE431E43314606
:1015B00021608603360E002E10D00603B60FB6004B
:1015C000074F0837F51929688603360EF643870555
:1015D000FF0EBE400E40164331462960F0BD0000AC
:1015E000100200500146074A05E01046521E00282E
:1015F00001DC002070470448C06808408842F4D1EC
:101600000120F7E790D00300000200500D48006A67
:1016100008210840002803D008200A4908620FE08A
:101620000848006A0749086206484030006A0549D0
:101630004031086203488030006A02498031086204
:10164000704700008040005010B58469130E8B4035
:101650001C438461C3691402240A8C402343C36180
:1016600010BD70B5034600200FE0012484400C40FB
:10167000002C09D01C6846000325B540AC43460049
:101680001546B5402C431C60401C0828EDD370BDA6
:10169000416901221143416170470146C8687047A2
:1016A00010B50D48FFF7F9FF04460B484069C00725
:1016B000C00F012148404840002803D00648FFF7EA
:1016C000E7FF07E005480068002803D020460349EB
:1016D0000968884710BD000000000240BC000020DF
:1016E000C206D20E01219140014A116070470000EC
:1016F00000E100E030B50146F0240C4022110B0758
:101700001B0F5401024D64199D00601930BD00008B
:101710000042005010B50420FFF72AFE1020FFF70A
:1017200061FF00210720FFF715FF0120FFF720FED2
:101730000120FFF757FF1E48FFF7E2FE1D48FFF7A5
:1017400071FD1C48401CFFF76DFD1B48FFF76AFD4B
:10175000002211461748FFF713FF002211461548D3
:10176000401CFFF70DFF002211461348FFF708FF4A
:1017700005200007C06B1149084005210907C8630F
:101780000846C06B0321084305210907C8630846C2
:10179000006B0B4908400521090708630846006BE8
:1017A0000649C943084305210907086310BD000025
:1017B00080F0FA02103D80270200802EFCFCFFFF23
:1017C000FCFCFFFC010E0522120789188968012222
:1017D00082401143020E05231B07D2189160010EAF
:1017E0001A4689188A68012181408A43010EC91866
:1017F0008A60704770B5044614480078012807D104
:10180000234660221248017812A004F057F81BE02A
:10181000F02004F07FF80E48007804F07BF8602098
:1018200004F078F8152004F075F8204604F072F8FA
:10183000074800787530001945066D0E284604F0FB
:1018400069F8F72004F066F870BD00006800002019
:101850006600002047256420542564204525640D3A
:101860000A00000070B51248006945076D0FFFF7C8
:1018700087FD10490860022D03D0A8000E490C58BE
:1018800001E00C4804680A4880690007000F461C04
:1018900031462046FEF74CFC0849086008490748D5
:1018A00000684A108018FEF743FC0649086070BDC6
:1018B00000020050080000208859000000000020AD
:1018C00040420F00040000207047000030B589B08E
:1018D00005462022194901A8FEF754FC1848854204
:1018E00006D118484069072109020840040A1AE095
:1018F00013482030854206D1124840690721090368
:101900000840040B0FE01048854206D10D4840699D
:10191000072109040840040C05E00A484069072132
:1019200009050840040D022C03D10848006809B0DD
:1019300030BDA00001A90858F9E70000285B0000AD
:101940000000014000020050000011400000002093
:10195000FEB505460F4616462846FFF7B7FF044674
:101960000020019000906008B04202D20220019055
:101970001BE001208006844203D307200090E40886
:101980000EE001204006844203D303200090A40807
:1019900006E001200006844202D301200090640882
:1019A00031462046FEF7C4FB01900098384328607A
:1019B00001986860009A521C0198504301462046E5
:1019C000FEF7B6FBFEBD000000BF08488068C007F8
:1019D000C00F002809D000BF01200449886000BF63
:1019E00003480068401C024908607047000001403D
:1019F0001400002010B5044622460121C9060C48F7
:101A0000FFF7A6FF00BF0A48006801214907084305
:101A10000749086000BF00BF084600688903084303
:101A20000349086000BF0820FFF75AFE10BD000000
:101A30000000014010B500F0F1F810BD10B50446EB
:101A40000348FFF7BFFE2146024800F02FF810BD03
:101A5000100000040000054010B500F07FF910BD33
:101A600010B504460348FFF7ADFE2146024800F0DA
:101A70001DF810BD110000040000154010B5094804
:101A8000406801210843074948600C20FFF728FE01
:101A90000548406801210843034948600D20FFF7CD
:101AA0001FFE10BD0000054000001540F0B587B0D6
:101AB00004460D46274801460EC9C06803AE0EC64F
:101AC000069000200290244840690321090608403E
:101AD000060E214880690F2109020840070A0020EC
:101AE00020630320E060A0681C490840A060012E2C
:101AF00004D1FFF785FCB10003AA5050002D26D079
:101B0000B10003AA5058791CFEF712FB690840186F
:101B100029460190FEF70CFB801E029010490298A6
:101B200088420FD9B10003AA5058791CFEF700FB78
:101B3000E900401829460190FEF7FAFA0009801ED4
:101B4000606204E00321090702980843606207B05D
:101B5000F0BD0000F85A0000000200500FFFF0FF37
:101B6000FFFF0000FFB587B004460D461746284822
:101B700001460EC9C06802AE0EC605900020019055
:101B800024484069032109060840060E214880695F
:101B90000F2109020840000A0690012E04D1FFF728
:101BA0002FFCB10002AA5050002D28D0B10002AA8B
:101BB00050580699491CFEF7BBFA69084018294697
:101BC0000090FEF7B5FA801E0190134901988842F3
:101BD00010D9B10002AA50580699491CFEF7A8FA7C
:101BE000E900401829460090FEF7A2FA0009801E7D
:101BF000606204E0032109070198084360623846E7
:101C00000A99084310990843E0600BB0F0BD00004A
:101C1000085B000000020050FFFF000070B5FF24C9
:101C20004748C569406840084000454948600C2065
:101C300001218140434A116000BF434800780028D9
:101C400035D1601C2840002831D029E03C4800688C
:101C5000C4B23E48007800281AD0F72C05D10020E5
:101C60003A49087002F0A4FB1AE03948394909885A
:101C7000445438480088401C36490880084600888B
:101C80003F280DDD0020314908703249088007E007
:101C9000F02C05D101202D49087000202D49088025
:101CA0002748C069C007C00F0028CFD139E02648B7
:101CB0000078012835D100022840002831D02AE0E0
:101CC0001F480068C4B22448007800281BD00A2CA2
:101CD00006D10020204908701D4801F0AFFF1AE02E
:101CE0001B481C49098844541A480088401C19495B
:101CF0000880084600883F280DDD0020164908703E
:101D00001449088007E0472C05D1012012490870CA
:101D10000020104908800A48C069C007C00F002889
:101D2000CED10748406801210843054948600C208E
:101D300001218140034A803A116000BF70BD00005C
:101D40000000054080E100E0680000205000002015
:101D5000E40100205800002052000020FF20184A13
:101D6000D169421C0A40002A29D022E0144A126894
:101D7000D0B2144A1288402A14DA134A134B1B8833
:101D8000D054124A12883F2A01D1002202E00F4AA1
:101D90001288521C0D4B1A800A4A1288521C094B99
:101DA0001A8006E00022074B1A80084B1A80084B65
:101DB0001A80034AD269D207D20F002AD6D17047BF
:101DC000000015405A00002064010020600000203F
:101DD0005E00002037B514460846064B6A46214689
:101DE00000F072F904466946002000F009FD204623
:101DF0003EBD0000012800002021020C01D010216E
:101E00001046020A01D010460839020901D01046D6
:101E1000091F820801D01046891E420801D0881E81
:101E20007047081A704730B47446641E2578641CE5
:101E3000AB4204D3635D5B00E31830BC18471D461A
:101E4000F8E700000048704700010020F8B504469C
:101E50004F1EC8000838211815461E4608684968F4
:101E60003A4606239A4310D02A463346FEF766FBCD
:101E70003A46D200083AA3181A687F1E5B68FEF73C
:101E8000ABFA06223B469343EED1022F23D0042F18
:101E900011D0062F2FD12A463346FEF74FFBE36AB7
:101EA000A26AFEF799FA2A463346FEF747FB636AB1
:101EB000226AFEF791FA2A463346FEF73FFBE369B2
:101EC000A269FEF789FA2A463346FEF737FB6369B3
:101ED0002269FEF781FA2A463346FEF72FFBE368B4
:101EE000A268FEF779FA2A463346FEF727FB6368B5
:101EF0002268FEF771FAF8BD002210B513461046AD
:101F00000149FEF783FB10BD0000F03F10B5012230
:101F1000FEF756FE10BD002210B5134610461146BE
:101F2000FEF774FB10BD0000014800687047000018
:101F30000001002002E008C8121F08C1002AFAD1DF
:101F400070477047002001E001C1121F002AFBD139
:101F50007047000001490860704700000001002040
:101F6000F0B51FB484B007980699020D014314D050
:101F70004A484B491018484305140F9801280E98F9
:101F80001CD0281A401C0024464E47490094019159
:101F90000290002814DA474227E00F98012443A357
:101FA000012808D0002104980F9A84600360C26061
:101FB000416009B0F0BD0E98C143F4E74042E2E74A
:101FC000074612E0F80707D02246334601990098E9
:101FD000FEF7B4FA019100902246334610461946A6
:101FE000FEF7ACFA04460E467F10002FEAD10298A5
:101FF000019B0028009A0799069802DAFEF79EFADC
:1020000001E0FEF703FB04460E460022284BFEF7D4
:102010005FFE03D80020C043014607E00022254BA5
:1020200020463146FEF7D8F9FEF732FE102409E0CB
:10203000002C0ADB0A220023FEF734FC059B303219
:102040001A55641E02460A43F2D11122641C059BF4
:10205000121B1C190F9B012B03D0012308430ED127
:102060000AE0084304D011200E9000200F9084E76E
:102070000E98151A6D1E0BE00E98824202DD0023A9
:102080006D1C03E0824201DA00236D1E002BEED0AE
:1020900004980F998260C16030C08AE701FCFFFF9D
:1020A000104D0000000024400000F03F3000000010
:1020B0000000F0430000E03F30380A2801D2012040
:1020C0007047002070470000FFB597B00646002516
:1020D00018E2252877D100242746FD49049400E022
:1020E0000443761C32780120203A90400842F7D110
:1020F00030782A280ED0022230780146303909295A
:1021000016D804990A235943303940181443761CD1
:102110000490F1E7189802C804911890002904DA95
:102120000120400304434842049002200443761CEB
:1021300030782E2814D1042004437078761C2A2885
:1021400009D11898761C80C8189009E00A214F43DD
:10215000303FC719761C3078014630390929F5D946
:1021600030786C2810D006DC4C281AD068280ED0A5
:102170006A2817D104E0742813D07A2812D110E00D
:102180000120400504430CE00121090501E0032181
:1021900009050C437178814203D101200005241800
:1021A000761C761C3078119066280BD013DC5828EA
:1021B0007DD009DC00287BD04528F6D04628F4D015
:1021C00047281AD1A5E118E0632835D0642870D0DB
:1021D000652812D19DE170286CD008DC6728F1D009
:1021E00069287BD06E280DD06F2806D1BAE07328FD
:1021F0002ED0752871D0782859D01A9A19999047FD
:102200006D1C7EE16002400F022809D003280DD02A
:102210000428189801680DD00D60001D189070E119
:102220001898EA1701680D604A60F6E71898016887
:102230000D80F2E70D70F0E718986A460178117288
:10224000001D18900020507202A80090012005E0A7
:10225000189802C8189000200091C04361070DD55E
:10226000002101E00199491C0191B94212DA814231
:10227000F8DB009A515C0029F4D10BE0002101E069
:102280000199491C01918142FADB019A0099895C0C
:102290000029F5D1019904981A9B471A214638461E
:1022A000199A00F097FA0199401945180BE04FE090
:1022B0002CE113E04EE0009800990078491C009151
:1022C0001A9A199990470198401E0190401CF2D12A
:1022D000214638461A9B199A10E137E00A2000215E
:1022E000009001916002410F022907D0189A01CA9B
:1022F0001892C2179446032908D00AE01898C01D06
:10230000C108C90005C91891944607E000B2C21778
:102310009446042902D140B2C1178C46002261467E
:10232000944506DA0A460021404291418C462D210F
:1023300002E0210504D52B216A461173012103E037
:10234000E10701D02021F7E7029155E00A200AE0D9
:10235000102008E010200090002104200443019187
:10236000082703E008200021019100906002410F3E
:10237000022907D0189A01CA18920022944603290C
:1023800008D008E01898C01DC108C90005C91891F7
:10239000944603E080B2042900D1C0B2002102912A
:1023A000210729D51199702906D0009A1021019B87
:1023B0004A401A4305D00EE040216A4611730121BC
:1023C00008E06146014306D030216A461173119935
:1023D000517302210291009A0821019B4A401A433D
:1023E0000AD16146014301D1610705D530216A4612
:1023F000117301217F1E02911199582904D035A132
:102400000E910DA90D910DE037A1F9E76146019BF1
:10241000009AFEF747FA0E9B8C469B5C0D9A521E63
:102420000D92137061460143F0D10D9805A9081A69
:1024300020300190600703D501200004844300E0B0
:1024400001270198874201DD381A00E00020019938
:1024500000904118029809180498401A0490E0036B
:1024600006D421461A9B199A049800F0B3F945192D
:10247000002706E003A81A9AC05D199990476D1CC1
:102480007F1C02988742F5DBE0030CD521461A9B9E
:10249000199A049800F09EF9451904E01A9A302020
:1024A000199990476D1C0099481E00900029F5DC91
:1024B00008E00D980D990078491C0D911A9A199908
:1024C00090476D1C0199481E01900029F1DC63E1E1
:1024D00009280100303132333435363738396162FA
:1024E00063646566000000003031323334353637BE
:1024F00038394142434445460000000000F05AF993
:102500004519761C3078002800D0E2E528461BB03B
:10251000F0BD600700D406271898C01DC108C90087
:1025200048680A680831C30FDB071891190001D009
:102530009CA108E0210501D59BA104E0E10701D0A1
:102540009AA100E09AA1430011985B0810916528B8
:102550000CD006DC452809D046281DD0472841D19B
:1025600041E0662818D067283CD13CE00021112FBB
:1025700001DB112000E0781C0191009008A911A84E
:10258000FFF7EEFC139905910021119A15927F1C1B
:1025900012980197009150E00120C007039001209C
:1025A000019008A9009711A8FFF7DAFC139A149973
:1025B00005920022119B009212981593059A0192A0
:1025C000002901D0104602E0791C40180190381A09
:1025D00001D5019804E04042401E0090781C019013
:1025E000C01B029043E0012F00DA01270021112FC8
:1025F00001DD112000E038460191009008A911A8E2
:10260000FFF7AEFC13990591119A002112981592CB
:102610000091019721070CD40599B94201DB01997A
:1026200000E00191012904DD159A491E515C302911
:1026300006D0B84201DA011D05DA0121029115E048
:102640000199491EEDE7002805DC00994118009129
:102650000199091A03E0019A411C914200DD0191A0
:102660000099401A401C02900120C00703902007E7
:1026700006D402990198814202DB0020C0430290F7
:1026800000206946C87707AF012103980337C907BF
:10269000884224D0022011902B2012900398002809
:1026A0000CDA404203902D20129007E00A21039893
:1026B000FDF73EFD30317F1E039039701199481EA1
:1026C00011900029F2DC03980028EFD1791E1298AE
:1026D00008703078202108404530BF1E387006A8A9
:1026E000C01BC01D039010980078002800D0012066
:1026F000019941180298C0170918039809180498FD
:10270000401A401E0490E00306D421461A9B199AF1
:10271000049800F05FF8451910980078002803D05D
:102720001A9A199990476D1CE00324D521461A9BEB
:10273000199A049800F04EF845191CE000980028FA
:1027400007DB00990598884203DD1598405C1999CC
:1027500001E0199930201A9A904700986D1C401C8E
:1027600000900298401E0290002804D11A9A2E2050
:10277000199990476D1C0199481E01900029DDDCD4
:1027800005E038781A9A7F1C199990476D1C0399B7
:10279000481E03900029F4DC21461A9B199A0498DC
:1027A000ACE600002D0000002B000000200000001F
:1027B00000000000F8B5044600251E4617468804B0
:1027C00004D405E039462020B0476D1C641EF9D5BD
:1027D0002846F8BDFFB50446002581B01E46C80353
:1027E00001D5302700E02027880404D505E03846CD
:1027F0000399B0476D1C641EF9D5284605B0F0BD9D
:102800000A68531C0B601070704710B50024E44335
:10281000142000F01FF8044620B210BD10B50024AB
:10282000E443102000F016F8044620B210BD10B5A5
:102830000024E443132000F00DF8044620B210BD3C
:1028400010B50024E443152000F004F8044620B23B
:1028500010BD000000B50246104600F0A5FE00289D
:1028600001D1401E00BD474840690C2188434549BD
:10287000486108468069886108468068C904084341
:102880004049886001204049086210461038030022
:10289000FFF7C9FA060454142434445405200007F1
:1028A000406B012108430521090748633648406A07
:1028B000000A0002401C3449486240E0052000073D
:1028C000406B042108430521090748632E48406AEC
:1028D000000A0002001D2C49486230E00520000774
:1028E000406B082108430521090748632648406AD0
:1028F000000A000208302449486220E00520000751
:10290000406B102108430521090748631E48406AAF
:10291000000A000210301C49486210E00520000740
:10292000406B202108430521090748631648406A87
:10293000000A000220301449486200E000BF00BFD6
:102940000120114908630846006A0121C9020843B1
:102950000D49086200BF0C48006BC007C00F00287B
:10296000F9D00948006A0121C90288430649086272
:1029700001200863104610388000401800680005E8
:10298000000D6FE70002005000000E40F8B507464A
:1029900022488478C57820460F304006400EA84271
:1029A00003D01320FEF726FFF8BD601C1C490870F9
:1029B000F02002F0AFFF1A48007802F0ABFF1020C1
:1029C00002F0A8FF1748007802F0A4FF144800782E
:1029D00010301449097840184606760E304602F049
:1029E00099FFF72002F096FFF02002F0BDFFFF20D4
:1029F00002F0BAFF102002F0B7FF0948007802F099
:102A0000B3FF074800780F304606760E304602F0D6
:102A1000ABFFF72002F0A8FF00BFC5E7E4010020EC
:102A2000660000206700002030B583B00446FFF741
:102A30007BFA054600200090024601902146684638
:102A4000FDF7AFFF2846FFF785FA0199009803B01C
:102A500030BD0000F1B584B00498FDF75BFE04467C
:102A60000022084BFDF76AFD0022074B0191009000
:102A7000FDF7CCFD0646FDF7E5FE0290029805B095
:102A8000F0BD00000070A7400000B040F0B589B074
:102A900007463846FDF732FE04462046FDF7AAFEFB
:102AA00002460B460591049000203C49FDF7AEFD1F
:102AB000054600223A4BFDF733FD07910690FDF7DE
:102AC000C1FE044637490020085EFDF717FE0546A3
:102AD0002146FDF743FC044633490020085EFDF71C
:102AE0000DFE054629462046FDF738FC089008985B
:102AF000FDF780FE0791069000F068FD0546FDF7A2
:102B0000A1FE089029490020085EFDF7F7FD054663
:102B100029460898FDF722FC089025490020085E08
:102B2000FDF7F8FD0546234A234BFDF755FC024609
:102B30000B460191009000201949FDF767FD0591B2
:102B400004900898FDF756FE03910290059B049AA5
:102B5000FDF742FC07910690FDF774FE0890089877
:102B6000FDF748FE02460B460791069000200C49EF
:102B7000FDF74CFD0546FDF765FE08900898FDF74A
:102B800039FE0C4A0C4B07910690FDF7C9FC05462F
:102B9000FDF758FE0890089809B0F0BD00FEAF4060
:102BA0000000F03FE2000020E6000020E4000020EA
:102BB000E00000206666666666127140F1B582B07C
:102BC0000298FDF7A7FD0446044A054BFDF7B6FC45
:102BD0000646FDF737FE01900198FEBDFCA9F1D233
:102BE0004D62803FF0B585B007461D4E04AA1DA179
:102BF0003846FDF7D9FA04461CE004AA19A10020C2
:102C0000FDF7D2FA04462078502808D1601CFFF75F
:102C10000BFF03910290FDF7ABFD05B20AE02078AF
:102C2000532807D1601CFFF7FFFE03910290FDF7C8
:102C300009FE0646002CE0D13146284602F03EFC53
:102C40003046FDF7D7FD029003912A46019100908E
:102C50000548017805A002F031FE05B0F0BD000086
:102C6000000020422000000066000020472564206C
:102C70004D31205025642C2053252E32660D0A003C
:102C8000F1B582B001AA14A10298FDF78DFA0446AD
:102C9000002C05D001AA10A10020FDF785FA0446FA
:102CA0002078442806D1601CFFF7BEFE0546FDF7DC
:102CB0005FFD47B2781C0949087009480278084648
:102CC000017808A002F0FAFD04480378FF2209A168
:102CD0000C4802F006FEFEBD200000006600002049
:102CE00067000020472564204D3130205425640DB5
:102CF0000A000000472564204D3130204425640D32
:102D00000A00000000001540F8B5074608490020F9
:102D1000085EFFF79FFE0646FDF76CFD044622465F
:102D20000B460448017804A002F0C8FDF8BD00007D
:102D30008600002066000020472564204D38204989
:102D4000252E32660D0A000010B504460448002204
:102D5000825E0448017804A002F0B0FD10BD0000BE
:102D60007600002066000020472564204D35205065
:102D700025640D0A0000000010B504460448002236
:102D8000825E0448017804A002F098FD10BD0000A6
:102D90007E00002066000020472564204D36205329
:102DA000252E32660D0A0000F8B5074608490020B6
:102DB000085EFFF76BFE0646FDF71CFD0446224643
:102DC0000B460448017804A002F078FDF8BD00002D
:102DD0007A00002066000020472564204D372054EB
:102DE000252E32660D0A0000F8B507460849002076
:102DF000085EFFF7E3FE0646FDF7FCFC04462246AC
:102E00000B460448017804A002F058FDF8BD00000C
:102E10008200002066000020472564204D3920569E
:102E2000252E32660D0A0000F0B585B007461D4E0E
:102E300004AA1DA13846FDF7B7F904461CE004AA10
:102E400019A10020FDF7B0F904462078502808D1D8
:102E5000601CFFF7E9FD03910290FDF789FC05B2C4
:102E60000AE02078532807D1601CFFF7DDFD0391AD
:102E70000290FDF7E7FC0646002CE0D131462846DB
:102E800002F00EFB3046FDF7B5FC029003912A4696
:102E9000019100900548017805A002F00FFD05B0F2
:102EA000F0BD00000000204220000000660000206D
:102EB000472564204D32205025642C2053252E3286
:102EC000660D0A00F1B584B002AA22A10498FDF7AC
:102ED0006BF9044628E002AA1EA10020FDF764F960
:102EE00004462078522808D1601CFFF79DFD01910F
:102EF0000090FDF761FCC5B216E02078472808D1A4
:102F0000601CFFF791FD01910090FDF755FCC6B2E2
:102F10000AE02078422807D1601CFFF785FD019167
:102F20000090FDF749FCC7B2002CD4D10A480570C7
:102F3000467087703A463146284602F097FA334683
:102F40002A4606480097017805A002F0B7FC05B0B4
:102F5000F0BD000020000000C0000020660000203E
:102F6000472564204D34205225642C204725642CAD
:102F7000204225640D0A0000F1B582B001AA10A11B
:102F80000298FDF711F90446002C05D001AA0CA106
:102F90000020FDF709F904462078422806D1601C7C
:102FA000FFF742FD0546FDF7E3FB47B2F8B202F03A
:102FB0001FF93A460348017803A002F07FFCFEBDEA
:102FC0002000000066000020472564204D33204289
:102FD00025640D0A0000000010B5044601200549D3
:102FE00008700020044908800448017804A002F019
:102FF00065FC10BD56000020F40000206600002093
:10300000472564204D32300D0A00000010B50446FB
:103010000D488078012813D10B48C07802280FD1C1
:103020000948007903280BD107484079042807D1C3
:1030300005488079052803D10F20FEF7DBFB02E06D
:103040001120FEF7D7FB10BDE401002070B5FFF79B
:10305000E5FB04461D4804801D490988611A08B231
:1030600000F0DAFD1B490880194804801A480078EE
:10307000602829D1FFF7D2FB14490880174800784F
:1030800001281BD016480078012817D00020085EC0
:103090001449884204DC0D480021415EC82907DA42
:1030A000FF2300221146FF20F53002F06BF870BDBF
:1030B0000D4B9A785978187802F0D8F900F052FE42
:1030C0000546284602F0B8FB00BFF0E7CA00002022
:1030D000C80000207E00002067000020C5000020FE
:1030E000560000203C0F0000C000002030B505460F
:1030F0000C462846FEF7FEFA046030BDF1B584B0F8
:103100000498FDF707FB04460022104BFDF716FA62
:10311000019100900E480068FDF76CFB0446002208
:103120000A4BFDF70BFA0646019B009AFDF754F98E
:1031300003910290FDF786FB054908600846006888
:10314000FDF7FCFA00B205B0F0BD00000000E03F62
:10315000DC00002000200EE00B49095C0B4A1160E6
:1031600000BF0B498969012212071140090F00298C
:10317000F7D0411CC8B2074909888842ECDB00211E
:10318000044A118070470000E4010020000015404F
:10319000000005405800002070B5FF242C48058829
:1031A00000F06EFC2B4908604CE0294805882A484D
:1031B0002A490988445C2A480078002801D1F02C6B
:1031C00005D027480078012804D1472C02D10120DE
:1031D000244908702448046000BF23488069012105
:1031E00009070840000F0028F7D01C4800883F2836
:1031F00001D1002002E019480088401C17490880CE
:103200001A480088401E194908801548007800288F
:1032100001D1F72C05D012480078012805D10A2CDD
:1032200003D100200F49087010E000F029FC094983
:103230000968401A7D210901884203D900200C4900
:10324000087003E005480088A842AED100BF70BDF9
:103250006400002090000020240100206200002073
:103260006800002054000020000005405C000020A1
:103270005500002070B5FF242C48058800F000FCA4
:103280002B4908604CE0294805882A482A490988C2
:10329000445C2A480078002801D1F02C05D027484A
:1032A0000078012804D1472C02D10120244908705C
:1032B0002448046000BF23488069012109070840B1
:1032C000000F0028F7D01C4800883F2801D10020BB
:1032D00002E019480088401C174908801A480088F5
:1032E000401E1949088015480078002801D1F72CA4
:1032F00005D012480078012805D10A2C03D10020FE
:103300000F49087010E000F0BBFB09490968401A3A
:103310007D210901884203D900200949087003E092
:1033200005480088A842AED100BF70BD60000020F3
:103330008C000020640100205E0000206800002056
:1033400055000020000005405A00002010B50A4832
:10335000007860280FD1FFF761FA08490880FFF76D
:1033600066FA07490880FFF76BFA06490880FFF7FD
:103370004CFA0549088010BD670000207600002047
:103380007A000020820000208600002070470000A4
:1033900010B50446502C74D014DC102C43D008DC3B
:1033A000002C6BD0012C2CD00E2C68D00F2C67D1A8
:1033B000DEE0112C29D0202C1BD0302C7DD0412CCC
:1033C000F5D1C3E02007000F0028F0D12011801FA5
:1033D0000300FEF728FD0A3F20C7120A9BCB379750
:1033E00006CB222069490870CEE02D20674908707D
:1033F000CAE0432065490870C6E04620634908706A
:10340000C2E0482061490870BEE001F01FFB602067
:103410005E490870B8E00021232000F08FFF4220B1
:103420005A490870B0E0012202215948FEF70CF910
:10343000022001218140574A116000BF44205349B6
:103440000870A1E00321142000F078FF40204F49CC
:10345000087099E07D21C900232001F01DF87D212D
:10346000C900242001F018F87D21C900252001F0B1
:1034700013F821204549087086E002E01EE076E05E
:1034800074E00121232000F059FF0121242000F0E5
:1034900055FF0121252000F051FF0121322000F0CD
:1034A0004DFF0121152000F049FF0121142000F0FB
:1034B00045FF24203549087066E04BE001211420C7
:1034C00000F03CFF0121052000F038FF012106201B
:1034D00000F034FF0121252000F030FF01212620DB
:1034E00000F02CFF0121152000F028FF01212320EE
:1034F00000F024FF0121242000F020FF2820234990
:10350000087041E04520214908703DE00121062076
:1035100000F014FF01210620FFF7E8FD7D21C9001E
:10352000232000F0B9FF7D21C900242000F0B4FF62
:103530007D21C900252000F0AFFF7D21C900262094
:1035400000F0AAFF2A20114908701DE02B200F4926
:10355000087019E00121232000F0F0FE2F200B4914
:10356000087011E04120094908700DE000BF00BF5C
:10357000002009490880094908800949088009494B
:1035800008800249087000BF00BF10BD670000201E
:10359000C040005000E100E05E000020600000201C
:1035A00062000020640000200146102907D0122983
:1035B00005D0132903D0142901D0152901D10120E8
:1035C00070470020FCE7704770470000F0B5C54A1F
:1035D00000248FB091420ADA4B005B08934206D870
:1035E00001254A006D05EA4205D1002803D0FEF707
:1035F0008DFC0FB0F0BD01252D05A94219DA03435A
:1036000008D0002910DA0120FEF7A4FCFEF783FCA5
:103610000FB0F0BD0220FEF79DFCFEF76DFC01220D
:10362000D20751400FB0F0BD3524E4433622FDF7F8
:10363000C7FA0A15AC4B1219D4180A03120BAB497E
:10364000AB4B56182E40314659401143019232156A
:1036500012190B920022FCF763FF019A0446921C98
:103660001003A44E000B0D467E44032860D2204672
:1036700073683268FDF7D2F81CD10B98002815D07A
:10368000FDF748F804460E469B4A9C4BFCF756FF54
:103690000D4607469A4A9B4B20463146FCF74EFFA3
:1036A0003A462B46FCF798FE0FB0F0BD71683068C3
:1036B0000FB0F0BD944A954B20462946FCF73EFFDB
:1036C0000022934BFCF732FF06460F4622462B465C
:1036D00010461946FCF732FF32463B46FCF72EFFF8
:1036E00006460B980F4600281DD0FDF713F8824AB6
:1036F000824B05910490FCF721FF32463B46FCF7D4
:1037000015FF22462B46FCF70BFF04460D467C4A6C
:103710007C4B05990498FCF711FF22462B46FCF7D9
:10372000FFFE0FB0F0BD0B46324620462946C4E0EE
:10373000012300229B072046FCF74EFE02460B4663
:1037400020462946FCF762FF06460F460B98FCF719
:10375000E1FF32463B460591049010461946FCF7BE
:10376000EDFE09910C906B490198099B421800925B
:103770000C9A19461046FCF7E1FE024607910A90A2
:10378000654901980B1A6548019303217844079B0A
:10379000FEF75CFB079B0A9AFCF7D0FE0E905F4891
:1037A0000D9104217844079B0A9AFEF74FFB099B71
:1037B0000C9AFCF7C3FE019B009A1A4300920D9BE2
:1037C0000E9AFCF709FE009A01910C90002A4DDD3B
:1037D0000022D24320462946FDF7F2F922462B4625
:1037E000FCF7ACFE00910A900B9800282BD0424ABF
:1037F000424B05990498FCF7A1FE07910E90019B9E
:103800000C9A00990A98FCF7E7FD32463B46FCF714
:1038100095FE079B0E9AFCF7DFFD009B0A9AFCF7CA
:1038200085FE22462B46FCF77BFE04460D46344AB5
:10383000344B05990498FCF781FE22462B46FCF791
:103840006FFE0FB0F0BD019B0C9A0A98FCF7C4FD07
:1038500032463B46FCF772FE009B0A9AFCF766FE76
:1038600022462B46FCF762FE0FB0F0BD0B980028F5
:1038700027D0214A214B05990498FCF75FFE079158
:10388000009020462946019B0C9AFCF749FE3246DF
:103890003B46FCF753FE079B009AFCF741FE22468D
:1038A0002B46FCF73DFE04460D46154A154B05997F
:1038B0000498FCF743FE22462B46FCF731FE0FB07E
:1038C000F0BD0B46204629460C9AFCF729FE3246ED
:1038D0003B46FCF733FE22462B46FCF727FE0FB093
:1038E000F0BD00000000F07F01FCFFFF645F0900F5
:1038F0000000F03F14250000763C7935EF39EA3DB1
:103900000000E0FE422EE63F555555555555D53F32
:103910000000E03F86EBF9FF51B80600B823000035
:103920001CB5002001900021322000F007FD00218D
:10393000342000F003FD0021352000F0FFFC0021C1
:10394000122000F0FBFC0021052000F0F7FC002114
:10395000072000F0F3FC00BF06E05920364908605C
:103960001620086088200860334800680128F4D1D8
:1039700000BFFDF7CFFE00BF00202F49086000BF49
:10398000E1204002FEF75AF8E1204002FEF768F815
:10399000002003460322E121490200902748FEF758
:1039A000E1F8002003460322E12149020090244867
:1039B000FEF7D8F8FEF762F82248FEF71BF8112050
:1039C000FFF7E6FC01F042F800201F490870602074
:1039D0001E4908702EE0FFF74DFCFFF7DDFBFFF7F7
:1039E000B5FC00F04DF81A4908600846006819490E
:1039F0000968401A0A281DD91748007801280FD1F4
:103A0000164800880A2807DAFF231A461946FF20BD
:103A1000F53001F0B7FB05E000200F49087001E028
:103A200000F03CF8FFF712FB01F02EF9084800689F
:103A300008490860CFE70000000100500000054081
:103A400000001540A08601006600002067000020ED
:103A50000C0000201000002056000020F400002080
:103A6000F8B506460C4617461D46321B069B5B1BE7
:103A70005A431046391BFCF771FB4019F8BD000092
:103A800010B5642102480068FCF752FB10BD00002D
:103A9000140000207047704770470000F8B5FEF72B
:103AA000C6FE0546FCF72AFE0446FEF7AEFE0546B6
:103AB000FCF724FE0746FEF7C3FE0546FCF71EFE94
:103AC00000904A480088401C4849088048480088BF
:103AD000401C474908802046FCF730FE05B22846C6
:103AE000FEF7D4FF04463846FCF728FE05B2284608
:103AF000FEF7B0FF07460098FCF720FE05B2284607
:103B0000FFF75CF800903B492046FCF7C1FE04D269
:103B100039480088401C38490880354800884B21C6
:103B2000C900884215D100203149088032480088F8
:103B3000FF212D31884209DD012001F059FB0021D0
:103B40003620FFF7D3FA01202C49087000202A49BB
:103B500008802A480078012807D100231A46FF214F
:103B6000FF20F53001F00EFBF8BD0098FCF742FE97
:103B700005460022224BFCF751FE04D32149009850
:103B8000FCF786FE09D2012001F032FB002136202D
:103B9000FFF7ACFA0120194908701B493846FCF7B9
:103BA00077FE04D219480088401C184908800F4845
:103BB00000884B21C900884215D100200B4908809C
:103BC00012480088FF212D31884209DD012001F0D3
:103BD0000FFB00213620FFF789FA01200749087002
:103BE00000200A49088000BFBEE70000E80000206E
:103BF000EE00002000008242F0000020C5000020FE
:103C000000001640000010410080BB44EA00002084
:103C100070477047704700000121C902884202DDE9
:103C20004900411A08B20449884203DA0121090314
:103C3000411808B27047000000F8FFFFF8B50646CB
:103C400000273046FCF7E7FAC4B220480078002885
:103C500003D101201D490870F8BD00201B490870E0
:103C6000FF2C03D01A480078844221D119A1304694
:103C7000FCF7C0FA0546002D16D017494919481C13
:103C8000FCF7C9FAC7B2FF2C09D10A2F07D0472089
:103C900001F06AFEFFF75EFA0A2001F065FE0E49A8
:103CA000481900F01BF802E01220FDF7A3FD07E021
:103CB000472001F059FEFFF74DFA0A2001F054FEAB
:103CC00001200249087000BFC6E700005300002031
:103CD000660000204D000000E401002070B504469D
:103CE000601CFCF798FAC5B22B00FEF79CF815385B
:103CF0000C1014181C2024282C3038383838383848
:103D00003838383438002046FEF76CFF28E020466B
:103D1000FFF78AF824E02046FFF72EF920E020463E
:103D2000FFF7D0F81CE02046FFF70EF818E0204619
:103D3000FFF722F814E02046FFF736F810E020469F
:103D4000FEF7E2FF0CE02046FFF74EF808E02046C1
:103D5000FEF796FF04E02046FFF73EF900E000BFC3
:103D600000BF70BDF0B58DB0FE480078012807D1C6
:103D7000FEF754FD07463846FFF7C0F9074602E054
:103D8000FEF74CFD0746F84900228A5EB81AFCF798
:103D9000B5FC0990F5490998FCF770FD01D2F3488C
:103DA00007E0F3490998FCF773FD01D2F04800E001
:103DB0000998099038B2FFF7A1F938B2ED490880A7
:103DC0000020085EE84908800998FCF713FD0546C5
:103DD0000022E94BFCF7B2FB0022E84B0391029072
:103DE000FCF714FC0022E64B05910490FCF7A6FBBF
:103DF00007910690FCF726FD0A90E249E248006828
:103E0000FCF76FFA079001F01DFB002802DD01F0BE
:103E100019FB02E001F016FB40420646FCF76EFC7F
:103E200005460799FCF734FD74D800210A98FCF781
:103E30002FFD01D20A9803E00121C9070A984840E2
:103E40000546D14801682846FCF743FA044600219C
:103E50002046FCF713FD5ED001F0F4FA00285ADD8D
:103E600000212046FCF714FD01D2204603E0204645
:103E70000121C90748400546C44801682846FCF7A7
:103E800007FD1ED200212046FCF702FD01D220468C
:103E900003E020460121C90748400146079020461B
:103EA000FCF75CFA0646B94801683046FCF719FA97
:103EB0000546B64801692846FCF70FFAB349086180
:103EC0008BE000212046FCF7E3FC01D2204603E012
:103ED00020460121C9074840014606902046FCF7CC
:103EE0003DFA064600212046FCF7D2FC01D22046CE
:103EF00003E020460121C907484031460790FCF7FE
:103F0000F0F90546A14801692846FCF7E6F99F4902
:103F1000086162E07CE000212046FCF7AFFC5CD049
:103F200001F090FA002858DA00212046FCF7B0FC96
:103F300001D2204603E020460121C907484005463A
:103F4000924801682846FCF7A3FC1ED200212046B7
:103F5000FCF79EFC01D2204603E020460121C90760
:103F60004840014607902046FCF7F8F90646874886
:103F700001683046FCF7B5F90546844801692846D2
:103F8000FCF756F98149086127E000212046FCF73B
:103F90007FFC01D2204603E020460121C9074840AA
:103FA000014606902046FCF7D9F906460021204636
:103FB000FCF76EFC01D2204603E020460121C90730
:103FC000484031460790FCF78CF905466F48016977
:103FD0002846FCF72DF96D4908616C4908696C4960
:103FE000FCF74CFC01D26A4809E068490869694954
:103FF000FCF74EFC01D2674801E064480069634960
:1040000008610869FCF79AFB00B2634908807FE108
:104010005C495D480068FCF764F9079001F012FA0A
:10402000002802DD01F00EFA02E001F00BFA404236
:104030000646FCF763FB05460799FCF71FFCE6D232
:10404000564A0021515EC81BFCF758FB0C9001F04A
:10405000F9F90390FCF75EFB05460022504BFCF794
:104060006DFA00224F4B05910490FCF7CFFA0791AF
:104070000690FCF77DFB00B24749088000210C98B0
:10408000FCF706FC01D20C9803E00121C9070C984B
:10409000484005463B49FCF7FBFB61D200210C98E8
:1040A000FCF7F6FB47D22F480078012805D13E489F
:1040B0000078002801D13D49486101203A49087043
:1040C000304931480068FCF70CF901900C99FCF775
:1040D00008F900210290FCF7DBFB09D229492A48A4
:1040E0000068FCF7FEF802900C99FCF7FAF80BE078
:1040F000244925480068FCF7F4F802900C99FCF775
:10410000F0F80121C90748400390FCF773FB05460E
:1041100001F0AEFB0022234B05910490FCF776FAE8
:1041200007910690FCF78EFB089008990A98FCF717
:10413000D0F80B9073E00B480078012806D11A489C
:104140000078012802D10020184948610020164952
:1041500008700C490C480068FCF7C3F8019027E090
:104160009FE00000C3000020CC000020000020C21F
:1041700000002042CA00002000005940002CB1403D
:1041800000004E400000A040D80000204402002063
:1041900000007FC300007F43D4000020CE00002039
:1041A0000080194000001440C400002024020020B8
:1041B0000C99FCF796F800210290FCF769FB09D2F4
:1041C000564957480068FCF78CF802900C99FCF7A8
:1041D00088F80BE0514952480068FCF782F80290D9
:1041E0000C99FCF77EF80121C90748400390FCF7C1
:1041F00001FB0591049001F03BFB0122D2075140E5
:1042000005460022474BFCF701FA07910690FCF7A0
:1042100019FB089008990A98FCF75BF80B90424943
:1042200048690B99FCF704F83F4948613F4800781A
:1042300001281AD188680B99FCF753F83A4907907E
:1042400008680C99FCF74DF8064639490020085ECD
:10425000FCF754FA31460690FBF7EAFF054607994A
:10426000FCF737F83049086138E02F4A5169506847
:10427000FCF737F82C49079088680B99FCF731F860
:1042800006462B490020085EFCF738FA31460690B6
:10429000FCF71FF805460799FCF71BF8224908614F
:1042A0001CE001202149087000201F494861089046
:1042B00008990A98FCF70DF80B901B4908680C99AF
:1042C000FCF70FF805461A490020085EFCF716FABD
:1042D00006462946FBF7ACFF1349086112490869F5
:1042E0001449FCF7CBFA01D2124809E00E490869DB
:1042F0001149FCF7CDFA01D20F4801E00A480069E4
:10430000094908610869FCF719FA00B208490880F0
:1043100007490020085E0DB0F0BD00000000A0407D
:10432000D80000200000144024020020C300002018
:10433000D400002000007FC300007F43F8B504468E
:104340000D46F020204006112107090F012088406A
:10435000C7B23300FDF767FD05040A11181F2600D8
:104360002A4639461148FDF77CF91CE02A463946B1
:104370000E484030FDF775F915E02A4639460B48DE
:104380008030FDF76EF90EE02A4639460748C03006
:10439000FDF767F907E02A4639460448C030FDF7C3
:1043A00060F900E000BF00BFF8BD00000040005011
:1043B00010B534480078002806D11020FDF71AFA0D
:1043C00001203049087010BD00202E4908702E4889
:1043D0000078FF2805D02C4800782C4909788842BD
:1043E00043D129480078FF280BD12748407810286E
:1043F00007D0F02001F0B8FAFEF7ACFEF72001F08C
:10440000B3FA00242EE00C2060432149085C1E49C9
:104410004978884224D11F480078002811D01A48D2
:1044200040781C49097888420BD017484078001121
:10443000012806D01220FDF7DDF90120114908708E
:10444000C1E70C206043124940188068002806D05C
:104450000C2060430A46801881680020884703E0EA
:10446000601CC4B21C2CCED307E0F02001F07CFA13
:10447000FEF770FEF72001F077FA0120014908707D
:1044800000BFA0E751000020E401002066000020EA
:10449000A85900006700002070B505460C46284664
:1044A00020388000E3490C50012128462038800044
:1044B000E14A11502146E148FBF750FE04462846E8
:1044C00020380300FDF7AFFC080535679FD7FDFCDA
:1044D000FBFADB4840690020D949486108468068FA
:1044E000C9020843D6498860D64880680821084335
:1044F000D449886008460068000A00020B30086052
:1045000008464068C008C000001D4860CD484030E3
:10451000C06B01210843CB494031C8630520000727
:10452000806B89150843052109078863C548C46065
:104530007DE1C34840690020C14948610846806860
:10454000C9020843BE498860BE4880680121C9028B
:104550000843BC49886008460068000A00020B3026
:10456000086008464068702188434030B54948607B
:10457000B4484030C06B02210843B2494031C8639F
:1045800005200007806B491508430521090788634A
:10459000AC4884614BE1AA4840690020A8494861C1
:1045A0000846806809030843A5498860A5488068D3
:1045B00089020843A349886008460068FF21090270
:1045C00088430B21090240189E490860084640684C
:1045D000072109028843012189024018994948604E
:1045E00098484030C06B0421084396494031C86365
:1045F00005200007806B091508430521090788631A
:104600009048446213E18E48406900208C4948611B
:10461000084680680903084389498860894880689A
:10462000890408438749886008460068FF21090219
:1046300088430B21090240188249086008464068F7
:104640000721090388430121890340187D494860F7
:104650007C484030C06B082108437A494031C86328
:1046600005200007806BC9140843052109078863EA
:1046700074480463DBE07248C06900207049C86177
:1046800008468068490308436D4988606E48806821
:10469000082108436C49886008460068000A000247
:1046A0000B30086008464068C008C000001D486024
:1046B00065484030C06B0121084303E0B6E07CE070
:1046C00042E00EE060494031C86305200007806B7E
:1046D0000121090308430521090788635A48C4607A
:1046E000A5E05748C06900205549C8610846806860
:1046F0004903084352498860534880680121C90230
:1047000008435149886008460068000A00020B30DF
:104710000860084640687021884340304A49486034
:1047200049484030C06B0221084347494031C863C3
:1047300005200007806B0121490308430521090773
:1047400088634148846172E03D48C06900203C496B
:10475000C8610846806889030843394988603A4837
:104760008068890208433849886008460068FF214C
:10477000090288430B2109024018334908600846A2
:1047800040680721090288430121890240182E4907
:1047900048602D484030C06B042108432A4940310D
:1047A000C86305200007806B0121890308430521A8
:1047B000090788632448446239E02148C069002021
:1047C0001F49C86108468068890308431C498860FE
:1047D0001D488068890408431B49886008460068B2
:1047E000FF21090288430B2109024018164908607D
:1047F00008464068072109038843012189034018BE
:104800001149486010484030C06B082108430E49E8
:104810004031C86305200007806B0121C9030843AC
:104820000521090788630848046300E000BF00BF52
:1048300070BD00002C0000200401002040420F0049
:1048400000020050000004400000144070470000C7
:10485000FFB583B00D4616461F46002002902C4639
:104860000398203880001049085802900F48029998
:10487000FBF774FC0290B44201DA304604E0BC421B
:1048800001DD384600E020460446029800233A46FF
:10489000314600902046FFF7E3F80446214603988E
:1048A00000F006F807B0F0BD2C00002040420F00D9
:1048B00000B50246203A1300FDF7B5FA08050D16BB
:1048C0001F283039424B244A1161926801231A4350
:1048D000214B9A603EE0204AD1619268FF23013368
:1048E0001A431D4B9A6035E01B4A9162926801237E
:1048F0001B041A43184B9A602CE0174A51639268C4
:1049000001231B061A43144B9A6023E0134A1161DA
:10491000926801231A43114B9A601BE00F4AD16140
:104920009268FF2301331A430C4B9A6012E00B4A42
:104930009162926801231B041A43084B9A6009E0B4
:10494000064A5163926801231B061A43034B9A607F
:1049500000E000BF00BF00BD0000044000001440A4
:1049600010B50246505C4006400E184C2070481CA2
:10497000105CC007030E2046007818432070481CC6
:10498000105C40106070881C105C8007030E20468D
:104990004078C0186070881C105C8010A070C81C23
:1049A000105C4007030E20468078C018A070C81C19
:1049B000105CC010E070081D105C0007030E20465C
:1049C000C078C018E0702046006810BDA00000202C
:1049D00030B50346585C4006400E0E4D2870481C0A
:1049E000185CC007040E2846007820432870481C35
:1049F000185C40106870002A07D1881C185C80077A
:104A0000040E2846407820436870024D0020285E3E
:104A100030BD0000A40000207047704710B502466A
:104A2000505C4006400E064C2070481C105CC007CD
:104A3000030E20460078184320702046007810BDF1
:104A4000A6000020704770477047000010B5012194
:104A50002620FFF773FC01212520FFF76FFC0121C1
:104A60002420FFF76BFC01213620FFF767FC0021B3
:104A70003620FEF73BFB7D21C9002620FFF70CFD09
:104A80007D21C9002520FFF707FD7D21C9002420D5
:104A9000FFF702FD27492220FFF7FEFC25492320CE
:104AA000FFF7FAFCFF220021084600F0DFFCFDF7CB
:104AB000B5FE214908800020085E204908801E4973
:104AC0000020085E1E4908801B490020085EFBF795
:104AD00015FE1C4908601C481C49086000201C4940
:104AE0000870012080071B4908601B484860FF20B0
:104AF0008005886012490020085EFBF7FFFD15491C
:104B0000C8600020486115481549086000204860C9
:104B100088600E480068C86000204861114812494A
:104B20000860002048608860C8604861012000F08B
:104B30005FFB10BD204E0000CA000020CC0000200A
:104B4000CE000020DC00002000002042D800002021
:104B5000C5000020240200209A99193FCDCC4C407A
:104B6000440200206666E63F6402002070470000B1
:104B70001CB5034600200090019026480360007891
:104B80004006400E69460870087800F0C3FE2148D0
:104B9000407840001F490978C91108434006400E7B
:104BA00069464870487800F0B5FE1A488078800061
:104BB00018494978891108434006400E69468870B3
:104BC000887800F0A7FE1348C078C00011498978A2
:104BD000491108434006400E6946C870C87800F085
:104BE00099FE0C48C078001169460871087900F0F8
:104BF00091FE6946087849784018694689784018D6
:104C00006946C97840186946097940184406640E17
:104C100020461CBDA000002038B504460D460020EB
:104C2000009020B217490880084600784006400EE0
:104C300069460870087800F06DFE12484078400020
:104C400010490978C91108434006400E694648706A
:104C5000487800F05FFE6946087849784018C3B28A
:104C6000002D0DD10748407880116946887068464C
:104C70008078C018C3B25B065B0E887800F04AFEED
:104C8000184638BDA400002010B5754800880028DB
:104C900070D07448007860286DD17348008801286E
:104CA00019D172490020085E714900228A5E801A7B
:104CB000002807DD6D490020085E6D4900228A5EEC
:104CC000801A06E06A490020085E684900228A5E70
:104CD000801A052803DC64480088022809D1644949
:104CE0000020085E6149088061490020085E00F0EC
:104CF000FDF860480088012819D15F490020085E4E
:104D00005E4900228A5E801A002807DD5A49002089
:104D1000085E5A4900228A5E801A06E05749002040
:104D2000085E554900228A5E801A052803DC514836
:104D30000088022809D151490020085E4E490880A8
:104D40004E490020085E00F03DF94D4800880128DA
:104D50001BD14C490020085E4B4900228A5E801A14
:104D6000002809DD47490020085E474900228A5E85
:104D7000801A08E072E06FE043490020085E414974
:104D800000228A5E801A022803DC3D48008802283F
:104D900009D13D490020085E3A4908803A4900207F
:104DA000085E00F0C7F839480088012819D1384951
:104DB0000020085E374900228A5E801A002807DD3D
:104DC00033490020085E334900228A5E801A06E0DB
:104DD00030490020085E2E4900228A5E801A0A2887
:104DE00003DC2A480088022809D12A490020085EED
:104DF0002749088027490020085E00F007F9264867
:104E00000088012819D125490020085E2449002284
:104E10008A5E801A002807DD20490020085E2049AC
:104E200000228A5E801A06E01D490020085E1B49A8
:104E300000228A5E801A0A2803DC174800880228AC
:104E400009D117490020085E144908801449002040
:104E5000085E00F027F800E000BF00BF10BD0000B2
:104E60006A000020670000206C000020780000200D
:104E7000760000206E0000207C0000207A000020D8
:104E800070000020800000207E00002072000020C2
:104E90008400002082000020740000208800002090
:104EA0008600002030B50546F02000F033FD0E48A6
:104EB000007800F02FFD602000F02CFD262000F08F
:104EC00029FD094800788630C4B200212846FFF742
:104ED000A3FE0019C4B26406640E204600F01AFD59
:104EE000F72000F017FD30BD6600002030B5054604
:104EF000F02000F00FFD0E48007800F00BFD602060
:104F000000F008FD222000F005FD094800788230FD
:104F1000C4B200212846FFF77FFE0019C4B2640620
:104F2000640E204600F0F6FCF72000F0F3FC30BDE4
:104F300066000020F0B587B007463846FBF7DEFB79
:104F400006900698FBF756FC05460022194BFBF726
:104F5000F5FA0022184B01910090FBF757FB002255
:104F6000164B03910290FBF7E9FA05910490FBF7C9
:104F700069FC0690F02000F0CDFC1148007800F0AC
:104F8000C9FC602000F0C6FC232000F0C3FC0C48E4
:104F900000788330C4B20698FFF7EAFD0019C4B266
:104FA0006406640E204600F0B5FCF72000F0B2FC69
:104FB00007B0F0BD00005940002CB14000004E4049
:104FC0006600002030B50546F02000F0A3FC0E4836
:104FD000007800F09FFC602000F09CFC252000F091
:104FE00099FC094800788530C4B200212846FFF7B3
:104FF00013FE0019C4B26406640E204600F08AFC59
:10500000F72000F087FC30BD6600002030B5054673
:10501000F02000F07FFC0E48007800F07BFC602060
:1050200000F078FC272000F075FC094800788730F4
:10503000C4B200212846FFF7EFFD0019C4B2640690
:10504000640E204600F066FCF72000F063FC30BDE3
:105050006600002010B5C2690AE00B780360491CA5
:1050600000BF83690124240723401B0F002BF8D0C5
:105070000B78002BF1D110BD00B5034603E0187882
:105080005B1C00F047FC18780028F8D100BD000038
:1050900038B505462F4884780F20FCF7ABFB002C71
:1050A0001CD1E1204002FCF7C9FCE1204002FCF7E2
:1050B000D7FC002003460322E12149020090264844
:1050C000FCF750FD002003460322E1214902009035
:1050D0002248FCF747FDFCF7D1FC3AE0012C1CD13B
:1050E000E1200003FCF7AAFCE1200003FCF7B8FC78
:1050F000002003460322E121090300901648FCF733
:1051000031FD002003460322E121090300901348EA
:10511000FCF728FDFCF7B2FC1BE0E1204002FCF7A5
:105120008DFCE1204002FCF79BFC0020034603229B
:10513000E121490200900848FCF714FD00200346D5
:105140000322E121490200900448FCF70BFDFCF723
:1051500095FC38BDE401002000000540000015402A
:105160007047000010B50446012004490870002073
:10517000034908800F20FCF73DFB10BD56000020BE
:10518000F4000020F8B504460D4616461F46FEF70B
:1051900077FC14490968401AA04213D912480078D4
:1051A000002803D101201049087002E000200E49B8
:1051B00008700E480088401C0C490880FEF760FC0F
:1051C0000849086008480078012805D13A46314668
:1051D000284600F04BF904E000221146104600F08A
:1051E00045F9F8BDF8000020C6000020F4000020BA
:1051F00010B50446012C07D100213620FDF776FFBB
:10520000A01E0449088003E001213620FDF76EFF4F
:1052100010BD0000CE00002010B50446FF23002280
:1052200019462220FFF714FBFF20011B0346002232
:105230002320FFF70DFB10BDFEB56A488078029071
:10524000029810380300FCF7EEFD180D0E29C6C6B3
:10525000C6444EC6C6C6C6C6C6C6C66F707182C62E
:1052600093A4B5C6BBE0002201215E48801CFFF775
:10527000AFFB05465C480088052806DD0421594837
:10528000801CFFF76DFB044600E0584C2146284681
:1052900000F014F90F20FCF7ADFAA0E00022012184
:1052A0005048801CFFF794FB05464F4800880528AE
:1052B00006DD04214B48801CFFF752FB044600E04A
:1052C0004B4C2146284600F0EBF80F20FCF792FAF1
:1052D00085E04448C07801900198FFF789FF0F20CE
:1052E000FCF788FA7BE001213E48801CFFF796FB23
:1052F000064603213B48801CFFF790FB074605212B
:105300003848801CFFF78AFB00903A4806704770C7
:1053100038490098887039463046009A00F0A6F85F
:105320000F20FCF767FA5AE059E058E02D48C078A2
:1053300031490880314800880988401800B22F4957
:1053400008802F490020085EFFF7D0FD47E0254880
:10535000C0782C490880294800880988401800B284
:105360002649088028490020085EFFF7E3FD36E063
:105370001C48C078254908802048008809884018C2
:1053800000B21E49088022490020085EFFF71AFE7D
:1053900025E01448C0781F4908801848008809880B
:1053A000401800B2154908801B490020085EFFF72D
:1053B00079FD14E00B48C078184908800F48008830
:1053C0000988401800B20D49088015490020085E80
:1053D000FFF71CFE03E01120FCF70CFA00BF00BF32
:1053E000FEBD0000E4010020580000200000204223
:1053F00000007F43C00000206C0000206A000020F5
:1054000076000020700000207E0000206E0000204A
:105410007A00002074000020860000207200002026
:105420008200002010B50446FF20011B0346002225
:105430002220FFF70DFAFF23002219462320FFF751
:1054400007FA10BD07490020085E401C002806D05E
:105450000020085E044900228A5E801A70470020FE
:10546000FCE70000CE000020CA00002070B5044612
:105470000D461646FF20011B034600222620FFF79B
:10548000E7F9FF20411B034600222520FFF7E0F942
:10549000FF20811B034600222420FFF7D9F970BDAD
:1054A00070B504460D4604490988091908B2294611
:1054B00000F004F870BD0000CA000020F0B587B00D
:1054C00004460F46C82C02DBD048844201DD07B0F9
:1054D000F0BD01213620FDF709FE0020CC490870FF
:1054E000CC494861CC494861CC4804800021384609
:1054F000FBF7CEF901D2384603E038460121C9074F
:105500004840C7490860C749C5480068FAF7E9FE3E
:105510000590FFF797FF002802DDFFF793FF02E0F9
:10552000FFF790FF40420646FBF7E8F8054605996D
:10553000FBF7AEF976D8BA480068FBF75BF9054689
:105540000022B94BFAF7FAFF05910490FBF77AF9BC
:10555000B0490861FFF776FF002848DD0120B34914
:105560000870B34900228A5E002A03DD0A46002142
:10557000515E03E0AE4900228A5E51420846FBF7C5
:10558000BDF80646A34908690021FBF781F902D25C
:10559000A048006904E09F4800690121C90748400C
:1055A00005463146FBF774F90ED29A490869002185
:1055B000FBF76EF902D29748006915E0954800693B
:1055C0000121C90748400FE0994900228A5E002A5C
:1055D00003DD0A460021515E03E0954900228A5E00
:1055E00051420846FBF78AF88A49086104E1002025
:1055F0008E4908708E490A5E002A02DD0A46115E55
:1056000003E08B4900228A5E51424842FBF776F85C
:105610000646804908690021FBF73AF903D27D4824
:10562000006905E031E07B4800690121C907484075
:105630000121C907484005463146FBF71FF911D241
:10564000744908690021FBF723F902D27148006907
:1056500004E0704800690121C90748400121C907D9
:1056600048400FE0724900228A5E002A03DD0A46A4
:105670000021515E03E06E4900228A5E5142484299
:10568000FBF73CF863490861B6E0FFF7DBFE002852
:1056900002DDFFF7D7FE02E0FFF7D4FE40420190A3
:1056A000FBF738F8054600225F4BFAF747FF002268
:1056B000604B03910290FAF7A9FF05910490FBF764
:1056C000C1F854490861FFF7BDFE002848DD0120FC
:1056D00056490870564900228A5E002A03DD0A46B0
:1056E0000021515E03E0524900228A5E5142084681
:1056F000FBF704F80646474908690021FBF7C8F89C
:1057000002D24448006904E0424800690121C90707
:10571000484005463146FBF7BBF80ED23D490869C3
:105720000021FBF7B5F802D23A48006915E0394884
:1057300000690121C90748400FE03D4900228A5E07
:10574000002A03DD0A460021515E03E038490022A9
:105750008A5E51420846FAF7D1FF2E4908614BE0B4
:1057600000203249087032490A5E002A02DD0A46EA
:10577000115E03E02E4900228A5E51424842FAF748
:10578000BDFF0646234908690021FBF781F802D2D4
:105790002048006904E01F4800690121C90748400A
:1057A0000121C907484005463146FBF767F811D289
:1057B000184908690021FBF76BF802D21548006907
:1057C00004E0144800690121C90748400121C907C4
:1057D00048400FE0164900228A5E002A03DD0A468F
:1057E0000021515E03E0124900228A5E5142484284
:1057F000FAF784FF0749086106490869FAF79EFF2E
:1058000000B20B49088000BF61E600003C0F0000B9
:10581000C30000204402002024020020CE0000200B
:10582000D80000200000A04000801940C4000020E3
:10583000D40000200000144070B505462C460B49EA
:105840000020085E401C002800D170BD002C03DD44
:10585000E0B2FFF7E7FD07E0002C01DD214600E0A4
:105860006142C8B2FFF7D8FC00BFEEE7CE000020CF
:10587000F8B506460C46FBF7B9F905000F4600D00F
:105880000120014349000B484908411AC90F0DD0B6
:10589000002E01D0012100E000210C4361004908E5
:1058A000401AC00F02D10120FCF754FB28463946AC
:1058B000F8BD00000000F07F704770470FB400B5DE
:1058C00091B013A810906846109A1299FCF782FACA
:1058D0006846FFF7D1FB0020109011B008BC04B05F
:1058E00018470FB410B5A2B0044626A8219001A80D
:1058F000219A2599FCF76EFA01A92046FFF7AAFB29
:105900000020219022B010BC08BC04B0184770479A
:1059100070470000104909883F2914DA0F49104ADE
:10592000128888540E4909883F2901D1002102E0DC
:105930000B490988491C0A4A118007490988491CF2
:10594000054A118006E00021034A1180044A1180B3
:10595000044A1180704700005C00002024010020F0
:1059600064000020620000200549086000BF04496F
:105970008969012212071140090F0029F7D07047E9
:105980000000154070477047001BB7000000000082
:1059900080F0FA0210270000000000000000000064
:1059A0000000000000805101100000000000000015
:1059B0008D2900001100000000000000B95800000F
:1059C00020000000000000006551000013000000EE
:1059D00000000000915000001400000000000000D2
:1059E0000D30000018000000000000008559000084
:1059F0001900000000000000115900001A0000000A
:105A000000000000474A00001B00000000000000EA
:105A1000454A00001C000000000000006151000029
:105A20001D000000000000001B4A00001E000000D6
:105A300000000000194A00002100000000000000E2
:105A40004D480000220000000000000087590000BF
:105A50002400000000000000953A0000280000002B
:105A6000000000006D4B0000290000000000000055
:105A70008D3300002A00000000000000973A00006B
:105A80002B00000000000000133C00002C00000070
:105A900000000000993A00002D0000000000000006
:105AA000113C00002E000000000000000F59000013
:105AB0002F00000000000000C7350000400000007B
:105AC00000000000BB580000410000000000000082
:105AD000153C00004200000000000000C935000035
