:03000000020107F3
:0C010700787FE4F6D8FD75812002014EDF
:10019300737461727420636865636B0D0A00706F1A
:1001A300776572206F6E0D0A0077616974203121C3
:1001B3000D0A00706F776572206F66660D0A00770F
:0901C3006169742032210D0A006B
:0D02750002080000020B0000010A00C10495
:10000E00C2B37F057E00120262120227D2AFC2B5C2
:10001E0075C13920041720B4147BFF7A017993122D
:10002E000202D204E4F508F509F50DF50EE50A70A5
:10003E006030045D0509E5097002050820B4080565
:10004E000EE50E7002050DD3E5099464E5089400E3
:10005E00403FC204E4F508F509D3E50E944BE50DD7
:10006E00940040147BFF7A0179A1120202D2B57F6F
:10007E00647E00120262D2B3E4F50DF50E20B411C7
:10008E0043C110750A017BFF7A0179AC120202801E
:10009E00ECE50A640170593004560509E509700251
:1000AE00050820B408050EE50E7002050DD3E5090E
:1000BE009464E50894004038C204E4F508F509D3C9
:1000CE00E50E943CE50D940040107BFF7A0179B665
:1000DE00120202E4F50AC2B3C2B5E4F50DF50E2024
:1000EE00B40E43C1107BFF7A0179C212020280EF77
:0900FE0012028343C1100200212B
:0B0283000000007F0B7EBEDEFEDFFCF3
:01028E00224D
:10026200AD07AC06ED1D70011C144C600512028333
:0302720080F222F5
:10022700C203C202D201C200E4F519F518438E8059
:100237005389F0758A80758CFEC28DD28CD2A9D273
:02024700B922DA
:03000B000201CC23
:1001CC00C0E0C0D01519E51970277519033003214B
:1001DC00E517700AC2B18516137517098013E5135C
:1001EC00C313F513D51708D2B1C203D20180029202
:0601FC00B1D0D0D0E032CA
:0A028F003001FDC2018F16D20322D8
:100202008B1A8A1B891CAB1AAA1BA91C12024960F1
:1002120013051CE51C7002051B14F9120249FF129A
:05022200028F80E222C2
:1001130002000EE493A3F8E493A34003F68001F2F4
:1001230008DFF48029E493A3F85407240CC8C333ED
:10013300C4540F4420C8834004F456800146F6DFBC
:10014300E4800B0102040810204080900275E47ED5
:10015300019360BCA3FF543F30E509541FFEE493B1
:10016300A360010ECF54C025E060A840B8E493A378
:10017300FAE493A3F8E493A3C8C582C8CAC583CAA3
:10018300F0A3C8C582C8CAC583CADFE9DEE780BE5B
:01028200007B
:10024900BB010689828A83E0225002E722BBFE02B3
:09025900E32289828A83E49322E6
:00000001FF
